{
  "contractName": "CertificateIssuer",
  "abi": [
    {
      "inputs": [
        {
          "internalType": "string",
          "name": "_issuerName",
          "type": "string"
        },
        {
          "internalType": "string",
          "name": "_certName",
          "type": "string"
        },
        {
          "internalType": "string",
          "name": "_certDesc",
          "type": "string"
        },
        {
          "internalType": "uint256",
          "name": "_numCertCoursesRequired",
          "type": "uint256"
        }
      ],
      "stateMutability": "nonpayable",
      "type": "constructor"
    },
    {
      "inputs": [
        {
          "internalType": "uint256",
          "name": "",
          "type": "uint256"
        }
      ],
      "name": "certTypeIds",
      "outputs": [
        {
          "internalType": "uint256",
          "name": "",
          "type": "uint256"
        }
      ],
      "stateMutability": "view",
      "type": "function",
      "constant": true
    },
    {
      "inputs": [
        {
          "internalType": "uint256",
          "name": "",
          "type": "uint256"
        }
      ],
      "name": "certificate_types",
      "outputs": [
        {
          "internalType": "string",
          "name": "certificateName",
          "type": "string"
        },
        {
          "internalType": "uint256",
          "name": "certificateTypeId",
          "type": "uint256"
        },
        {
          "internalType": "string",
          "name": "certificateDescription",
          "type": "string"
        },
        {
          "internalType": "uint256",
          "name": "numCoursesRequired",
          "type": "uint256"
        }
      ],
      "stateMutability": "view",
      "type": "function",
      "constant": true
    },
    {
      "inputs": [
        {
          "internalType": "uint256",
          "name": "",
          "type": "uint256"
        }
      ],
      "name": "courseIds",
      "outputs": [
        {
          "internalType": "uint256",
          "name": "",
          "type": "uint256"
        }
      ],
      "stateMutability": "view",
      "type": "function",
      "constant": true
    },
    {
      "inputs": [
        {
          "internalType": "uint256",
          "name": "",
          "type": "uint256"
        }
      ],
      "name": "courses",
      "outputs": [
        {
          "internalType": "uint256",
          "name": "courseId",
          "type": "uint256"
        },
        {
          "internalType": "string",
          "name": "courseName",
          "type": "string"
        },
        {
          "internalType": "string",
          "name": "courseDescription",
          "type": "string"
        }
      ],
      "stateMutability": "view",
      "type": "function",
      "constant": true
    },
    {
      "inputs": [],
      "name": "issuerName",
      "outputs": [
        {
          "internalType": "string",
          "name": "",
          "type": "string"
        }
      ],
      "stateMutability": "view",
      "type": "function",
      "constant": true
    },
    {
      "inputs": [],
      "name": "owner",
      "outputs": [
        {
          "internalType": "address",
          "name": "",
          "type": "address"
        }
      ],
      "stateMutability": "view",
      "type": "function",
      "constant": true
    },
    {
      "inputs": [
        {
          "internalType": "address",
          "name": "",
          "type": "address"
        }
      ],
      "name": "students",
      "outputs": [
        {
          "internalType": "address",
          "name": "studentAddress",
          "type": "address"
        },
        {
          "internalType": "string",
          "name": "studentName",
          "type": "string"
        }
      ],
      "stateMutability": "view",
      "type": "function",
      "constant": true
    },
    {
      "inputs": [],
      "name": "getBalance",
      "outputs": [
        {
          "internalType": "uint256",
          "name": "",
          "type": "uint256"
        }
      ],
      "stateMutability": "view",
      "type": "function",
      "constant": true
    },
    {
      "inputs": [
        {
          "internalType": "uint256",
          "name": "_certificateTypeId",
          "type": "uint256"
        }
      ],
      "name": "requestCert",
      "outputs": [
        {
          "internalType": "uint256",
          "name": "certificateId",
          "type": "uint256"
        }
      ],
      "stateMutability": "payable",
      "type": "function",
      "payable": true
    },
    {
      "inputs": [
        {
          "internalType": "uint256",
          "name": "id",
          "type": "uint256"
        }
      ],
      "name": "getCert",
      "outputs": [
        {
          "components": [
            {
              "internalType": "uint256",
              "name": "certificateId",
              "type": "uint256"
            },
            {
              "internalType": "string",
              "name": "studentName",
              "type": "string"
            },
            {
              "internalType": "address",
              "name": "studentAddress",
              "type": "address"
            },
            {
              "internalType": "uint256",
              "name": "certificateTypeId",
              "type": "uint256"
            },
            {
              "internalType": "uint256",
              "name": "issuedDate",
              "type": "uint256"
            },
            {
              "internalType": "bool",
              "name": "valid",
              "type": "bool"
            }
          ],
          "internalType": "struct CertificateIssuer.Certificate",
          "name": "",
          "type": "tuple"
        }
      ],
      "stateMutability": "view",
      "type": "function",
      "constant": true
    },
    {
      "inputs": [
        {
          "internalType": "address",
          "name": "_studentAddress",
          "type": "address"
        },
        {
          "internalType": "string",
          "name": "_studentName",
          "type": "string"
        }
      ],
      "name": "addStudent",
      "outputs": [
        {
          "internalType": "bool",
          "name": "success",
          "type": "bool"
        }
      ],
      "stateMutability": "nonpayable",
      "type": "function"
    },
    {
      "inputs": [
        {
          "internalType": "string",
          "name": "_courseName",
          "type": "string"
        },
        {
          "internalType": "string",
          "name": "_courseDesc",
          "type": "string"
        }
      ],
      "name": "addCourse",
      "outputs": [
        {
          "internalType": "uint256",
          "name": "courseId",
          "type": "uint256"
        }
      ],
      "stateMutability": "nonpayable",
      "type": "function"
    },
    {
      "inputs": [
        {
          "internalType": "uint256",
          "name": "_courseId",
          "type": "uint256"
        },
        {
          "internalType": "address",
          "name": "_studentAddress",
          "type": "address"
        },
        {
          "internalType": "bool",
          "name": "_pass",
          "type": "bool"
        }
      ],
      "name": "addEnrollment",
      "outputs": [],
      "stateMutability": "nonpayable",
      "type": "function"
    },
    {
      "inputs": [
        {
          "internalType": "string",
          "name": "_certName",
          "type": "string"
        },
        {
          "internalType": "string",
          "name": "_certDesc",
          "type": "string"
        },
        {
          "internalType": "uint256",
          "name": "_numCoursesRequired",
          "type": "uint256"
        }
      ],
      "name": "addCertificateType",
      "outputs": [
        {
          "internalType": "uint256",
          "name": "certTypeId",
          "type": "uint256"
        }
      ],
      "stateMutability": "nonpayable",
      "type": "function"
    },
    {
      "inputs": [],
      "name": "getAllStudentIds",
      "outputs": [
        {
          "internalType": "address[]",
          "name": "",
          "type": "address[]"
        }
      ],
      "stateMutability": "view",
      "type": "function",
      "constant": true
    },
    {
      "inputs": [],
      "name": "getAllStudents",
      "outputs": [
        {
          "components": [
            {
              "internalType": "address",
              "name": "studentAddress",
              "type": "address"
            },
            {
              "internalType": "string",
              "name": "studentName",
              "type": "string"
            },
            {
              "internalType": "uint256[]",
              "name": "enrollmentIds",
              "type": "uint256[]"
            },
            {
              "internalType": "uint256[]",
              "name": "certificateIds",
              "type": "uint256[]"
            }
          ],
          "internalType": "struct CertificateIssuer.Student[]",
          "name": "",
          "type": "tuple[]"
        }
      ],
      "stateMutability": "view",
      "type": "function",
      "constant": true
    },
    {
      "inputs": [],
      "name": "getAllCertTypes",
      "outputs": [
        {
          "components": [
            {
              "internalType": "string",
              "name": "certificateName",
              "type": "string"
            },
            {
              "internalType": "uint256",
              "name": "certificateTypeId",
              "type": "uint256"
            },
            {
              "internalType": "string",
              "name": "certificateDescription",
              "type": "string"
            },
            {
              "internalType": "uint256",
              "name": "numCoursesRequired",
              "type": "uint256"
            }
          ],
          "internalType": "struct CertificateIssuer.CertificateType[]",
          "name": "",
          "type": "tuple[]"
        }
      ],
      "stateMutability": "view",
      "type": "function",
      "constant": true
    },
    {
      "inputs": [],
      "name": "getAllCourses",
      "outputs": [
        {
          "components": [
            {
              "internalType": "uint256",
              "name": "courseId",
              "type": "uint256"
            },
            {
              "internalType": "string",
              "name": "courseName",
              "type": "string"
            },
            {
              "internalType": "string",
              "name": "courseDescription",
              "type": "string"
            }
          ],
          "internalType": "struct CertificateIssuer.Course[]",
          "name": "",
          "type": "tuple[]"
        }
      ],
      "stateMutability": "view",
      "type": "function",
      "constant": true
    },
    {
      "inputs": [],
      "name": "getAllCourseIds",
      "outputs": [
        {
          "internalType": "uint256[]",
          "name": "",
          "type": "uint256[]"
        }
      ],
      "stateMutability": "view",
      "type": "function",
      "constant": true
    },
    {
      "inputs": [],
      "name": "getAllEnrollments",
      "outputs": [
        {
          "components": [
            {
              "internalType": "uint256",
              "name": "enrollmentId",
              "type": "uint256"
            },
            {
              "internalType": "address",
              "name": "studentAddress",
              "type": "address"
            },
            {
              "internalType": "uint256",
              "name": "courseId",
              "type": "uint256"
            },
            {
              "internalType": "bool",
              "name": "pass",
              "type": "bool"
            }
          ],
          "internalType": "struct CertificateIssuer.Enrollment[]",
          "name": "",
          "type": "tuple[]"
        }
      ],
      "stateMutability": "view",
      "type": "function",
      "constant": true
    },
    {
      "inputs": [
        {
          "internalType": "uint256",
          "name": "enrollmentId",
          "type": "uint256"
        }
      ],
      "name": "getEnrollment",
      "outputs": [
        {
          "components": [
            {
              "internalType": "uint256",
              "name": "enrollmentId",
              "type": "uint256"
            },
            {
              "internalType": "address",
              "name": "studentAddress",
              "type": "address"
            },
            {
              "internalType": "uint256",
              "name": "courseId",
              "type": "uint256"
            },
            {
              "internalType": "bool",
              "name": "pass",
              "type": "bool"
            }
          ],
          "internalType": "struct CertificateIssuer.Enrollment",
          "name": "",
          "type": "tuple"
        }
      ],
      "stateMutability": "view",
      "type": "function",
      "constant": true
    },
    {
      "inputs": [],
      "name": "getAllCertificates",
      "outputs": [
        {
          "components": [
            {
              "internalType": "uint256",
              "name": "certificateId",
              "type": "uint256"
            },
            {
              "internalType": "string",
              "name": "studentName",
              "type": "string"
            },
            {
              "internalType": "address",
              "name": "studentAddress",
              "type": "address"
            },
            {
              "internalType": "uint256",
              "name": "certificateTypeId",
              "type": "uint256"
            },
            {
              "internalType": "uint256",
              "name": "issuedDate",
              "type": "uint256"
            },
            {
              "internalType": "bool",
              "name": "valid",
              "type": "bool"
            }
          ],
          "internalType": "struct CertificateIssuer.Certificate[]",
          "name": "",
          "type": "tuple[]"
        }
      ],
      "stateMutability": "view",
      "type": "function",
      "constant": true
    }
  ],
  "bytecode": "0x60806040526001600c556001600d556001600e556001600f553480156200002557600080fd5b5060405162004c3d38038062004c3d83398181016040528101906200004b9190620002d4565b60006200005d6200017b60201b60201c565b90506000604051806080016040528086815260200183815260200185815260200184815250905080600360008481526020019081526020016000206000820151816000019080519060200190620000b69291906200019b565b50602082015181600101556040820151816002019080519060200190620000df9291906200019b565b50606082015181600301559050506007829080600181540180825580915050600190039060005260206000200160009091909190915055336000806101000a81548173ffffffffffffffffffffffffffffffffffffffff021916908373ffffffffffffffffffffffffffffffffffffffff16021790555085600190805190602001906200016e9291906200019b565b505050505050506200059c565b6000600d6000815480929190620001929062000496565b91905055905090565b828054620001a9906200042a565b90600052602060002090601f016020900481019282620001cd576000855562000219565b82601f10620001e857805160ff191683800117855562000219565b8280016001018555821562000219579182015b8281111562000218578251825591602001919060010190620001fb565b5b5090506200022891906200022c565b5090565b5b80821115620002475760008160009055506001016200022d565b5090565b6000620002626200025c84620003b4565b6200038b565b9050828152602081018484840111156200027b57600080fd5b62000288848285620003f4565b509392505050565b600082601f830112620002a257600080fd5b8151620002b48482602086016200024b565b91505092915050565b600081519050620002ce8162000582565b92915050565b60008060008060808587031215620002eb57600080fd5b600085015167ffffffffffffffff8111156200030657600080fd5b620003148782880162000290565b945050602085015167ffffffffffffffff8111156200033257600080fd5b620003408782880162000290565b935050604085015167ffffffffffffffff8111156200035e57600080fd5b6200036c8782880162000290565b92505060606200037f87828801620002bd565b91505092959194509250565b600062000397620003aa565b9050620003a5828262000460565b919050565b6000604051905090565b600067ffffffffffffffff821115620003d257620003d162000542565b5b620003dd8262000571565b9050602081019050919050565b6000819050919050565b60005b8381101562000414578082015181840152602081019050620003f7565b8381111562000424576000848401525b50505050565b600060028204905060018216806200044357607f821691505b602082108114156200045a576200045962000513565b5b50919050565b6200046b8262000571565b810181811067ffffffffffffffff821117156200048d576200048c62000542565b5b80604052505050565b6000620004a382620003ea565b91507fffffffffffffffffffffffffffffffffffffffffffffffffffffffffffffffff821415620004d957620004d8620004e4565b5b600182019050919050565b7f4e487b7100000000000000000000000000000000000000000000000000000000600052601160045260246000fd5b7f4e487b7100000000000000000000000000000000000000000000000000000000600052602260045260246000fd5b7f4e487b7100000000000000000000000000000000000000000000000000000000600052604160045260246000fd5b6000601f19601f8301169050919050565b6200058d81620003ea565b81146200059957600080fd5b50565b61469180620005ac6000396000f3fe6080604052600436106101355760003560e01c80635e8b8091116100ab57806396f979d21161006f57806396f979d214610469578063a21103b6146104a8578063a6c807a9146104d8578063b449e71614610516578063e9e3092714610553578063fbd8e3971461057e57610135565b80635e8b80911461037057806366df6568146103ad578063834d336c146103ea5780638da5cb5b1461041557806394b695801461044057610135565b80632e9868f8116100fd5780632e9868f814610235578063357b3616146102605780633c8a254d1461028b578063494e2371146102cb57806355f213d6146103085780635982dd1b1461033357610135565b806304e48bd11461013a57806312065fe01461016557806312c85b221461019057806313fcfe80146101cd5780632b75565d146101f8575b600080fd5b34801561014657600080fd5b5061014f6105a9565b60405161015c9190613e6f565b60405180910390f35b34801561017157600080fd5b5061017a610833565b6040516101879190614084565b60405180910390f35b34801561019c57600080fd5b506101b760048036038101906101b2919061344d565b61083b565b6040516101c49190614084565b60405180910390f35b3480156101d957600080fd5b506101e2610a28565b6040516101ef9190613e4d565b60405180910390f35b34801561020457600080fd5b5061021f600480360381019061021a91906133d8565b610cfd565b60405161022c9190614084565b60405180910390f35b34801561024157600080fd5b5061024a610e96565b6040516102579190613f12565b60405180910390f35b34801561026c57600080fd5b50610275610f24565b6040516102829190613e2b565b60405180910390f35b34801561029757600080fd5b506102b260048036038101906102ad91906134d6565b6111b8565b6040516102c29493929190613f34565b60405180910390f35b3480156102d757600080fd5b506102f260048036038101906102ed91906134d6565b6112f8565b6040516102ff9190614084565b60405180910390f35b34801561031457600080fd5b5061031d61131c565b60405161032a9190613e91565b60405180910390f35b34801561033f57600080fd5b5061035a600480360381019061035591906134d6565b611555565b6040516103679190614069565b60405180910390f35b34801561037c57600080fd5b5061039760048036038101906103929190613380565b61165f565b6040516103a49190613ef7565b60405180910390f35b3480156103b957600080fd5b506103d460048036038101906103cf91906134d6565b611abd565b6040516103e19190614084565b60405180910390f35b3480156103f657600080fd5b506103ff611ae1565b60405161040c9190613e09565b60405180910390f35b34801561042157600080fd5b5061042a611bc7565b6040516104379190613dbe565b60405180910390f35b34801561044c57600080fd5b50610467600480360381019061046291906134ff565b611beb565b005b34801561047557600080fd5b50610490600480360381019061048b91906134d6565b611e5a565b60405161049f9392919061409f565b60405180910390f35b6104c260048036038101906104bd91906134d6565b611f94565b6040516104cf9190614084565b60405180910390f35b3480156104e457600080fd5b506104ff60048036038101906104fa9190613357565b61228d565b60405161050d929190613dd9565b60405180910390f35b34801561052257600080fd5b5061053d600480360381019061053891906134d6565b612359565b60405161054a9190614047565b60405180910390f35b34801561055f57600080fd5b506105686124ad565b6040516105759190613eb3565b60405180910390f35b34801561058a57600080fd5b50610593612845565b6040516105a09190613ed5565b60405180910390f35b6060600060088054905067ffffffffffffffff8111156105f2577f4e487b7100000000000000000000000000000000000000000000000000000000600052604160045260246000fd5b60405190808252806020026020018201604052801561062b57816020015b6106186130c9565b8152602001906001900390816106105790505b50905060005b60088054905081101561082b576000600460006008848154811061067e577f4e487b7100000000000000000000000000000000000000000000000000000000600052603260045260246000fd5b90600052602060002001548152602001908152602001600020604051806060016040529081600082015481526020016001820180546106bc9061432c565b80601f01602080910402602001604051908101604052809291908181526020018280546106e89061432c565b80156107355780601f1061070a57610100808354040283529160200191610735565b820191906000526020600020905b81548152906001019060200180831161071857829003601f168201915b5050505050815260200160028201805461074e9061432c565b80601f016020809104026020016040519081016040528092919081815260200182805461077a9061432c565b80156107c75780601f1061079c576101008083540402835291602001916107c7565b820191906000526020600020905b8154815290600101906020018083116107aa57829003601f168201915b50505050508152505090508083838151811061080c577f4e487b7100000000000000000000000000000000000000000000000000000000600052603260045260246000fd5b60200260200101819052505080806108239061435e565b915050610631565b508091505090565b600047905090565b60008060009054906101000a900473ffffffffffffffffffffffffffffffffffffffff1673ffffffffffffffffffffffffffffffffffffffff163373ffffffffffffffffffffffffffffffffffffffff161461089657600080fd5b600082116108d9576040517f08c379a00000000000000000000000000000000000000000000000000000000081526004016108d090613fa7565b60405180910390fd5b6108e161289d565b90506000604051806080016040528088888080601f016020809104026020016040519081016040528093929190818152602001838380828437600081840152601f19601f82011690508083019250505050505050815260200183815260200186868080601f016020809104026020016040519081016040528093929190818152602001838380828437600081840152601f19601f820116905080830192505050505050508152602001848152509050806003600084815260200190815260200160002060008201518160000190805190602001906109c09291906130ea565b506020820151816001015560408201518160020190805190602001906109e79291906130ea565b506060820151816003015590505060078290806001815401808255809150506001900390600052602060002001600090919091909150555095945050505050565b606060008054906101000a900473ffffffffffffffffffffffffffffffffffffffff1673ffffffffffffffffffffffffffffffffffffffff163373ffffffffffffffffffffffffffffffffffffffff1614610a8257600080fd5b600060098054905067ffffffffffffffff811115610ac9577f4e487b7100000000000000000000000000000000000000000000000000000000600052604160045260246000fd5b604051908082528060200260200182016040528015610b0257816020015b610aef613170565b815260200190600190039081610ae75790505b50905060005b600980549050811015610cf55760006002600060098481548110610b55577f4e487b7100000000000000000000000000000000000000000000000000000000600052603260045260246000fd5b906000526020600020015481526020019081526020016000206040518060c001604052908160008201548152602001600182018054610b939061432c565b80601f0160208091040260200160405190810160405280929190818152602001828054610bbf9061432c565b8015610c0c5780601f10610be157610100808354040283529160200191610c0c565b820191906000526020600020905b815481529060010190602001808311610bef57829003601f168201915b505050505081526020016002820160009054906101000a900473ffffffffffffffffffffffffffffffffffffffff1673ffffffffffffffffffffffffffffffffffffffff1673ffffffffffffffffffffffffffffffffffffffff16815260200160038201548152602001600482015481526020016005820160009054906101000a900460ff161515151581525050905080838381518110610cd6577f4e487b7100000000000000000000000000000000000000000000000000000000600052603260045260246000fd5b6020026020010181905250508080610ced9061435e565b915050610b08565b508091505090565b60008060009054906101000a900473ffffffffffffffffffffffffffffffffffffffff1673ffffffffffffffffffffffffffffffffffffffff163373ffffffffffffffffffffffffffffffffffffffff1614610d5857600080fd5b610d606128bb565b90506000604051806060016040528083815260200187878080601f016020809104026020016040519081016040528093929190818152602001838380828437600081840152601f19601f82011690508083019250505050505050815260200185858080601f016020809104026020016040519081016040528093929190818152602001838380828437600081840152601f19601f8201169050808301925050505050505081525090508060046000848152602001908152602001600020600082015181600001556020820151816001019080519060200190610e439291906130ea565b506040820151816002019080519060200190610e609291906130ea565b50905050600882908060018154018082558091505060019003906000526020600020016000909190919091505550949350505050565b60018054610ea39061432c565b80601f0160208091040260200160405190810160405280929190818152602001828054610ecf9061432c565b8015610f1c5780601f10610ef157610100808354040283529160200191610f1c565b820191906000526020600020905b815481529060010190602001808311610eff57829003601f168201915b505050505081565b6060600060078054905067ffffffffffffffff811115610f6d577f4e487b7100000000000000000000000000000000000000000000000000000000600052604160045260246000fd5b604051908082528060200260200182016040528015610fa657816020015b610f936131be565b815260200190600190039081610f8b5790505b50905060005b6007805490508110156111b05760006003600060078481548110610ff9577f4e487b7100000000000000000000000000000000000000000000000000000000600052603260045260246000fd5b9060005260206000200154815260200190815260200160002060405180608001604052908160008201805461102d9061432c565b80601f01602080910402602001604051908101604052809291908181526020018280546110599061432c565b80156110a65780601f1061107b576101008083540402835291602001916110a6565b820191906000526020600020905b81548152906001019060200180831161108957829003601f168201915b50505050508152602001600182015481526020016002820180546110c99061432c565b80601f01602080910402602001604051908101604052809291908181526020018280546110f59061432c565b80156111425780601f1061111757610100808354040283529160200191611142565b820191906000526020600020905b81548152906001019060200180831161112557829003601f168201915b50505050508152602001600382015481525050905080838381518110611191577f4e487b7100000000000000000000000000000000000000000000000000000000600052603260045260246000fd5b60200260200101819052505080806111a89061435e565b915050610fac565b508091505090565b60036020528060005260406000206000915090508060000180546111db9061432c565b80601f01602080910402602001604051908101604052809291908181526020018280546112079061432c565b80156112545780601f1061122957610100808354040283529160200191611254565b820191906000526020600020905b81548152906001019060200180831161123757829003601f168201915b50505050509080600101549080600201805461126f9061432c565b80601f016020809104026020016040519081016040528092919081815260200182805461129b9061432c565b80156112e85780601f106112bd576101008083540402835291602001916112e8565b820191906000526020600020905b8154815290600101906020018083116112cb57829003601f168201915b5050505050908060030154905084565b6008818154811061130857600080fd5b906000526020600020016000915090505481565b606060008054906101000a900473ffffffffffffffffffffffffffffffffffffffff1673ffffffffffffffffffffffffffffffffffffffff163373ffffffffffffffffffffffffffffffffffffffff161461137657600080fd5b6000600a8054905067ffffffffffffffff8111156113bd577f4e487b7100000000000000000000000000000000000000000000000000000000600052604160045260246000fd5b6040519080825280602002602001820160405280156113f657816020015b6113e36131e6565b8152602001906001900390816113db5790505b50905060005b600a8054905081101561154d57600060056000600a8481548110611449577f4e487b7100000000000000000000000000000000000000000000000000000000600052603260045260246000fd5b90600052602060002001548152602001908152602001600020604051806080016040529081600082015481526020016001820160009054906101000a900473ffffffffffffffffffffffffffffffffffffffff1673ffffffffffffffffffffffffffffffffffffffff1673ffffffffffffffffffffffffffffffffffffffff168152602001600282015481526020016003820160009054906101000a900460ff16151515158152505090508083838151811061152e577f4e487b7100000000000000000000000000000000000000000000000000000000600052603260045260246000fd5b60200260200101819052505080806115459061435e565b9150506113fc565b508091505090565b61155d6131e6565b60008054906101000a900473ffffffffffffffffffffffffffffffffffffffff1673ffffffffffffffffffffffffffffffffffffffff163373ffffffffffffffffffffffffffffffffffffffff16146115b557600080fd5b60056000838152602001908152602001600020604051806080016040529081600082015481526020016001820160009054906101000a900473ffffffffffffffffffffffffffffffffffffffff1673ffffffffffffffffffffffffffffffffffffffff1673ffffffffffffffffffffffffffffffffffffffff168152602001600282015481526020016003820160009054906101000a900460ff1615151515815250509050919050565b60008060009054906101000a900473ffffffffffffffffffffffffffffffffffffffff1673ffffffffffffffffffffffffffffffffffffffff163373ffffffffffffffffffffffffffffffffffffffff16146116ba57600080fd5b6000600660008673ffffffffffffffffffffffffffffffffffffffff1673ffffffffffffffffffffffffffffffffffffffff1681526020019081526020016000206040518060800160405290816000820160009054906101000a900473ffffffffffffffffffffffffffffffffffffffff1673ffffffffffffffffffffffffffffffffffffffff1673ffffffffffffffffffffffffffffffffffffffff16815260200160018201805461176c9061432c565b80601f01602080910402602001604051908101604052809291908181526020018280546117989061432c565b80156117e55780601f106117ba576101008083540402835291602001916117e5565b820191906000526020600020905b8154815290600101906020018083116117c857829003601f168201915b505050505081526020016002820180548060200260200160405190810160405280929190818152602001828054801561183d57602002820191906000526020600020905b815481526020019060010190808311611829575b505050505081526020016003820180548060200260200160405190810160405280929190818152602001828054801561189557602002820191906000526020600020905b815481526020019060010190808311611881575b50505050508152505090506000816020015151146118e8576040517f08c379a00000000000000000000000000000000000000000000000000000000081526004016118df90613f87565b60405180910390fd5b606080600060405180608001604052808973ffffffffffffffffffffffffffffffffffffffff16815260200188888080601f016020809104026020016040519081016040528093929190818152602001838380828437600081840152601f19601f820116905080830192505050505050508152602001848152602001838152509050600b889080600181540180825580915050600190039060005260206000200160009091909190916101000a81548173ffffffffffffffffffffffffffffffffffffffff021916908373ffffffffffffffffffffffffffffffffffffffff16021790555080600660008a73ffffffffffffffffffffffffffffffffffffffff1673ffffffffffffffffffffffffffffffffffffffff16815260200190815260200160002060008201518160000160006101000a81548173ffffffffffffffffffffffffffffffffffffffff021916908373ffffffffffffffffffffffffffffffffffffffff1602179055506020820151816001019080519060200190611a709291906130ea565b506040820151816002019080519060200190611a8d929190613226565b506060820151816003019080519060200190611aaa929190613226565b5090505060019450505050509392505050565b60078181548110611acd57600080fd5b906000526020600020016000915090505481565b606060008054906101000a900473ffffffffffffffffffffffffffffffffffffffff1673ffffffffffffffffffffffffffffffffffffffff163373ffffffffffffffffffffffffffffffffffffffff1614611b3b57600080fd5b600b805480602002602001604051908101604052809291908181526020018280548015611bbd57602002820191906000526020600020905b8160009054906101000a900473ffffffffffffffffffffffffffffffffffffffff1673ffffffffffffffffffffffffffffffffffffffff1681526020019060010190808311611b73575b5050505050905090565b60008054906101000a900473ffffffffffffffffffffffffffffffffffffffff1681565b60008054906101000a900473ffffffffffffffffffffffffffffffffffffffff1673ffffffffffffffffffffffffffffffffffffffff163373ffffffffffffffffffffffffffffffffffffffff1614611c4357600080fd5b6000611c4d6128d9565b90506000600460008681526020019081526020016000206000015411611ca8576040517f08c379a0000000000000000000000000000000000000000000000000000000008152600401611c9f90613fc7565b60405180910390fd5b611cb284846128f7565b15611cf2576040517f08c379a0000000000000000000000000000000000000000000000000000000008152600401611ce990614027565b60405180910390fd5b600060405180608001604052808381526020018573ffffffffffffffffffffffffffffffffffffffff168152602001868152602001841515815250905080600560008481526020019081526020016000206000820151816000015560208201518160010160006101000a81548173ffffffffffffffffffffffffffffffffffffffff021916908373ffffffffffffffffffffffffffffffffffffffff1602179055506040820151816002015560608201518160030160006101000a81548160ff021916908315150217905550905050600660008573ffffffffffffffffffffffffffffffffffffffff1673ffffffffffffffffffffffffffffffffffffffff168152602001908152602001600020600201829080600181540180825580915050600190039060005260206000200160009091909190915055600a8290806001815401808255809150506001900390600052602060002001600090919091909150555050505050565b6004602052806000526040600020600091509050806000015490806001018054611e839061432c565b80601f0160208091040260200160405190810160405280929190818152602001828054611eaf9061432c565b8015611efc5780601f10611ed157610100808354040283529160200191611efc565b820191906000526020600020905b815481529060010190602001808311611edf57829003601f168201915b505050505090806002018054611f119061432c565b80601f0160208091040260200160405190810160405280929190818152602001828054611f3d9061432c565b8015611f8a5780601f10611f5f57610100808354040283529160200191611f8a565b820191906000526020600020905b815481529060010190602001808311611f6d57829003601f168201915b5050505050905083565b6000670de0b6b3a76400003414611fe0576040517f08c379a0000000000000000000000000000000000000000000000000000000008152600401611fd790614007565b60405180910390fd5b60003390506000611ff18285612c1d565b905080612033576040517f08c379a000000000000000000000000000000000000000000000000000000000815260040161202a90613fe7565b60405180910390fd5b6000600660008473ffffffffffffffffffffffffffffffffffffffff1673ffffffffffffffffffffffffffffffffffffffff16815260200190815260200160002060010180546120829061432c565b80601f01602080910402602001604051908101604052809291908181526020018280546120ae9061432c565b80156120fb5780601f106120d0576101008083540402835291602001916120fb565b820191906000526020600020905b8154815290600101906020018083116120de57829003601f168201915b50505050509050600085905060004290506121146130ab565b955060006040518060c001604052808881526020018581526020018773ffffffffffffffffffffffffffffffffffffffff168152602001848152602001838152602001600115158152509050806002600089815260200190815260200160002060008201518160000155602082015181600101908051906020019061219a9291906130ea565b5060408201518160020160006101000a81548173ffffffffffffffffffffffffffffffffffffffff021916908373ffffffffffffffffffffffffffffffffffffffff160217905550606082015181600301556080820151816004015560a08201518160050160006101000a81548160ff021916908315150217905550905050600660008773ffffffffffffffffffffffffffffffffffffffff1673ffffffffffffffffffffffffffffffffffffffff168152602001908152602001600020600301879080600181540180825580915050600190039060005260206000200160009091909190915055505050505050919050565b60066020528060005260406000206000915090508060000160009054906101000a900473ffffffffffffffffffffffffffffffffffffffff16908060010180546122d69061432c565b80601f01602080910402602001604051908101604052809291908181526020018280546123029061432c565b801561234f5780601f106123245761010080835404028352916020019161234f565b820191906000526020600020905b81548152906001019060200180831161233257829003601f168201915b5050505050905082565b612361613170565b6000600260008481526020019081526020016000206040518060c00160405290816000820154815260200160018201805461239b9061432c565b80601f01602080910402602001604051908101604052809291908181526020018280546123c79061432c565b80156124145780601f106123e957610100808354040283529160200191612414565b820191906000526020600020905b8154815290600101906020018083116123f757829003601f168201915b505050505081526020016002820160009054906101000a900473ffffffffffffffffffffffffffffffffffffffff1673ffffffffffffffffffffffffffffffffffffffff1673ffffffffffffffffffffffffffffffffffffffff16815260200160038201548152602001600482015481526020016005820160009054906101000a900460ff161515151581525050905080915050919050565b606060008054906101000a900473ffffffffffffffffffffffffffffffffffffffff1673ffffffffffffffffffffffffffffffffffffffff163373ffffffffffffffffffffffffffffffffffffffff161461250757600080fd5b6000600b8054905067ffffffffffffffff81111561254e577f4e487b7100000000000000000000000000000000000000000000000000000000600052604160045260246000fd5b60405190808252806020026020018201604052801561258757816020015b612574613273565b81526020019060019003908161256c5790505b50905060005b600b8054905081101561283d57600060066000600b84815481106125da577f4e487b7100000000000000000000000000000000000000000000000000000000600052603260045260246000fd5b9060005260206000200160009054906101000a900473ffffffffffffffffffffffffffffffffffffffff1673ffffffffffffffffffffffffffffffffffffffff1673ffffffffffffffffffffffffffffffffffffffff1681526020019081526020016000206040518060800160405290816000820160009054906101000a900473ffffffffffffffffffffffffffffffffffffffff1673ffffffffffffffffffffffffffffffffffffffff1673ffffffffffffffffffffffffffffffffffffffff1681526020016001820180546126b09061432c565b80601f01602080910402602001604051908101604052809291908181526020018280546126dc9061432c565b80156127295780601f106126fe57610100808354040283529160200191612729565b820191906000526020600020905b81548152906001019060200180831161270c57829003601f168201915b505050505081526020016002820180548060200260200160405190810160405280929190818152602001828054801561278157602002820191906000526020600020905b81548152602001906001019080831161276d575b50505050508152602001600382018054806020026020016040519081016040528092919081815260200182805480156127d957602002820191906000526020600020905b8154815260200190600101908083116127c5575b50505050508152505090508083838151811061281e577f4e487b7100000000000000000000000000000000000000000000000000000000600052603260045260246000fd5b60200260200101819052505080806128359061435e565b91505061258d565b508091505090565b6060600880548060200260200160405190810160405280929190818152602001828054801561289357602002820191906000526020600020905b81548152602001906001019080831161287f575b5050505050905090565b6000600d60008154809291906128b29061435e565b91905055905090565b6000600e60008154809291906128d09061435e565b91905055905090565b6000600f60008154809291906128ee9061435e565b91905055905090565b600080600660008473ffffffffffffffffffffffffffffffffffffffff1673ffffffffffffffffffffffffffffffffffffffff1681526020019081526020016000206040518060800160405290816000820160009054906101000a900473ffffffffffffffffffffffffffffffffffffffff1673ffffffffffffffffffffffffffffffffffffffff1673ffffffffffffffffffffffffffffffffffffffff1681526020016001820180546129aa9061432c565b80601f01602080910402602001604051908101604052809291908181526020018280546129d69061432c565b8015612a235780601f106129f857610100808354040283529160200191612a23565b820191906000526020600020905b815481529060010190602001808311612a0657829003601f168201915b5050505050815260200160028201805480602002602001604051908101604052809291908181526020018280548015612a7b57602002820191906000526020600020905b815481526020019060010190808311612a67575b5050505050815260200160038201805480602002602001604051908101604052809291908181526020018280548015612ad357602002820191906000526020600020905b815481526020019060010190808311612abf575b50505050508152505090506000915060005b816040015151811015612c1557600082604001518281518110612b31577f4e487b7100000000000000000000000000000000000000000000000000000000600052603260045260246000fd5b60200260200101519050600060056000838152602001908152602001600020604051806080016040529081600082015481526020016001820160009054906101000a900473ffffffffffffffffffffffffffffffffffffffff1673ffffffffffffffffffffffffffffffffffffffff1673ffffffffffffffffffffffffffffffffffffffff168152602001600282015481526020016003820160009054906101000a900460ff1615151515815250509050868160400151148015612bf6575080606001515b15612c0057600194505b50508080612c0d9061435e565b915050612ae5565b505092915050565b600080600660008573ffffffffffffffffffffffffffffffffffffffff1673ffffffffffffffffffffffffffffffffffffffff1681526020019081526020016000206040518060800160405290816000820160009054906101000a900473ffffffffffffffffffffffffffffffffffffffff1673ffffffffffffffffffffffffffffffffffffffff1673ffffffffffffffffffffffffffffffffffffffff168152602001600182018054612cd09061432c565b80601f0160208091040260200160405190810160405280929190818152602001828054612cfc9061432c565b8015612d495780601f10612d1e57610100808354040283529160200191612d49565b820191906000526020600020905b815481529060010190602001808311612d2c57829003601f168201915b5050505050815260200160028201805480602002602001604051908101604052809291908181526020018280548015612da157602002820191906000526020600020905b815481526020019060010190808311612d8d575b5050505050815260200160038201805480602002602001604051908101604052809291908181526020018280548015612df957602002820191906000526020600020905b815481526020019060010190808311612de5575b5050505050815250509050600060036000858152602001908152602001600020604051806080016040529081600082018054612e349061432c565b80601f0160208091040260200160405190810160405280929190818152602001828054612e609061432c565b8015612ead5780601f10612e8257610100808354040283529160200191612ead565b820191906000526020600020905b815481529060010190602001808311612e9057829003601f168201915b5050505050815260200160018201548152602001600282018054612ed09061432c565b80601f0160208091040260200160405190810160405280929190818152602001828054612efc9061432c565b8015612f495780601f10612f1e57610100808354040283529160200191612f49565b820191906000526020600020905b815481529060010190602001808311612f2c57829003601f168201915b5050505050815260200160038201548152505090506000805b83604001515181101561308d57600084604001518281518110612fae577f4e487b7100000000000000000000000000000000000000000000000000000000600052603260045260246000fd5b60200260200101519050600060056000838152602001908152602001600020604051806080016040529081600082015481526020016001820160009054906101000a900473ffffffffffffffffffffffffffffffffffffffff1673ffffffffffffffffffffffffffffffffffffffff1673ffffffffffffffffffffffffffffffffffffffff168152602001600282015481526020016003820160009054906101000a900460ff16151515158152505090508060600151156130785783806130749061435e565b9450505b505080806130859061435e565b915050612f62565b5060009350816060015181106130a257600193505b50505092915050565b6000600c60008154809291906130c09061435e565b91905055905090565b60405180606001604052806000815260200160608152602001606081525090565b8280546130f69061432c565b90600052602060002090601f016020900481019282613118576000855561315f565b82601f1061313157805160ff191683800117855561315f565b8280016001018555821561315f579182015b8281111561315e578251825591602001919060010190613143565b5b50905061316c91906132b1565b5090565b6040518060c001604052806000815260200160608152602001600073ffffffffffffffffffffffffffffffffffffffff16815260200160008152602001600081526020016000151581525090565b6040518060800160405280606081526020016000815260200160608152602001600081525090565b604051806080016040528060008152602001600073ffffffffffffffffffffffffffffffffffffffff168152602001600081526020016000151581525090565b828054828255906000526020600020908101928215613262579160200282015b82811115613261578251825591602001919060010190613246565b5b50905061326f91906132b1565b5090565b6040518060800160405280600073ffffffffffffffffffffffffffffffffffffffff1681526020016060815260200160608152602001606081525090565b5b808211156132ca5760008160009055506001016132b2565b5090565b6000813590506132dd81614616565b92915050565b6000813590506132f28161462d565b92915050565b60008083601f84011261330a57600080fd5b8235905067ffffffffffffffff81111561332357600080fd5b60208301915083600182028301111561333b57600080fd5b9250929050565b60008135905061335181614644565b92915050565b60006020828403121561336957600080fd5b6000613377848285016132ce565b91505092915050565b60008060006040848603121561339557600080fd5b60006133a3868287016132ce565b935050602084013567ffffffffffffffff8111156133c057600080fd5b6133cc868287016132f8565b92509250509250925092565b600080600080604085870312156133ee57600080fd5b600085013567ffffffffffffffff81111561340857600080fd5b613414878288016132f8565b9450945050602085013567ffffffffffffffff81111561343357600080fd5b61343f878288016132f8565b925092505092959194509250565b60008060008060006060868803121561346557600080fd5b600086013567ffffffffffffffff81111561347f57600080fd5b61348b888289016132f8565b9550955050602086013567ffffffffffffffff8111156134aa57600080fd5b6134b6888289016132f8565b935093505060406134c988828901613342565b9150509295509295909350565b6000602082840312156134e857600080fd5b60006134f684828501613342565b91505092915050565b60008060006060848603121561351457600080fd5b600061352286828701613342565b9350506020613533868287016132ce565b9250506040613544868287016132e3565b9150509250925092565b600061355a83836135e6565b60208301905092915050565b60006135728383613ab2565b905092915050565b60006135868383613b1c565b905092915050565b600061359a8383613c2e565b905092915050565b60006135ae8383613c85565b60808301905092915050565b60006135c68383613d2f565b905092915050565b60006135da8383613da0565b60208301905092915050565b6135ef816142b1565b82525050565b6135fe816142b1565b82525050565b600061360f82614154565b6136198185614207565b9350613624836140e4565b8060005b8381101561365557815161363c888261354e565b9750613647836141ac565b925050600181019050613628565b5085935050505092915050565b600061366d8261415f565b6136778185614218565b935083602082028501613689856140f4565b8060005b858110156136c557848403895281516136a68582613566565b94506136b1836141b9565b925060208a0199505060018101905061368d565b50829750879550505050505092915050565b60006136e28261416a565b6136ec8185614229565b9350836020820285016136fe85614104565b8060005b8581101561373a578484038952815161371b858261357a565b9450613726836141c6565b925060208a01995050600181019050613702565b50829750879550505050505092915050565b600061375782614175565b613761818561423a565b93508360208202850161377385614114565b8060005b858110156137af5784840389528151613790858261358e565b945061379b836141d3565b925060208a01995050600181019050613777565b50829750879550505050505092915050565b60006137cc82614180565b6137d6818561424b565b93506137e183614124565b8060005b838110156138125781516137f988826135a2565b9750613804836141e0565b9250506001810190506137e5565b5085935050505092915050565b600061382a8261418b565b613834818561425c565b93508360208202850161384685614134565b8060005b85811015613882578484038952815161386385826135ba565b945061386e836141ed565b925060208a0199505060018101905061384a565b50829750879550505050505092915050565b600061389f82614196565b6138a9818561426d565b93506138b483614144565b8060005b838110156138e55781516138cc88826135ce565b97506138d7836141fa565b9250506001810190506138b8565b5085935050505092915050565b60006138fd82614196565b613907818561427e565b935061391283614144565b8060005b8381101561394357815161392a88826135ce565b9750613935836141fa565b925050600181019050613916565b5085935050505092915050565b613959816142c3565b82525050565b613968816142c3565b82525050565b6000613979826141a1565b613983818561428f565b93506139938185602086016142f9565b61399c81614405565b840191505092915050565b60006139b2826141a1565b6139bc81856142a0565b93506139cc8185602086016142f9565b6139d581614405565b840191505092915050565b60006139ed6030836142a0565b91506139f882614416565b604082019050919050565b6000613a10602f836142a0565b9150613a1b82614465565b604082019050919050565b6000613a33601c836142a0565b9150613a3e826144b4565b602082019050919050565b6000613a566049836142a0565b9150613a61826144dd565b606082019050919050565b6000613a796049836142a0565b9150613a8482614552565b606082019050919050565b6000613a9c602c836142a0565b9150613aa7826145c7565b604082019050919050565b60006080830160008301518482036000860152613acf828261396e565b9150506020830151613ae46020860182613da0565b5060408301518482036040860152613afc828261396e565b9150506060830151613b116060860182613da0565b508091505092915050565b600060c083016000830151613b346000860182613da0565b5060208301518482036020860152613b4c828261396e565b9150506040830151613b6160408601826135e6565b506060830151613b746060860182613da0565b506080830151613b876080860182613da0565b5060a0830151613b9a60a0860182613950565b508091505092915050565b600060c083016000830151613bbd6000860182613da0565b5060208301518482036020860152613bd5828261396e565b9150506040830151613bea60408601826135e6565b506060830151613bfd6060860182613da0565b506080830151613c106080860182613da0565b5060a0830151613c2360a0860182613950565b508091505092915050565b6000606083016000830151613c466000860182613da0565b5060208301518482036020860152613c5e828261396e565b91505060408301518482036040860152613c78828261396e565b9150508091505092915050565b608082016000820151613c9b6000850182613da0565b506020820151613cae60208501826135e6565b506040820151613cc16040850182613da0565b506060820151613cd46060850182613950565b50505050565b608082016000820151613cf06000850182613da0565b506020820151613d0360208501826135e6565b506040820151613d166040850182613da0565b506060820151613d296060850182613950565b50505050565b6000608083016000830151613d4760008601826135e6565b5060208301518482036020860152613d5f828261396e565b91505060408301518482036040860152613d798282613894565b91505060608301518482036060860152613d938282613894565b9150508091505092915050565b613da9816142ef565b82525050565b613db8816142ef565b82525050565b6000602082019050613dd360008301846135f5565b92915050565b6000604082019050613dee60008301856135f5565b8181036020830152613e0081846139a7565b90509392505050565b60006020820190508181036000830152613e238184613604565b905092915050565b60006020820190508181036000830152613e458184613662565b905092915050565b60006020820190508181036000830152613e6781846136d7565b905092915050565b60006020820190508181036000830152613e89818461374c565b905092915050565b60006020820190508181036000830152613eab81846137c1565b905092915050565b60006020820190508181036000830152613ecd818461381f565b905092915050565b60006020820190508181036000830152613eef81846138f2565b905092915050565b6000602082019050613f0c600083018461395f565b92915050565b60006020820190508181036000830152613f2c81846139a7565b905092915050565b60006080820190508181036000830152613f4e81876139a7565b9050613f5d6020830186613daf565b8181036040830152613f6f81856139a7565b9050613f7e6060830184613daf565b95945050505050565b60006020820190508181036000830152613fa0816139e0565b9050919050565b60006020820190508181036000830152613fc081613a03565b9050919050565b60006020820190508181036000830152613fe081613a26565b9050919050565b6000602082019050818103600083015261400081613a49565b9050919050565b6000602082019050818103600083015261402081613a6c565b9050919050565b6000602082019050818103600083015261404081613a8f565b9050919050565b600060208201905081810360008301526140618184613ba5565b905092915050565b600060808201905061407e6000830184613cda565b92915050565b60006020820190506140996000830184613daf565b92915050565b60006060820190506140b46000830186613daf565b81810360208301526140c681856139a7565b905081810360408301526140da81846139a7565b9050949350505050565b6000819050602082019050919050565b6000819050602082019050919050565b6000819050602082019050919050565b6000819050602082019050919050565b6000819050602082019050919050565b6000819050602082019050919050565b6000819050602082019050919050565b600081519050919050565b600081519050919050565b600081519050919050565b600081519050919050565b600081519050919050565b600081519050919050565b600081519050919050565b600081519050919050565b6000602082019050919050565b6000602082019050919050565b6000602082019050919050565b6000602082019050919050565b6000602082019050919050565b6000602082019050919050565b6000602082019050919050565b600082825260208201905092915050565b600082825260208201905092915050565b600082825260208201905092915050565b600082825260208201905092915050565b600082825260208201905092915050565b600082825260208201905092915050565b600082825260208201905092915050565b600082825260208201905092915050565b600082825260208201905092915050565b600082825260208201905092915050565b60006142bc826142cf565b9050919050565b60008115159050919050565b600073ffffffffffffffffffffffffffffffffffffffff82169050919050565b6000819050919050565b60005b838110156143175780820151818401526020810190506142fc565b83811115614326576000848401525b50505050565b6000600282049050600182168061434457607f821691505b60208210811415614358576143576143d6565b5b50919050565b6000614369826142ef565b91507fffffffffffffffffffffffffffffffffffffffffffffffffffffffffffffffff82141561439c5761439b6143a7565b5b600182019050919050565b7f4e487b7100000000000000000000000000000000000000000000000000000000600052601160045260246000fd5b7f4e487b7100000000000000000000000000000000000000000000000000000000600052602260045260246000fd5b6000601f19601f8301169050919050565b7f546869732073747564656e7420616464726573732068617320616c726561647960008201527f206265656e207265676973746572656400000000000000000000000000000000602082015250565b7f41206365727469666963617465206d7573742072657175697265206174206c6560008201527f617374206f6e6520636f757273652e0000000000000000000000000000000000602082015250565b7f5468697320636f75727365496420646f65736e27742065786973742e00000000600082015250565b7f596f752068617665206e6f74207375636365737366756c6c792070617373656460008201527f20656e6f75676820636f757273657320666f722074686973206365727469666960208201527f6361746520747970650000000000000000000000000000000000000000000000604082015250565b7f596f7520646964206e6f74207061792074686520636f727265637420616d6f7560008201527f6e7420666f7220796f75722063657274696669636174652069737375616e636560208201527f20726571756573742e0000000000000000000000000000000000000000000000604082015250565b7f546869732073747564656e742068617320616c7265616479207061737365642060008201527f7468697320636f757273652e0000000000000000000000000000000000000000602082015250565b61461f816142b1565b811461462a57600080fd5b50565b614636816142c3565b811461464157600080fd5b50565b61464d816142ef565b811461465857600080fd5b5056fea264697066735822122099a7d97697651bd4083809c4e70dc69e7407710e237713e9e9c8a7917a829c7664736f6c63430008040033",
  "immutableReferences": {},
  "source": "// SPDX-License-Identifier: GPL-3.0\n\n// pragma solidity ^0.7.0;\n// pragma experimental ABIEncoderV2;\npragma solidity ^0.8.0;\n// Using the new ABI coder which can return arrays of structs\n\ncontract CertificateIssuer {\n    address public owner;\n    string public issuerName;\n    mapping(uint => Certificate) private issued_certificates;\n    mapping(uint => CertificateType) public certificate_types;\n    mapping(uint => Course) public courses;\n    mapping(uint => Enrollment) private enrollments;\n    mapping(address => Student) public students;\n    \n    // need to track the ids for things somewhere, can't get keys from mappings\n    uint[] public certTypeIds;\n    uint[] public courseIds;\n    uint[] private certIds;\n    uint[] private enrollmentIds;\n    address[] private studentAddresses;\n\n    \n    uint private certCount = 1;\n    uint private certTypeCount = 1;\n    uint private courseCount = 1;\n    uint private enrollmentCount = 1;\n    \n    function getBalance() public view returns (uint) {\n        return address(this).balance;\n    }\n    \n    function getCertId() private returns (uint){\n        return certCount++;\n    }\n    \n    function getCertTypeId() private returns (uint){\n        return certTypeCount++;\n    }\n    \n    function getCourseId() private returns(uint){\n        return courseCount++;\n    }\n    \n    function getEnrollmentId() private returns(uint){\n        return enrollmentCount++;\n    }\n    \n    modifier onlyOwner() {\n        require(msg.sender == owner);\n        _;\n    }\n    \n    constructor(string memory _issuerName, string memory _certName, string memory _certDesc, uint _numCertCoursesRequired) {\n        // set up the first cert type - can't call public function?\n        uint certTypeId = getCertTypeId();\n        CertificateType memory certType = CertificateType(_certName, certTypeId, _certDesc, _numCertCoursesRequired);\n        certificate_types[certTypeId] = certType;\n        certTypeIds.push(certTypeId);\n        \n        owner = msg.sender;\n        issuerName = _issuerName;\n    }\n    \n    struct Certificate {\n        uint certificateId;\n        string studentName;\n        address studentAddress;\n        uint certificateTypeId;\n        uint issuedDate;\n        bool valid;\n        // Potentially, a mapping of courses applied to the cert\n    }\n    \n    struct CertificateType {\n        string certificateName;\n        uint certificateTypeId;\n        string certificateDescription;\n        uint numCoursesRequired;\n    }\n    \n    struct Course {\n        uint courseId;\n        string courseName;\n        string courseDescription;\n    }\n    \n    struct Enrollment {\n        uint enrollmentId;\n        address studentAddress;\n        uint courseId;\n        bool pass;\n    }\n    \n    struct Student {\n        address studentAddress;\n        string studentName;\n        uint[] enrollmentIds;\n        uint[] certificateIds;\n    }\n    \n    function requestCert(uint _certificateTypeId) external payable returns (uint certificateId)  {\n        require(msg.value == 1 ether, \"You did not pay the correct amount for your certificate issuance request.\");\n        \n        address studentAddress = msg.sender;\n        \n        bool validRequest = validateRequest(studentAddress, _certificateTypeId);\n        require(validRequest, \"You have not successfully passed enough courses for this certificate type\");\n        \n        string memory studentName = students[studentAddress].studentName;\n        uint certificateTypeId = _certificateTypeId;\n        uint issuedDate = block.timestamp;\n        certificateId = getCertId();\n        \n        Certificate memory cert = Certificate(certificateId, studentName, studentAddress, certificateTypeId, issuedDate, true);\n        \n        issued_certificates[certificateId] = cert;\n        students[studentAddress].certificateIds.push(certificateId);\n        \n        return certificateId;\n    }\n    \n    function validateRequest(address _studentAddress, uint _certTypeId) private view returns (bool valid){\n        Student memory student = students[_studentAddress];\n        CertificateType memory certType = certificate_types[_certTypeId];\n        uint numCoursesPassed = 0;\n        \n        for(uint i = 0; i < student.enrollmentIds.length; i++){\n            uint id = student.enrollmentIds[i];\n            Enrollment memory e = enrollments[id];\n            if(e.pass){\n                numCoursesPassed++;\n            }\n        }\n        valid = false;\n        if(numCoursesPassed >= certType.numCoursesRequired){\n            valid = true;\n        }\n        return valid;\n    }\n    \n    function getCert(uint id) public view returns (Certificate memory){\n        Certificate memory cert = issued_certificates[id];\n        return(cert);\n    }\n    \n    function addStudent(address _studentAddress, string calldata _studentName) public onlyOwner returns (bool success){\n        Student memory checkStudent = students[_studentAddress];\n        require(bytes(checkStudent.studentName).length == 0, \"This student address has already been registered\");\n        uint[] memory tempEIds;\n        uint[] memory tempCertIds;\n        Student memory tempStudent = Student(_studentAddress, _studentName, tempEIds, tempCertIds);\n        studentAddresses.push(_studentAddress);\n        students[_studentAddress] = tempStudent;\n        return true;\n    }\n    \n    function addCourse(string calldata _courseName, string calldata _courseDesc) public onlyOwner returns (uint courseId){\n        courseId = getCourseId();\n        Course memory tempCourse = Course(courseId, _courseName, _courseDesc);\n        courses[courseId] = tempCourse;\n        courseIds.push(courseId);\n        return courseId;\n    }\n    \n    function addEnrollment(uint _courseId, address _studentAddress, bool _pass) public onlyOwner{\n        uint enrollmentId = getEnrollmentId();\n        \n        require(courses[_courseId].courseId > 0, \"This courseId doesn't exist.\");\n        require(!studentEnrollmentAlreadyExists(_courseId, _studentAddress), \"This student has already passed this course.\");\n        \n        Enrollment memory tempEnrollment = Enrollment(enrollmentId, _studentAddress, _courseId, _pass);\n        enrollments[enrollmentId] = tempEnrollment;\n        students[_studentAddress].enrollmentIds.push(enrollmentId);\n        enrollmentIds.push(enrollmentId);\n    }\n    \n    function studentEnrollmentAlreadyExists(uint _courseId, address _studentAddress) private view returns (bool exists){\n        Student memory student = students[_studentAddress];\n        exists = false;\n        for(uint i = 0; i < student.enrollmentIds.length; i++){\n            uint id = student.enrollmentIds[i];\n            Enrollment memory e = enrollments[id];\n            if(e.courseId == _courseId && e.pass){\n                exists = true;\n            }\n        }\n        return exists;\n    }\n    \n    function addCertificateType(string calldata _certName, string calldata _certDesc, uint _numCoursesRequired) public onlyOwner returns (uint certTypeId){\n        require(_numCoursesRequired > 0, \"A certificate must require at least one course.\");\n        certTypeId = getCertTypeId();\n        CertificateType memory certType = CertificateType(_certName, certTypeId, _certDesc, _numCoursesRequired);\n        certificate_types[certTypeId] = certType;\n        certTypeIds.push(certTypeId);\n        return certTypeId;\n    }\n\n    function getAllStudentIds() public view onlyOwner returns (address [] memory){\n        return studentAddresses;\n    }\n\n    function getAllStudents() public view onlyOwner returns (Student [] memory){\n        Student[] memory studentArr = new Student[](studentAddresses.length);\n        for(uint i = 0; i < studentAddresses.length; i++){\n            Student memory s = students[studentAddresses[i]];\n            studentArr[i] = s;\n        }\n        return studentArr;\n    }\n\n    function getAllCertTypes() public view returns (CertificateType [] memory){\n        CertificateType[] memory certArr = new CertificateType[](certTypeIds.length);\n        for(uint i = 0; i < certTypeIds.length; i++){\n            CertificateType memory c = certificate_types[certTypeIds[i]];\n            certArr[i] = c;\n        }\n        return certArr;\n    }\n\n    function getAllCourses() public view returns (Course [] memory){\n        Course[] memory courseArr = new Course[](courseIds.length);\n        for(uint i = 0; i < courseIds.length; i++){\n            Course memory c = courses[courseIds[i]];\n            courseArr[i] = c;\n        }\n        return courseArr;\n    }\n\n    function getAllCourseIds() public view returns (uint [] memory){\n        return courseIds;\n    }\n\n    function getAllEnrollments() public view onlyOwner returns (Enrollment [] memory){\n        Enrollment[] memory enrollArr = new Enrollment[](enrollmentIds.length);\n        for(uint i= 0; i < enrollmentIds.length; i++){\n            Enrollment memory e = enrollments[enrollmentIds[i]];\n            enrollArr[i] = e;\n        }\n        return enrollArr;\n    }\n\n    function getEnrollment(uint enrollmentId) public view onlyOwner returns(Enrollment memory){\n        return enrollments[enrollmentId];\n    }\n\n    function getAllCertificates() public view onlyOwner returns(Certificate [] memory){\n        Certificate[] memory certArr = new Certificate[](certIds.length);\n        for(uint i=0; i < certIds.length; i++){\n            Certificate memory c = issued_certificates[certIds[i]];\n            certArr[i] = c;\n        }\n        return certArr;\n    }\n    \n}",
  "sourcePath": "/Users/colecrawford/GitHub/blockchain-certs/contracts/CertificateIssuer.sol",
  "compiler": {
    "name": "solc",
    "version": "0.8.4+commit.c7e474f2.Emscripten.clang"
  },
  "schemaVersion": "3.3.4",
  "updatedAt": "2021-04-28T04:56:09.358Z",
  "networkType": "ethereum",
  "devdoc": {
    "kind": "dev",
    "methods": {},
    "version": 1
  },
  "userdoc": {
    "kind": "user",
    "methods": {},
    "version": 1
  }
}