{
  "contractName": "CertificateIssuer",
  "abi": [
    {
      "inputs": [
        {
          "internalType": "string",
          "name": "_issuerName",
          "type": "string"
        },
        {
          "internalType": "string",
          "name": "_certName",
          "type": "string"
        },
        {
          "internalType": "string",
          "name": "_certDesc",
          "type": "string"
        },
        {
          "internalType": "uint256",
          "name": "_numCertCoursesRequired",
          "type": "uint256"
        }
      ],
      "stateMutability": "nonpayable",
      "type": "constructor"
    },
    {
      "inputs": [
        {
          "internalType": "uint256",
          "name": "",
          "type": "uint256"
        }
      ],
      "name": "certTypeIds",
      "outputs": [
        {
          "internalType": "uint256",
          "name": "",
          "type": "uint256"
        }
      ],
      "stateMutability": "view",
      "type": "function",
      "constant": true
    },
    {
      "inputs": [
        {
          "internalType": "uint256",
          "name": "",
          "type": "uint256"
        }
      ],
      "name": "certificate_types",
      "outputs": [
        {
          "internalType": "string",
          "name": "certificateName",
          "type": "string"
        },
        {
          "internalType": "uint256",
          "name": "certificateTypeId",
          "type": "uint256"
        },
        {
          "internalType": "string",
          "name": "certificateDescription",
          "type": "string"
        },
        {
          "internalType": "uint256",
          "name": "numCoursesRequired",
          "type": "uint256"
        }
      ],
      "stateMutability": "view",
      "type": "function",
      "constant": true
    },
    {
      "inputs": [
        {
          "internalType": "uint256",
          "name": "",
          "type": "uint256"
        }
      ],
      "name": "courseIds",
      "outputs": [
        {
          "internalType": "uint256",
          "name": "",
          "type": "uint256"
        }
      ],
      "stateMutability": "view",
      "type": "function",
      "constant": true
    },
    {
      "inputs": [
        {
          "internalType": "uint256",
          "name": "",
          "type": "uint256"
        }
      ],
      "name": "courses",
      "outputs": [
        {
          "internalType": "uint256",
          "name": "courseId",
          "type": "uint256"
        },
        {
          "internalType": "string",
          "name": "courseName",
          "type": "string"
        },
        {
          "internalType": "string",
          "name": "courseDescription",
          "type": "string"
        }
      ],
      "stateMutability": "view",
      "type": "function",
      "constant": true
    },
    {
      "inputs": [
        {
          "internalType": "uint256",
          "name": "",
          "type": "uint256"
        }
      ],
      "name": "enrollments",
      "outputs": [
        {
          "internalType": "uint256",
          "name": "enrollmentId",
          "type": "uint256"
        },
        {
          "internalType": "address",
          "name": "studentAddress",
          "type": "address"
        },
        {
          "internalType": "uint256",
          "name": "courseId",
          "type": "uint256"
        },
        {
          "internalType": "bool",
          "name": "pass",
          "type": "bool"
        }
      ],
      "stateMutability": "view",
      "type": "function",
      "constant": true
    },
    {
      "inputs": [],
      "name": "issuerName",
      "outputs": [
        {
          "internalType": "string",
          "name": "",
          "type": "string"
        }
      ],
      "stateMutability": "view",
      "type": "function",
      "constant": true
    },
    {
      "inputs": [],
      "name": "owner",
      "outputs": [
        {
          "internalType": "address",
          "name": "",
          "type": "address"
        }
      ],
      "stateMutability": "view",
      "type": "function",
      "constant": true
    },
    {
      "inputs": [
        {
          "internalType": "address",
          "name": "",
          "type": "address"
        }
      ],
      "name": "students",
      "outputs": [
        {
          "internalType": "address",
          "name": "studentAddress",
          "type": "address"
        },
        {
          "internalType": "string",
          "name": "studentName",
          "type": "string"
        }
      ],
      "stateMutability": "view",
      "type": "function",
      "constant": true
    },
    {
      "inputs": [],
      "name": "getBalance",
      "outputs": [
        {
          "internalType": "uint256",
          "name": "",
          "type": "uint256"
        }
      ],
      "stateMutability": "view",
      "type": "function",
      "constant": true
    },
    {
      "inputs": [
        {
          "internalType": "uint256",
          "name": "_certificateTypeId",
          "type": "uint256"
        }
      ],
      "name": "requestCert",
      "outputs": [
        {
          "internalType": "uint256",
          "name": "certificateId",
          "type": "uint256"
        }
      ],
      "stateMutability": "payable",
      "type": "function",
      "payable": true
    },
    {
      "inputs": [
        {
          "internalType": "uint256",
          "name": "id",
          "type": "uint256"
        }
      ],
      "name": "getCert",
      "outputs": [
        {
          "internalType": "uint256",
          "name": "certificateId",
          "type": "uint256"
        },
        {
          "internalType": "string",
          "name": "studentName",
          "type": "string"
        },
        {
          "internalType": "address",
          "name": "studentAddress",
          "type": "address"
        },
        {
          "internalType": "uint256",
          "name": "certificateTypeId",
          "type": "uint256"
        },
        {
          "internalType": "uint256",
          "name": "issuedDate",
          "type": "uint256"
        },
        {
          "internalType": "bool",
          "name": "valid",
          "type": "bool"
        }
      ],
      "stateMutability": "view",
      "type": "function",
      "constant": true
    },
    {
      "inputs": [
        {
          "internalType": "address",
          "name": "_studentAddress",
          "type": "address"
        },
        {
          "internalType": "string",
          "name": "_studentName",
          "type": "string"
        }
      ],
      "name": "addStudent",
      "outputs": [
        {
          "internalType": "bool",
          "name": "success",
          "type": "bool"
        }
      ],
      "stateMutability": "nonpayable",
      "type": "function"
    },
    {
      "inputs": [
        {
          "internalType": "string",
          "name": "_courseName",
          "type": "string"
        },
        {
          "internalType": "string",
          "name": "_courseDesc",
          "type": "string"
        }
      ],
      "name": "addCourse",
      "outputs": [
        {
          "internalType": "uint256",
          "name": "courseId",
          "type": "uint256"
        }
      ],
      "stateMutability": "nonpayable",
      "type": "function"
    },
    {
      "inputs": [
        {
          "internalType": "uint256",
          "name": "_courseId",
          "type": "uint256"
        },
        {
          "internalType": "address",
          "name": "_studentAddress",
          "type": "address"
        },
        {
          "internalType": "bool",
          "name": "_pass",
          "type": "bool"
        }
      ],
      "name": "addEnrollment",
      "outputs": [],
      "stateMutability": "nonpayable",
      "type": "function"
    },
    {
      "inputs": [
        {
          "internalType": "string",
          "name": "_certName",
          "type": "string"
        },
        {
          "internalType": "string",
          "name": "_certDesc",
          "type": "string"
        },
        {
          "internalType": "uint256",
          "name": "_numCoursesRequired",
          "type": "uint256"
        }
      ],
      "name": "addCertificateType",
      "outputs": [
        {
          "internalType": "uint256",
          "name": "certTypeId",
          "type": "uint256"
        }
      ],
      "stateMutability": "nonpayable",
      "type": "function"
    },
    {
      "inputs": [],
      "name": "getAllStudentIds",
      "outputs": [
        {
          "internalType": "address[]",
          "name": "",
          "type": "address[]"
        }
      ],
      "stateMutability": "view",
      "type": "function",
      "constant": true
    },
    {
      "inputs": [],
      "name": "getAllStudents",
      "outputs": [
        {
          "components": [
            {
              "internalType": "address",
              "name": "studentAddress",
              "type": "address"
            },
            {
              "internalType": "string",
              "name": "studentName",
              "type": "string"
            },
            {
              "internalType": "uint256[]",
              "name": "enrollmentIds",
              "type": "uint256[]"
            },
            {
              "internalType": "uint256[]",
              "name": "certificateIds",
              "type": "uint256[]"
            }
          ],
          "internalType": "struct CertificateIssuer.Student[]",
          "name": "",
          "type": "tuple[]"
        }
      ],
      "stateMutability": "view",
      "type": "function",
      "constant": true
    },
    {
      "inputs": [],
      "name": "getAllCertTypes",
      "outputs": [
        {
          "components": [
            {
              "internalType": "string",
              "name": "certificateName",
              "type": "string"
            },
            {
              "internalType": "uint256",
              "name": "certificateTypeId",
              "type": "uint256"
            },
            {
              "internalType": "string",
              "name": "certificateDescription",
              "type": "string"
            },
            {
              "internalType": "uint256",
              "name": "numCoursesRequired",
              "type": "uint256"
            }
          ],
          "internalType": "struct CertificateIssuer.CertificateType[]",
          "name": "",
          "type": "tuple[]"
        }
      ],
      "stateMutability": "view",
      "type": "function",
      "constant": true
    },
    {
      "inputs": [],
      "name": "getAllCourses",
      "outputs": [
        {
          "components": [
            {
              "internalType": "uint256",
              "name": "courseId",
              "type": "uint256"
            },
            {
              "internalType": "string",
              "name": "courseName",
              "type": "string"
            },
            {
              "internalType": "string",
              "name": "courseDescription",
              "type": "string"
            }
          ],
          "internalType": "struct CertificateIssuer.Course[]",
          "name": "",
          "type": "tuple[]"
        }
      ],
      "stateMutability": "view",
      "type": "function",
      "constant": true
    },
    {
      "inputs": [],
      "name": "getAllCourseIds",
      "outputs": [
        {
          "internalType": "uint256[]",
          "name": "",
          "type": "uint256[]"
        }
      ],
      "stateMutability": "view",
      "type": "function",
      "constant": true
    }
  ],
  "bytecode": "0x60806040526001600c556001600d556001600e556001600f553480156200002557600080fd5b5060405162003fec38038062003fec83398181016040528101906200004b9190620002d4565b60006200005d6200017b60201b60201c565b90506000604051806080016040528086815260200183815260200185815260200184815250905080600360008481526020019081526020016000206000820151816000019080519060200190620000b69291906200019b565b50602082015181600101556040820151816002019080519060200190620000df9291906200019b565b50606082015181600301559050506007829080600181540180825580915050600190039060005260206000200160009091909190915055336000806101000a81548173ffffffffffffffffffffffffffffffffffffffff021916908373ffffffffffffffffffffffffffffffffffffffff16021790555085600190805190602001906200016e9291906200019b565b505050505050506200059c565b6000600d6000815480929190620001929062000496565b91905055905090565b828054620001a9906200042a565b90600052602060002090601f016020900481019282620001cd576000855562000219565b82601f10620001e857805160ff191683800117855562000219565b8280016001018555821562000219579182015b8281111562000218578251825591602001919060010190620001fb565b5b5090506200022891906200022c565b5090565b5b80821115620002475760008160009055506001016200022d565b5090565b6000620002626200025c84620003b4565b6200038b565b9050828152602081018484840111156200027b57600080fd5b62000288848285620003f4565b509392505050565b600082601f830112620002a257600080fd5b8151620002b48482602086016200024b565b91505092915050565b600081519050620002ce8162000582565b92915050565b60008060008060808587031215620002eb57600080fd5b600085015167ffffffffffffffff8111156200030657600080fd5b620003148782880162000290565b945050602085015167ffffffffffffffff8111156200033257600080fd5b620003408782880162000290565b935050604085015167ffffffffffffffff8111156200035e57600080fd5b6200036c8782880162000290565b92505060606200037f87828801620002bd565b91505092959194509250565b600062000397620003aa565b9050620003a5828262000460565b919050565b6000604051905090565b600067ffffffffffffffff821115620003d257620003d162000542565b5b620003dd8262000571565b9050602081019050919050565b6000819050919050565b60005b8381101562000414578082015181840152602081019050620003f7565b8381111562000424576000848401525b50505050565b600060028204905060018216806200044357607f821691505b602082108114156200045a576200045962000513565b5b50919050565b6200046b8262000571565b810181811067ffffffffffffffff821117156200048d576200048c62000542565b5b80604052505050565b6000620004a382620003ea565b91507fffffffffffffffffffffffffffffffffffffffffffffffffffffffffffffffff821415620004d957620004d8620004e4565b5b600182019050919050565b7f4e487b7100000000000000000000000000000000000000000000000000000000600052601160045260246000fd5b7f4e487b7100000000000000000000000000000000000000000000000000000000600052602260045260246000fd5b7f4e487b7100000000000000000000000000000000000000000000000000000000600052604160045260246000fd5b6000601f19601f8301169050919050565b6200058d81620003ea565b81146200059957600080fd5b50565b613a4080620005ac6000396000f3fe60806040526004361061011f5760003560e01c8063834d336c116100a0578063a21103b611610064578063a21103b61461043f578063a6c807a91461046f578063b449e716146104ad578063e9e30927146104ef578063fbd8e3971461051a5761011f565b8063834d336c146103415780638da5cb5b1461036c57806394b695801461039757806396f979d2146103c05780639a6b2087146103ff5761011f565b8063357b3616116100e7578063357b36161461021f5780633c8a254d1461024a578063494e23711461028a5780635e8b8091146102c757806366df6568146103045761011f565b806304e48bd11461012457806312065fe01461014f57806312c85b221461017a5780632b75565d146101b75780632e9868f8146101f4575b600080fd5b34801561013057600080fd5b50610139610545565b60405161014691906132b1565b60405180910390f35b34801561015b57600080fd5b506101646107cf565b6040516101719190613447565b60405180910390f35b34801561018657600080fd5b506101a1600480360381019061019c9190612b9e565b6107d7565b6040516101ae9190613447565b60405180910390f35b3480156101c357600080fd5b506101de60048036038101906101d99190612b29565b6109c4565b6040516101eb9190613447565b60405180910390f35b34801561020057600080fd5b50610209610b5d565b6040516102169190613332565b60405180910390f35b34801561022b57600080fd5b50610234610beb565b604051610241919061328f565b60405180910390f35b34801561025657600080fd5b50610271600480360381019061026c9190612c27565b610e7f565b6040516102819493929190613354565b60405180910390f35b34801561029657600080fd5b506102b160048036038101906102ac9190612c27565b610fbf565b6040516102be9190613447565b60405180910390f35b3480156102d357600080fd5b506102ee60048036038101906102e99190612ad1565b610fe3565b6040516102fb9190613317565b60405180910390f35b34801561031057600080fd5b5061032b60048036038101906103269190612c27565b611212565b6040516103389190613447565b60405180910390f35b34801561034d57600080fd5b50610356611236565b604051610363919061326d565b60405180910390f35b34801561037857600080fd5b5061038161131c565b60405161038e9190613222565b60405180910390f35b3480156103a357600080fd5b506103be60048036038101906103b99190612c50565b611340565b005b3480156103cc57600080fd5b506103e760048036038101906103e29190612c27565b6115af565b6040516103f69392919061350f565b60405180910390f35b34801561040b57600080fd5b5061042660048036038101906104219190612c27565b6116e9565b6040516104369493929190613462565b60405180910390f35b61045960048036038101906104549190612c27565b611746565b6040516104669190613447565b60405180910390f35b34801561047b57600080fd5b5061049660048036038101906104919190612aa8565b611a3f565b6040516104a492919061323d565b60405180910390f35b3480156104b957600080fd5b506104d460048036038101906104cf9190612c27565b611b0b565b6040516104e6969594939291906134a7565b60405180910390f35b3480156104fb57600080fd5b50610504611c8c565b60405161051191906132d3565b60405180910390f35b34801561052657600080fd5b5061052f612024565b60405161053c91906132f5565b60405180910390f35b6060600060088054905067ffffffffffffffff81111561058e577f4e487b7100000000000000000000000000000000000000000000000000000000600052604160045260246000fd5b6040519080825280602002602001820160405280156105c757816020015b6105b46128a8565b8152602001906001900390816105ac5790505b50905060005b6008805490508110156107c7576000600460006008848154811061061a577f4e487b7100000000000000000000000000000000000000000000000000000000600052603260045260246000fd5b90600052602060002001548152602001908152602001600020604051806060016040529081600082015481526020016001820180546106589061372a565b80601f01602080910402602001604051908101604052809291908181526020018280546106849061372a565b80156106d15780601f106106a6576101008083540402835291602001916106d1565b820191906000526020600020905b8154815290600101906020018083116106b457829003601f168201915b505050505081526020016002820180546106ea9061372a565b80601f01602080910402602001604051908101604052809291908181526020018280546107169061372a565b80156107635780601f1061073857610100808354040283529160200191610763565b820191906000526020600020905b81548152906001019060200180831161074657829003601f168201915b5050505050815250509050808383815181106107a8577f4e487b7100000000000000000000000000000000000000000000000000000000600052603260045260246000fd5b60200260200101819052505080806107bf9061375c565b9150506105cd565b508091505090565b600047905090565b60008060009054906101000a900473ffffffffffffffffffffffffffffffffffffffff1673ffffffffffffffffffffffffffffffffffffffff163373ffffffffffffffffffffffffffffffffffffffff161461083257600080fd5b60008211610875576040517f08c379a000000000000000000000000000000000000000000000000000000000815260040161086c906133a7565b60405180910390fd5b61087d61207c565b90506000604051806080016040528088888080601f016020809104026020016040519081016040528093929190818152602001838380828437600081840152601f19601f82011690508083019250505050505050815260200183815260200186868080601f016020809104026020016040519081016040528093929190818152602001838380828437600081840152601f19601f8201169050808301925050505050505081526020018481525090508060036000848152602001908152602001600020600082015181600001908051906020019061095c9291906128c9565b506020820151816001015560408201518160020190805190602001906109839291906128c9565b506060820151816003015590505060078290806001815401808255809150506001900390600052602060002001600090919091909150555095945050505050565b60008060009054906101000a900473ffffffffffffffffffffffffffffffffffffffff1673ffffffffffffffffffffffffffffffffffffffff163373ffffffffffffffffffffffffffffffffffffffff1614610a1f57600080fd5b610a2761209a565b90506000604051806060016040528083815260200187878080601f016020809104026020016040519081016040528093929190818152602001838380828437600081840152601f19601f82011690508083019250505050505050815260200185858080601f016020809104026020016040519081016040528093929190818152602001838380828437600081840152601f19601f8201169050808301925050505050505081525090508060046000848152602001908152602001600020600082015181600001556020820151816001019080519060200190610b0a9291906128c9565b506040820151816002019080519060200190610b279291906128c9565b50905050600882908060018154018082558091505060019003906000526020600020016000909190919091505550949350505050565b60018054610b6a9061372a565b80601f0160208091040260200160405190810160405280929190818152602001828054610b969061372a565b8015610be35780601f10610bb857610100808354040283529160200191610be3565b820191906000526020600020905b815481529060010190602001808311610bc657829003601f168201915b505050505081565b6060600060078054905067ffffffffffffffff811115610c34577f4e487b7100000000000000000000000000000000000000000000000000000000600052604160045260246000fd5b604051908082528060200260200182016040528015610c6d57816020015b610c5a61294f565b815260200190600190039081610c525790505b50905060005b600780549050811015610e775760006003600060078481548110610cc0577f4e487b7100000000000000000000000000000000000000000000000000000000600052603260045260246000fd5b90600052602060002001548152602001908152602001600020604051806080016040529081600082018054610cf49061372a565b80601f0160208091040260200160405190810160405280929190818152602001828054610d209061372a565b8015610d6d5780601f10610d4257610100808354040283529160200191610d6d565b820191906000526020600020905b815481529060010190602001808311610d5057829003601f168201915b5050505050815260200160018201548152602001600282018054610d909061372a565b80601f0160208091040260200160405190810160405280929190818152602001828054610dbc9061372a565b8015610e095780601f10610dde57610100808354040283529160200191610e09565b820191906000526020600020905b815481529060010190602001808311610dec57829003601f168201915b50505050508152602001600382015481525050905080838381518110610e58577f4e487b7100000000000000000000000000000000000000000000000000000000600052603260045260246000fd5b6020026020010181905250508080610e6f9061375c565b915050610c73565b508091505090565b6003602052806000526040600020600091509050806000018054610ea29061372a565b80601f0160208091040260200160405190810160405280929190818152602001828054610ece9061372a565b8015610f1b5780601f10610ef057610100808354040283529160200191610f1b565b820191906000526020600020905b815481529060010190602001808311610efe57829003601f168201915b505050505090806001015490806002018054610f369061372a565b80601f0160208091040260200160405190810160405280929190818152602001828054610f629061372a565b8015610faf5780601f10610f8457610100808354040283529160200191610faf565b820191906000526020600020905b815481529060010190602001808311610f9257829003601f168201915b5050505050908060030154905084565b60088181548110610fcf57600080fd5b906000526020600020016000915090505481565b60008060009054906101000a900473ffffffffffffffffffffffffffffffffffffffff1673ffffffffffffffffffffffffffffffffffffffff163373ffffffffffffffffffffffffffffffffffffffff161461103e57600080fd5b606080600060405180608001604052808873ffffffffffffffffffffffffffffffffffffffff16815260200187878080601f016020809104026020016040519081016040528093929190818152602001838380828437600081840152601f19601f820116905080830192505050505050508152602001848152602001838152509050600b879080600181540180825580915050600190039060005260206000200160009091909190916101000a81548173ffffffffffffffffffffffffffffffffffffffff021916908373ffffffffffffffffffffffffffffffffffffffff16021790555080600660008973ffffffffffffffffffffffffffffffffffffffff1673ffffffffffffffffffffffffffffffffffffffff16815260200190815260200160002060008201518160000160006101000a81548173ffffffffffffffffffffffffffffffffffffffff021916908373ffffffffffffffffffffffffffffffffffffffff16021790555060208201518160010190805190602001906111c69291906128c9565b5060408201518160020190805190602001906111e3929190612977565b506060820151816003019080519060200190611200929190612977565b50905050600193505050509392505050565b6007818154811061122257600080fd5b906000526020600020016000915090505481565b606060008054906101000a900473ffffffffffffffffffffffffffffffffffffffff1673ffffffffffffffffffffffffffffffffffffffff163373ffffffffffffffffffffffffffffffffffffffff161461129057600080fd5b600b80548060200260200160405190810160405280929190818152602001828054801561131257602002820191906000526020600020905b8160009054906101000a900473ffffffffffffffffffffffffffffffffffffffff1673ffffffffffffffffffffffffffffffffffffffff16815260200190600101908083116112c8575b5050505050905090565b60008054906101000a900473ffffffffffffffffffffffffffffffffffffffff1681565b60008054906101000a900473ffffffffffffffffffffffffffffffffffffffff1673ffffffffffffffffffffffffffffffffffffffff163373ffffffffffffffffffffffffffffffffffffffff161461139857600080fd5b60006113a26120b8565b905060006004600086815260200190815260200160002060000154116113fd576040517f08c379a00000000000000000000000000000000000000000000000000000000081526004016113f4906133c7565b60405180910390fd5b61140784846120d6565b15611447576040517f08c379a000000000000000000000000000000000000000000000000000000000815260040161143e90613427565b60405180910390fd5b600060405180608001604052808381526020018573ffffffffffffffffffffffffffffffffffffffff168152602001868152602001841515815250905080600560008481526020019081526020016000206000820151816000015560208201518160010160006101000a81548173ffffffffffffffffffffffffffffffffffffffff021916908373ffffffffffffffffffffffffffffffffffffffff1602179055506040820151816002015560608201518160030160006101000a81548160ff021916908315150217905550905050600660008573ffffffffffffffffffffffffffffffffffffffff1673ffffffffffffffffffffffffffffffffffffffff168152602001908152602001600020600201829080600181540180825580915050600190039060005260206000200160009091909190915055600a8290806001815401808255809150506001900390600052602060002001600090919091909150555050505050565b60046020528060005260406000206000915090508060000154908060010180546115d89061372a565b80601f01602080910402602001604051908101604052809291908181526020018280546116049061372a565b80156116515780601f1061162657610100808354040283529160200191611651565b820191906000526020600020905b81548152906001019060200180831161163457829003601f168201915b5050505050908060020180546116669061372a565b80601f01602080910402602001604051908101604052809291908181526020018280546116929061372a565b80156116df5780601f106116b4576101008083540402835291602001916116df565b820191906000526020600020905b8154815290600101906020018083116116c257829003601f168201915b5050505050905083565b60056020528060005260406000206000915090508060000154908060010160009054906101000a900473ffffffffffffffffffffffffffffffffffffffff16908060020154908060030160009054906101000a900460ff16905084565b6000670de0b6b3a76400003414611792576040517f08c379a000000000000000000000000000000000000000000000000000000000815260040161178990613407565b60405180910390fd5b600033905060006117a382856123fc565b9050806117e5576040517f08c379a00000000000000000000000000000000000000000000000000000000081526004016117dc906133e7565b60405180910390fd5b6000600660008473ffffffffffffffffffffffffffffffffffffffff1673ffffffffffffffffffffffffffffffffffffffff16815260200190815260200160002060010180546118349061372a565b80601f01602080910402602001604051908101604052809291908181526020018280546118609061372a565b80156118ad5780601f10611882576101008083540402835291602001916118ad565b820191906000526020600020905b81548152906001019060200180831161189057829003601f168201915b50505050509050600085905060004290506118c661288a565b955060006040518060c001604052808881526020018581526020018773ffffffffffffffffffffffffffffffffffffffff168152602001848152602001838152602001600115158152509050806002600089815260200190815260200160002060008201518160000155602082015181600101908051906020019061194c9291906128c9565b5060408201518160020160006101000a81548173ffffffffffffffffffffffffffffffffffffffff021916908373ffffffffffffffffffffffffffffffffffffffff160217905550606082015181600301556080820151816004015560a08201518160050160006101000a81548160ff021916908315150217905550905050600660008773ffffffffffffffffffffffffffffffffffffffff1673ffffffffffffffffffffffffffffffffffffffff168152602001908152602001600020600301879080600181540180825580915050600190039060005260206000200160009091909190915055505050505050919050565b60066020528060005260406000206000915090508060000160009054906101000a900473ffffffffffffffffffffffffffffffffffffffff1690806001018054611a889061372a565b80601f0160208091040260200160405190810160405280929190818152602001828054611ab49061372a565b8015611b015780601f10611ad657610100808354040283529160200191611b01565b820191906000526020600020905b815481529060010190602001808311611ae457829003601f168201915b5050505050905082565b600060606000806000806000600260008981526020019081526020016000206040518060c001604052908160008201548152602001600182018054611b4f9061372a565b80601f0160208091040260200160405190810160405280929190818152602001828054611b7b9061372a565b8015611bc85780601f10611b9d57610100808354040283529160200191611bc8565b820191906000526020600020905b815481529060010190602001808311611bab57829003601f168201915b505050505081526020016002820160009054906101000a900473ffffffffffffffffffffffffffffffffffffffff1673ffffffffffffffffffffffffffffffffffffffff1673ffffffffffffffffffffffffffffffffffffffff16815260200160038201548152602001600482015481526020016005820160009054906101000a900460ff1615151515815250509050806000015181602001518260400151836060015184608001518560a001519650965096509650965096505091939550919395565b606060008054906101000a900473ffffffffffffffffffffffffffffffffffffffff1673ffffffffffffffffffffffffffffffffffffffff163373ffffffffffffffffffffffffffffffffffffffff1614611ce657600080fd5b6000600b8054905067ffffffffffffffff811115611d2d577f4e487b7100000000000000000000000000000000000000000000000000000000600052604160045260246000fd5b604051908082528060200260200182016040528015611d6657816020015b611d536129c4565b815260200190600190039081611d4b5790505b50905060005b600b8054905081101561201c57600060066000600b8481548110611db9577f4e487b7100000000000000000000000000000000000000000000000000000000600052603260045260246000fd5b9060005260206000200160009054906101000a900473ffffffffffffffffffffffffffffffffffffffff1673ffffffffffffffffffffffffffffffffffffffff1673ffffffffffffffffffffffffffffffffffffffff1681526020019081526020016000206040518060800160405290816000820160009054906101000a900473ffffffffffffffffffffffffffffffffffffffff1673ffffffffffffffffffffffffffffffffffffffff1673ffffffffffffffffffffffffffffffffffffffff168152602001600182018054611e8f9061372a565b80601f0160208091040260200160405190810160405280929190818152602001828054611ebb9061372a565b8015611f085780601f10611edd57610100808354040283529160200191611f08565b820191906000526020600020905b815481529060010190602001808311611eeb57829003601f168201915b5050505050815260200160028201805480602002602001604051908101604052809291908181526020018280548015611f6057602002820191906000526020600020905b815481526020019060010190808311611f4c575b5050505050815260200160038201805480602002602001604051908101604052809291908181526020018280548015611fb857602002820191906000526020600020905b815481526020019060010190808311611fa4575b505050505081525050905080838381518110611ffd577f4e487b7100000000000000000000000000000000000000000000000000000000600052603260045260246000fd5b60200260200101819052505080806120149061375c565b915050611d6c565b508091505090565b6060600880548060200260200160405190810160405280929190818152602001828054801561207257602002820191906000526020600020905b81548152602001906001019080831161205e575b5050505050905090565b6000600d60008154809291906120919061375c565b91905055905090565b6000600e60008154809291906120af9061375c565b91905055905090565b6000600f60008154809291906120cd9061375c565b91905055905090565b600080600660008473ffffffffffffffffffffffffffffffffffffffff1673ffffffffffffffffffffffffffffffffffffffff1681526020019081526020016000206040518060800160405290816000820160009054906101000a900473ffffffffffffffffffffffffffffffffffffffff1673ffffffffffffffffffffffffffffffffffffffff1673ffffffffffffffffffffffffffffffffffffffff1681526020016001820180546121899061372a565b80601f01602080910402602001604051908101604052809291908181526020018280546121b59061372a565b80156122025780601f106121d757610100808354040283529160200191612202565b820191906000526020600020905b8154815290600101906020018083116121e557829003601f168201915b505050505081526020016002820180548060200260200160405190810160405280929190818152602001828054801561225a57602002820191906000526020600020905b815481526020019060010190808311612246575b50505050508152602001600382018054806020026020016040519081016040528092919081815260200182805480156122b257602002820191906000526020600020905b81548152602001906001019080831161229e575b50505050508152505090506000915060005b8160400151518110156123f457600082604001518281518110612310577f4e487b7100000000000000000000000000000000000000000000000000000000600052603260045260246000fd5b60200260200101519050600060056000838152602001908152602001600020604051806080016040529081600082015481526020016001820160009054906101000a900473ffffffffffffffffffffffffffffffffffffffff1673ffffffffffffffffffffffffffffffffffffffff1673ffffffffffffffffffffffffffffffffffffffff168152602001600282015481526020016003820160009054906101000a900460ff16151515158152505090508681604001511480156123d5575080606001515b156123df57600194505b505080806123ec9061375c565b9150506122c4565b505092915050565b600080600660008573ffffffffffffffffffffffffffffffffffffffff1673ffffffffffffffffffffffffffffffffffffffff1681526020019081526020016000206040518060800160405290816000820160009054906101000a900473ffffffffffffffffffffffffffffffffffffffff1673ffffffffffffffffffffffffffffffffffffffff1673ffffffffffffffffffffffffffffffffffffffff1681526020016001820180546124af9061372a565b80601f01602080910402602001604051908101604052809291908181526020018280546124db9061372a565b80156125285780601f106124fd57610100808354040283529160200191612528565b820191906000526020600020905b81548152906001019060200180831161250b57829003601f168201915b505050505081526020016002820180548060200260200160405190810160405280929190818152602001828054801561258057602002820191906000526020600020905b81548152602001906001019080831161256c575b50505050508152602001600382018054806020026020016040519081016040528092919081815260200182805480156125d857602002820191906000526020600020905b8154815260200190600101908083116125c4575b50505050508152505090506000600360008581526020019081526020016000206040518060800160405290816000820180546126139061372a565b80601f016020809104026020016040519081016040528092919081815260200182805461263f9061372a565b801561268c5780601f106126615761010080835404028352916020019161268c565b820191906000526020600020905b81548152906001019060200180831161266f57829003601f168201915b50505050508152602001600182015481526020016002820180546126af9061372a565b80601f01602080910402602001604051908101604052809291908181526020018280546126db9061372a565b80156127285780601f106126fd57610100808354040283529160200191612728565b820191906000526020600020905b81548152906001019060200180831161270b57829003601f168201915b5050505050815260200160038201548152505090506000805b83604001515181101561286c5760008460400151828151811061278d577f4e487b7100000000000000000000000000000000000000000000000000000000600052603260045260246000fd5b60200260200101519050600060056000838152602001908152602001600020604051806080016040529081600082015481526020016001820160009054906101000a900473ffffffffffffffffffffffffffffffffffffffff1673ffffffffffffffffffffffffffffffffffffffff1673ffffffffffffffffffffffffffffffffffffffff168152602001600282015481526020016003820160009054906101000a900460ff16151515158152505090508060600151156128575783806128539061375c565b9450505b505080806128649061375c565b915050612741565b50600093508160600151811061288157600193505b50505092915050565b6000600c600081548092919061289f9061375c565b91905055905090565b60405180606001604052806000815260200160608152602001606081525090565b8280546128d59061372a565b90600052602060002090601f0160209004810192826128f7576000855561293e565b82601f1061291057805160ff191683800117855561293e565b8280016001018555821561293e579182015b8281111561293d578251825591602001919060010190612922565b5b50905061294b9190612a02565b5090565b6040518060800160405280606081526020016000815260200160608152602001600081525090565b8280548282559060005260206000209081019282156129b3579160200282015b828111156129b2578251825591602001919060010190612997565b5b5090506129c09190612a02565b5090565b6040518060800160405280600073ffffffffffffffffffffffffffffffffffffffff1681526020016060815260200160608152602001606081525090565b5b80821115612a1b576000816000905550600101612a03565b5090565b600081359050612a2e816139c5565b92915050565b600081359050612a43816139dc565b92915050565b60008083601f840112612a5b57600080fd5b8235905067ffffffffffffffff811115612a7457600080fd5b602083019150836001820283011115612a8c57600080fd5b9250929050565b600081359050612aa2816139f3565b92915050565b600060208284031215612aba57600080fd5b6000612ac884828501612a1f565b91505092915050565b600080600060408486031215612ae657600080fd5b6000612af486828701612a1f565b935050602084013567ffffffffffffffff811115612b1157600080fd5b612b1d86828701612a49565b92509250509250925092565b60008060008060408587031215612b3f57600080fd5b600085013567ffffffffffffffff811115612b5957600080fd5b612b6587828801612a49565b9450945050602085013567ffffffffffffffff811115612b8457600080fd5b612b9087828801612a49565b925092505092959194509250565b600080600080600060608688031215612bb657600080fd5b600086013567ffffffffffffffff811115612bd057600080fd5b612bdc88828901612a49565b9550955050602086013567ffffffffffffffff811115612bfb57600080fd5b612c0788828901612a49565b93509350506040612c1a88828901612a93565b9150509295509295909350565b600060208284031215612c3957600080fd5b6000612c4784828501612a93565b91505092915050565b600080600060608486031215612c6557600080fd5b6000612c7386828701612a93565b9350506020612c8486828701612a1f565b9250506040612c9586828701612a34565b9150509250925092565b6000612cab8383612d0b565b60208301905092915050565b6000612cc383836130d2565b905092915050565b6000612cd7838361313c565b905092915050565b6000612ceb8383613193565b905092915050565b6000612cff8383613204565b60208301905092915050565b612d14816136af565b82525050565b612d23816136af565b82525050565b6000612d34826135a4565b612d3e8185613627565b9350612d4983613554565b8060005b83811015612d7a578151612d618882612c9f565b9750612d6c836135e6565b925050600181019050612d4d565b5085935050505092915050565b6000612d92826135af565b612d9c8185613638565b935083602082028501612dae85613564565b8060005b85811015612dea5784840389528151612dcb8582612cb7565b9450612dd6836135f3565b925060208a01995050600181019050612db2565b50829750879550505050505092915050565b6000612e07826135ba565b612e118185613649565b935083602082028501612e2385613574565b8060005b85811015612e5f5784840389528151612e408582612ccb565b9450612e4b83613600565b925060208a01995050600181019050612e27565b50829750879550505050505092915050565b6000612e7c826135c5565b612e86818561365a565b935083602082028501612e9885613584565b8060005b85811015612ed45784840389528151612eb58582612cdf565b9450612ec08361360d565b925060208a01995050600181019050612e9c565b50829750879550505050505092915050565b6000612ef1826135d0565b612efb818561366b565b9350612f0683613594565b8060005b83811015612f37578151612f1e8882612cf3565b9750612f298361361a565b925050600181019050612f0a565b5085935050505092915050565b6000612f4f826135d0565b612f59818561367c565b9350612f6483613594565b8060005b83811015612f95578151612f7c8882612cf3565b9750612f878361361a565b925050600181019050612f68565b5085935050505092915050565b612fab816136c1565b82525050565b6000612fbc826135db565b612fc6818561368d565b9350612fd68185602086016136f7565b612fdf81613803565b840191505092915050565b6000612ff5826135db565b612fff818561369e565b935061300f8185602086016136f7565b61301881613803565b840191505092915050565b6000613030602f8361369e565b915061303b82613814565b604082019050919050565b6000613053601c8361369e565b915061305e82613863565b602082019050919050565b600061307660498361369e565b91506130818261388c565b606082019050919050565b600061309960498361369e565b91506130a482613901565b606082019050919050565b60006130bc602c8361369e565b91506130c782613976565b604082019050919050565b600060808301600083015184820360008601526130ef8282612fb1565b91505060208301516131046020860182613204565b506040830151848203604086015261311c8282612fb1565b91505060608301516131316060860182613204565b508091505092915050565b60006060830160008301516131546000860182613204565b506020830151848203602086015261316c8282612fb1565b915050604083015184820360408601526131868282612fb1565b9150508091505092915050565b60006080830160008301516131ab6000860182612d0b565b50602083015184820360208601526131c38282612fb1565b915050604083015184820360408601526131dd8282612ee6565b915050606083015184820360608601526131f78282612ee6565b9150508091505092915050565b61320d816136ed565b82525050565b61321c816136ed565b82525050565b60006020820190506132376000830184612d1a565b92915050565b60006040820190506132526000830185612d1a565b81810360208301526132648184612fea565b90509392505050565b600060208201905081810360008301526132878184612d29565b905092915050565b600060208201905081810360008301526132a98184612d87565b905092915050565b600060208201905081810360008301526132cb8184612dfc565b905092915050565b600060208201905081810360008301526132ed8184612e71565b905092915050565b6000602082019050818103600083015261330f8184612f44565b905092915050565b600060208201905061332c6000830184612fa2565b92915050565b6000602082019050818103600083015261334c8184612fea565b905092915050565b6000608082019050818103600083015261336e8187612fea565b905061337d6020830186613213565b818103604083015261338f8185612fea565b905061339e6060830184613213565b95945050505050565b600060208201905081810360008301526133c081613023565b9050919050565b600060208201905081810360008301526133e081613046565b9050919050565b6000602082019050818103600083015261340081613069565b9050919050565b600060208201905081810360008301526134208161308c565b9050919050565b60006020820190508181036000830152613440816130af565b9050919050565b600060208201905061345c6000830184613213565b92915050565b60006080820190506134776000830187613213565b6134846020830186612d1a565b6134916040830185613213565b61349e6060830184612fa2565b95945050505050565b600060c0820190506134bc6000830189613213565b81810360208301526134ce8188612fea565b90506134dd6040830187612d1a565b6134ea6060830186613213565b6134f76080830185613213565b61350460a0830184612fa2565b979650505050505050565b60006060820190506135246000830186613213565b81810360208301526135368185612fea565b9050818103604083015261354a8184612fea565b9050949350505050565b6000819050602082019050919050565b6000819050602082019050919050565b6000819050602082019050919050565b6000819050602082019050919050565b6000819050602082019050919050565b600081519050919050565b600081519050919050565b600081519050919050565b600081519050919050565b600081519050919050565b600081519050919050565b6000602082019050919050565b6000602082019050919050565b6000602082019050919050565b6000602082019050919050565b6000602082019050919050565b600082825260208201905092915050565b600082825260208201905092915050565b600082825260208201905092915050565b600082825260208201905092915050565b600082825260208201905092915050565b600082825260208201905092915050565b600082825260208201905092915050565b600082825260208201905092915050565b60006136ba826136cd565b9050919050565b60008115159050919050565b600073ffffffffffffffffffffffffffffffffffffffff82169050919050565b6000819050919050565b60005b838110156137155780820151818401526020810190506136fa565b83811115613724576000848401525b50505050565b6000600282049050600182168061374257607f821691505b60208210811415613756576137556137d4565b5b50919050565b6000613767826136ed565b91507fffffffffffffffffffffffffffffffffffffffffffffffffffffffffffffffff82141561379a576137996137a5565b5b600182019050919050565b7f4e487b7100000000000000000000000000000000000000000000000000000000600052601160045260246000fd5b7f4e487b7100000000000000000000000000000000000000000000000000000000600052602260045260246000fd5b6000601f19601f8301169050919050565b7f41206365727469666963617465206d7573742072657175697265206174206c6560008201527f617374206f6e6520636f757273652e0000000000000000000000000000000000602082015250565b7f5468697320636f75727365496420646f65736e27742065786973742e00000000600082015250565b7f596f752068617665206e6f74207375636365737366756c6c792070617373656460008201527f20656e6f75676820636f757273657320666f722074686973206365727469666960208201527f6361746520747970650000000000000000000000000000000000000000000000604082015250565b7f596f7520646964206e6f74207061792074686520636f727265637420616d6f7560008201527f6e7420666f7220796f75722063657274696669636174652069737375616e636560208201527f20726571756573742e0000000000000000000000000000000000000000000000604082015250565b7f546869732073747564656e742068617320616c7265616479207061737365642060008201527f7468697320636f757273652e0000000000000000000000000000000000000000602082015250565b6139ce816136af565b81146139d957600080fd5b50565b6139e5816136c1565b81146139f057600080fd5b50565b6139fc816136ed565b8114613a0757600080fd5b5056fea26469706673582212200b45c83ad26b5a57861a5fcf2df5d45f5a5a83c882c6b263a67772b9fca5104564736f6c63430008040033",
  "immutableReferences": {},
  "source": "// SPDX-License-Identifier: GPL-3.0\n\n// pragma solidity ^0.7.0;\n// pragma experimental ABIEncoderV2;\npragma solidity ^0.8.0;\n// Using the new ABI coder which can return arrays of structs\n\ncontract CertificateIssuer {\n    address public owner;\n    string public issuerName;\n    mapping(uint => Certificate) private issued_certificates;\n    mapping(uint => CertificateType) public certificate_types;\n    mapping(uint => Course) public courses;\n    mapping(uint => Enrollment) public enrollments;\n    mapping(address => Student) public students;\n    \n    // need to track the ids for things somewhere, can't get keys from mappings\n    uint[] public certTypeIds;\n    uint[] public courseIds;\n    uint[] private certIds;\n    uint[] private enrollmentIds;\n    address[] private studentAddresses;\n\n    \n    uint private certCount = 1;\n    uint private certTypeCount = 1;\n    uint private courseCount = 1;\n    uint private enrollmentCount = 1;\n    \n    function getBalance() public view returns (uint) {\n        return address(this).balance;\n    }\n    \n    function getCertId() private returns (uint){\n        return certCount++;\n    }\n    \n    function getCertTypeId() private returns (uint){\n        return certTypeCount++;\n    }\n    \n    function getCourseId() private returns(uint){\n        return courseCount++;\n    }\n    \n    function getEnrollmentId() private returns(uint){\n        return enrollmentCount++;\n    }\n    \n    modifier onlyOwner() {\n        require(msg.sender == owner);\n        _;\n    }\n    \n    constructor(string memory _issuerName, string memory _certName, string memory _certDesc, uint _numCertCoursesRequired) {\n        // set up the first cert type - can't call public function?\n        uint certTypeId = getCertTypeId();\n        CertificateType memory certType = CertificateType(_certName, certTypeId, _certDesc, _numCertCoursesRequired);\n        certificate_types[certTypeId] = certType;\n        certTypeIds.push(certTypeId);\n        \n        owner = msg.sender;\n        issuerName = _issuerName;\n    }\n    \n    struct Certificate {\n        uint certificateId;\n        string studentName;\n        address studentAddress;\n        uint certificateTypeId;\n        uint issuedDate;\n        bool valid;\n        // Potentially, a mapping of courses applied to the cert\n    }\n    \n    struct CertificateType {\n        string certificateName;\n        uint certificateTypeId;\n        string certificateDescription;\n        uint numCoursesRequired;\n    }\n    \n    struct Course {\n        uint courseId;\n        string courseName;\n        string courseDescription;\n    }\n    \n    struct Enrollment {\n        uint enrollmentId;\n        address studentAddress;\n        uint courseId;\n        bool pass;\n    }\n    \n    struct Student {\n        address studentAddress;\n        string studentName;\n        uint[] enrollmentIds;\n        uint[] certificateIds;\n    }\n    \n    function requestCert(uint _certificateTypeId) external payable returns (uint certificateId)  {\n        require(msg.value == 1 ether, \"You did not pay the correct amount for your certificate issuance request.\");\n        \n        address studentAddress = msg.sender;\n        \n        bool validRequest = validateRequest(studentAddress, _certificateTypeId);\n        require(validRequest, \"You have not successfully passed enough courses for this certificate type\");\n        \n        string memory studentName = students[studentAddress].studentName;\n        uint certificateTypeId = _certificateTypeId;\n        uint issuedDate = block.timestamp;\n        certificateId = getCertId();\n        \n        Certificate memory cert = Certificate(certificateId, studentName, studentAddress, certificateTypeId, issuedDate, true);\n        \n        issued_certificates[certificateId] = cert;\n        students[studentAddress].certificateIds.push(certificateId);\n        \n        return certificateId;\n    }\n    \n    function validateRequest(address _studentAddress, uint _certTypeId) private view returns (bool valid){\n        Student memory student = students[_studentAddress];\n        CertificateType memory certType = certificate_types[_certTypeId];\n        uint numCoursesPassed = 0;\n        \n        for(uint i = 0; i < student.enrollmentIds.length; i++){\n            uint id = student.enrollmentIds[i];\n            Enrollment memory e = enrollments[id];\n            if(e.pass){\n                numCoursesPassed++;\n            }\n        }\n        valid = false;\n        if(numCoursesPassed >= certType.numCoursesRequired){\n            valid = true;\n        }\n        return valid;\n    }\n    \n    // Can't return structs in external functions in Solidity - decompose it\n    function getCert(uint id) public view returns (\n        uint certificateId,\n        string memory studentName,\n        address studentAddress,\n        uint certificateTypeId,\n        uint issuedDate,\n        bool valid\n     ){\n        Certificate memory cert = issued_certificates[id];\n        return(cert.certificateId, cert.studentName, cert.studentAddress, cert.certificateTypeId, cert.issuedDate, cert.valid);\n    }\n    \n    function addStudent(address _studentAddress, string calldata _studentName) public onlyOwner returns (bool success){\n        uint[] memory tempEIds;\n        uint[] memory tempCertIds;\n        Student memory tempStudent = Student(_studentAddress, _studentName, tempEIds, tempCertIds);\n        studentAddresses.push(_studentAddress);\n        students[_studentAddress] = tempStudent;\n        return true;\n    }\n    \n    function addCourse(string calldata _courseName, string calldata _courseDesc) public onlyOwner returns (uint courseId){\n        courseId = getCourseId();\n        Course memory tempCourse = Course(courseId, _courseName, _courseDesc);\n        courses[courseId] = tempCourse;\n        courseIds.push(courseId);\n        return courseId;\n    }\n    \n    function addEnrollment(uint _courseId, address _studentAddress, bool _pass) public onlyOwner{\n        uint enrollmentId = getEnrollmentId();\n        \n        require(courses[_courseId].courseId > 0, \"This courseId doesn't exist.\");\n        require(!studentEnrollmentAlreadyExists(_courseId, _studentAddress), \"This student has already passed this course.\");\n        \n        Enrollment memory tempEnrollment = Enrollment(enrollmentId, _studentAddress, _courseId, _pass);\n        enrollments[enrollmentId] = tempEnrollment;\n        students[_studentAddress].enrollmentIds.push(enrollmentId);\n        enrollmentIds.push(enrollmentId);\n    }\n    \n    function studentEnrollmentAlreadyExists(uint _courseId, address _studentAddress) private view returns (bool exists){\n        Student memory student = students[_studentAddress];\n        exists = false;\n        for(uint i = 0; i < student.enrollmentIds.length; i++){\n            uint id = student.enrollmentIds[i];\n            Enrollment memory e = enrollments[id];\n            if(e.courseId == _courseId && e.pass){\n                exists = true;\n            }\n        }\n        return exists;\n    }\n    \n    function addCertificateType(string calldata _certName, string calldata _certDesc, uint _numCoursesRequired) public onlyOwner returns (uint certTypeId){\n        require(_numCoursesRequired > 0, \"A certificate must require at least one course.\");\n        certTypeId = getCertTypeId();\n        CertificateType memory certType = CertificateType(_certName, certTypeId, _certDesc, _numCoursesRequired);\n        certificate_types[certTypeId] = certType;\n        certTypeIds.push(certTypeId);\n        return certTypeId;\n    }\n\n    function getAllStudentIds() public view onlyOwner returns (address [] memory){\n        return studentAddresses;\n    }\n\n    function getAllStudents() public view onlyOwner returns (Student [] memory){\n        Student[] memory studentArr = new Student[](studentAddresses.length);\n        for(uint i = 0; i < studentAddresses.length; i++){\n            Student memory s = students[studentAddresses[i]];\n            studentArr[i] = s;\n        }\n        return studentArr;\n    }\n\n    function getAllCertTypes() public view returns (CertificateType [] memory){\n        CertificateType[] memory certArr = new CertificateType[](certTypeIds.length);\n        for(uint i = 0; i < certTypeIds.length; i++){\n            CertificateType memory c = certificate_types[certTypeIds[i]];\n            certArr[i] = c;\n        }\n        return certArr;\n    }\n\n    function getAllCourses() public view returns (Course [] memory){\n        Course[] memory courseArr = new Course[](courseIds.length);\n        for(uint i = 0; i < courseIds.length; i++){\n            Course memory c = courses[courseIds[i]];\n            courseArr[i] = c;\n        }\n        return courseArr;\n    }\n\n    function getAllCourseIds() public view returns (uint [] memory){\n        return courseIds;\n    }\n\n    \n    // function getStudentEnrollmentIds(address _address) public view returns(uint [] memory){\n    //     return students[_address].enrollmentIds;\n    // }\n    \n}",
  "sourcePath": "/Users/colecrawford/GitHub/blockchain-certs/contracts/CertificateIssuer.sol",
  "compiler": {
    "name": "solc",
    "version": "0.8.4+commit.c7e474f2.Emscripten.clang"
  },
  "schemaVersion": "3.3.4",
  "updatedAt": "2021-04-26T23:26:15.718Z",
  "networkType": "ethereum",
  "devdoc": {
    "kind": "dev",
    "methods": {},
    "version": 1
  },
  "userdoc": {
    "kind": "user",
    "methods": {},
    "version": 1
  }
}