{
  "contractName": "CertificateIssuer",
  "abi": [
    {
      "inputs": [
        {
          "internalType": "string",
          "name": "_issuerName",
          "type": "string"
        },
        {
          "internalType": "string",
          "name": "_certName",
          "type": "string"
        },
        {
          "internalType": "string",
          "name": "_certDesc",
          "type": "string"
        },
        {
          "internalType": "uint256",
          "name": "_numCertCoursesRequired",
          "type": "uint256"
        }
      ],
      "stateMutability": "nonpayable",
      "type": "constructor"
    },
    {
      "inputs": [
        {
          "internalType": "uint256",
          "name": "",
          "type": "uint256"
        }
      ],
      "name": "certTypeIds",
      "outputs": [
        {
          "internalType": "uint256",
          "name": "",
          "type": "uint256"
        }
      ],
      "stateMutability": "view",
      "type": "function",
      "constant": true
    },
    {
      "inputs": [
        {
          "internalType": "uint256",
          "name": "",
          "type": "uint256"
        }
      ],
      "name": "certificate_types",
      "outputs": [
        {
          "internalType": "string",
          "name": "certificateName",
          "type": "string"
        },
        {
          "internalType": "uint256",
          "name": "certificateTypeId",
          "type": "uint256"
        },
        {
          "internalType": "string",
          "name": "certificateDescription",
          "type": "string"
        },
        {
          "internalType": "uint256",
          "name": "numCoursesRequired",
          "type": "uint256"
        }
      ],
      "stateMutability": "view",
      "type": "function",
      "constant": true
    },
    {
      "inputs": [
        {
          "internalType": "uint256",
          "name": "",
          "type": "uint256"
        }
      ],
      "name": "courseIds",
      "outputs": [
        {
          "internalType": "uint256",
          "name": "",
          "type": "uint256"
        }
      ],
      "stateMutability": "view",
      "type": "function",
      "constant": true
    },
    {
      "inputs": [
        {
          "internalType": "uint256",
          "name": "",
          "type": "uint256"
        }
      ],
      "name": "courses",
      "outputs": [
        {
          "internalType": "uint256",
          "name": "courseId",
          "type": "uint256"
        },
        {
          "internalType": "string",
          "name": "courseName",
          "type": "string"
        },
        {
          "internalType": "string",
          "name": "courseDescription",
          "type": "string"
        }
      ],
      "stateMutability": "view",
      "type": "function",
      "constant": true
    },
    {
      "inputs": [],
      "name": "issuerName",
      "outputs": [
        {
          "internalType": "string",
          "name": "",
          "type": "string"
        }
      ],
      "stateMutability": "view",
      "type": "function",
      "constant": true
    },
    {
      "inputs": [],
      "name": "owner",
      "outputs": [
        {
          "internalType": "address",
          "name": "",
          "type": "address"
        }
      ],
      "stateMutability": "view",
      "type": "function",
      "constant": true
    },
    {
      "inputs": [
        {
          "internalType": "address",
          "name": "",
          "type": "address"
        }
      ],
      "name": "students",
      "outputs": [
        {
          "internalType": "address",
          "name": "studentAddress",
          "type": "address"
        },
        {
          "internalType": "string",
          "name": "studentName",
          "type": "string"
        }
      ],
      "stateMutability": "view",
      "type": "function",
      "constant": true
    },
    {
      "inputs": [],
      "name": "getBalance",
      "outputs": [
        {
          "internalType": "uint256",
          "name": "",
          "type": "uint256"
        }
      ],
      "stateMutability": "view",
      "type": "function",
      "constant": true
    },
    {
      "inputs": [
        {
          "internalType": "uint256",
          "name": "_certificateTypeId",
          "type": "uint256"
        }
      ],
      "name": "requestCert",
      "outputs": [
        {
          "internalType": "uint256",
          "name": "certificateId",
          "type": "uint256"
        }
      ],
      "stateMutability": "payable",
      "type": "function",
      "payable": true
    },
    {
      "inputs": [
        {
          "internalType": "uint256",
          "name": "id",
          "type": "uint256"
        }
      ],
      "name": "getCert",
      "outputs": [
        {
          "components": [
            {
              "internalType": "uint256",
              "name": "certificateId",
              "type": "uint256"
            },
            {
              "internalType": "string",
              "name": "studentName",
              "type": "string"
            },
            {
              "internalType": "address",
              "name": "studentAddress",
              "type": "address"
            },
            {
              "internalType": "uint256",
              "name": "certificateTypeId",
              "type": "uint256"
            },
            {
              "internalType": "uint256",
              "name": "issuedDate",
              "type": "uint256"
            },
            {
              "internalType": "bool",
              "name": "valid",
              "type": "bool"
            }
          ],
          "internalType": "struct CertificateIssuer.Certificate",
          "name": "",
          "type": "tuple"
        }
      ],
      "stateMutability": "view",
      "type": "function",
      "constant": true
    },
    {
      "inputs": [
        {
          "internalType": "address",
          "name": "_studentAddress",
          "type": "address"
        },
        {
          "internalType": "string",
          "name": "_studentName",
          "type": "string"
        }
      ],
      "name": "addStudent",
      "outputs": [
        {
          "internalType": "bool",
          "name": "success",
          "type": "bool"
        }
      ],
      "stateMutability": "nonpayable",
      "type": "function"
    },
    {
      "inputs": [
        {
          "internalType": "string",
          "name": "_courseName",
          "type": "string"
        },
        {
          "internalType": "string",
          "name": "_courseDesc",
          "type": "string"
        }
      ],
      "name": "addCourse",
      "outputs": [
        {
          "internalType": "uint256",
          "name": "courseId",
          "type": "uint256"
        }
      ],
      "stateMutability": "nonpayable",
      "type": "function"
    },
    {
      "inputs": [
        {
          "internalType": "uint256",
          "name": "_courseId",
          "type": "uint256"
        },
        {
          "internalType": "address",
          "name": "_studentAddress",
          "type": "address"
        },
        {
          "internalType": "bool",
          "name": "_pass",
          "type": "bool"
        }
      ],
      "name": "addEnrollment",
      "outputs": [],
      "stateMutability": "nonpayable",
      "type": "function"
    },
    {
      "inputs": [
        {
          "internalType": "string",
          "name": "_certName",
          "type": "string"
        },
        {
          "internalType": "string",
          "name": "_certDesc",
          "type": "string"
        },
        {
          "internalType": "uint256",
          "name": "_numCoursesRequired",
          "type": "uint256"
        }
      ],
      "name": "addCertificateType",
      "outputs": [
        {
          "internalType": "uint256",
          "name": "certTypeId",
          "type": "uint256"
        }
      ],
      "stateMutability": "nonpayable",
      "type": "function"
    },
    {
      "inputs": [],
      "name": "getAllStudentIds",
      "outputs": [
        {
          "internalType": "address[]",
          "name": "",
          "type": "address[]"
        }
      ],
      "stateMutability": "view",
      "type": "function",
      "constant": true
    },
    {
      "inputs": [],
      "name": "getAllStudents",
      "outputs": [
        {
          "components": [
            {
              "internalType": "address",
              "name": "studentAddress",
              "type": "address"
            },
            {
              "internalType": "string",
              "name": "studentName",
              "type": "string"
            },
            {
              "internalType": "uint256[]",
              "name": "enrollmentIds",
              "type": "uint256[]"
            },
            {
              "internalType": "uint256[]",
              "name": "certificateIds",
              "type": "uint256[]"
            }
          ],
          "internalType": "struct CertificateIssuer.Student[]",
          "name": "",
          "type": "tuple[]"
        }
      ],
      "stateMutability": "view",
      "type": "function",
      "constant": true
    },
    {
      "inputs": [],
      "name": "getAllCertTypes",
      "outputs": [
        {
          "components": [
            {
              "internalType": "string",
              "name": "certificateName",
              "type": "string"
            },
            {
              "internalType": "uint256",
              "name": "certificateTypeId",
              "type": "uint256"
            },
            {
              "internalType": "string",
              "name": "certificateDescription",
              "type": "string"
            },
            {
              "internalType": "uint256",
              "name": "numCoursesRequired",
              "type": "uint256"
            }
          ],
          "internalType": "struct CertificateIssuer.CertificateType[]",
          "name": "",
          "type": "tuple[]"
        }
      ],
      "stateMutability": "view",
      "type": "function",
      "constant": true
    },
    {
      "inputs": [],
      "name": "getAllCourses",
      "outputs": [
        {
          "components": [
            {
              "internalType": "uint256",
              "name": "courseId",
              "type": "uint256"
            },
            {
              "internalType": "string",
              "name": "courseName",
              "type": "string"
            },
            {
              "internalType": "string",
              "name": "courseDescription",
              "type": "string"
            }
          ],
          "internalType": "struct CertificateIssuer.Course[]",
          "name": "",
          "type": "tuple[]"
        }
      ],
      "stateMutability": "view",
      "type": "function",
      "constant": true
    },
    {
      "inputs": [],
      "name": "getAllCourseIds",
      "outputs": [
        {
          "internalType": "uint256[]",
          "name": "",
          "type": "uint256[]"
        }
      ],
      "stateMutability": "view",
      "type": "function",
      "constant": true
    },
    {
      "inputs": [],
      "name": "getAllEnrollments",
      "outputs": [
        {
          "components": [
            {
              "internalType": "uint256",
              "name": "enrollmentId",
              "type": "uint256"
            },
            {
              "internalType": "address",
              "name": "studentAddress",
              "type": "address"
            },
            {
              "internalType": "uint256",
              "name": "courseId",
              "type": "uint256"
            },
            {
              "internalType": "bool",
              "name": "pass",
              "type": "bool"
            }
          ],
          "internalType": "struct CertificateIssuer.Enrollment[]",
          "name": "",
          "type": "tuple[]"
        }
      ],
      "stateMutability": "view",
      "type": "function",
      "constant": true
    },
    {
      "inputs": [
        {
          "internalType": "uint256",
          "name": "enrollmentId",
          "type": "uint256"
        }
      ],
      "name": "getEnrollment",
      "outputs": [
        {
          "components": [
            {
              "internalType": "uint256",
              "name": "enrollmentId",
              "type": "uint256"
            },
            {
              "internalType": "address",
              "name": "studentAddress",
              "type": "address"
            },
            {
              "internalType": "uint256",
              "name": "courseId",
              "type": "uint256"
            },
            {
              "internalType": "bool",
              "name": "pass",
              "type": "bool"
            }
          ],
          "internalType": "struct CertificateIssuer.Enrollment",
          "name": "",
          "type": "tuple"
        }
      ],
      "stateMutability": "view",
      "type": "function",
      "constant": true
    },
    {
      "inputs": [],
      "name": "getAllCertificates",
      "outputs": [
        {
          "components": [
            {
              "internalType": "uint256",
              "name": "certificateId",
              "type": "uint256"
            },
            {
              "internalType": "string",
              "name": "studentName",
              "type": "string"
            },
            {
              "internalType": "address",
              "name": "studentAddress",
              "type": "address"
            },
            {
              "internalType": "uint256",
              "name": "certificateTypeId",
              "type": "uint256"
            },
            {
              "internalType": "uint256",
              "name": "issuedDate",
              "type": "uint256"
            },
            {
              "internalType": "bool",
              "name": "valid",
              "type": "bool"
            }
          ],
          "internalType": "struct CertificateIssuer.Certificate[]",
          "name": "",
          "type": "tuple[]"
        }
      ],
      "stateMutability": "view",
      "type": "function",
      "constant": true
    }
  ],
  "bytecode": "0x60806040526001600c556001600d556001600e556001600f553480156200002557600080fd5b5060405162004c6638038062004c6683398181016040528101906200004b9190620002d4565b60006200005d6200017b60201b60201c565b90506000604051806080016040528086815260200183815260200185815260200184815250905080600360008481526020019081526020016000206000820151816000019080519060200190620000b69291906200019b565b50602082015181600101556040820151816002019080519060200190620000df9291906200019b565b50606082015181600301559050506007829080600181540180825580915050600190039060005260206000200160009091909190915055336000806101000a81548173ffffffffffffffffffffffffffffffffffffffff021916908373ffffffffffffffffffffffffffffffffffffffff16021790555085600190805190602001906200016e9291906200019b565b505050505050506200059c565b6000600d6000815480929190620001929062000496565b91905055905090565b828054620001a9906200042a565b90600052602060002090601f016020900481019282620001cd576000855562000219565b82601f10620001e857805160ff191683800117855562000219565b8280016001018555821562000219579182015b8281111562000218578251825591602001919060010190620001fb565b5b5090506200022891906200022c565b5090565b5b80821115620002475760008160009055506001016200022d565b5090565b6000620002626200025c84620003b4565b6200038b565b9050828152602081018484840111156200027b57600080fd5b62000288848285620003f4565b509392505050565b600082601f830112620002a257600080fd5b8151620002b48482602086016200024b565b91505092915050565b600081519050620002ce8162000582565b92915050565b60008060008060808587031215620002eb57600080fd5b600085015167ffffffffffffffff8111156200030657600080fd5b620003148782880162000290565b945050602085015167ffffffffffffffff8111156200033257600080fd5b620003408782880162000290565b935050604085015167ffffffffffffffff8111156200035e57600080fd5b6200036c8782880162000290565b92505060606200037f87828801620002bd565b91505092959194509250565b600062000397620003aa565b9050620003a5828262000460565b919050565b6000604051905090565b600067ffffffffffffffff821115620003d257620003d162000542565b5b620003dd8262000571565b9050602081019050919050565b6000819050919050565b60005b8381101562000414578082015181840152602081019050620003f7565b8381111562000424576000848401525b50505050565b600060028204905060018216806200044357607f821691505b602082108114156200045a576200045962000513565b5b50919050565b6200046b8262000571565b810181811067ffffffffffffffff821117156200048d576200048c62000542565b5b80604052505050565b6000620004a382620003ea565b91507fffffffffffffffffffffffffffffffffffffffffffffffffffffffffffffffff821415620004d957620004d8620004e4565b5b600182019050919050565b7f4e487b7100000000000000000000000000000000000000000000000000000000600052601160045260246000fd5b7f4e487b7100000000000000000000000000000000000000000000000000000000600052602260045260246000fd5b7f4e487b7100000000000000000000000000000000000000000000000000000000600052604160045260246000fd5b6000601f19601f8301169050919050565b6200058d81620003ea565b81146200059957600080fd5b50565b6146ba80620005ac6000396000f3fe6080604052600436106101355760003560e01c80635e8b8091116100ab57806396f979d21161006f57806396f979d214610469578063a21103b6146104a8578063a6c807a9146104d8578063b449e71614610516578063e9e3092714610553578063fbd8e3971461057e57610135565b80635e8b80911461037057806366df6568146103ad578063834d336c146103ea5780638da5cb5b1461041557806394b695801461044057610135565b80632e9868f8116100fd5780632e9868f814610235578063357b3616146102605780633c8a254d1461028b578063494e2371146102cb57806355f213d6146103085780635982dd1b1461033357610135565b806304e48bd11461013a57806312065fe01461016557806312c85b221461019057806313fcfe80146101cd5780632b75565d146101f8575b600080fd5b34801561014657600080fd5b5061014f6105a9565b60405161015c9190613e98565b60405180910390f35b34801561017157600080fd5b5061017a610833565b60405161018791906140ad565b60405180910390f35b34801561019c57600080fd5b506101b760048036038101906101b29190613476565b61083b565b6040516101c491906140ad565b60405180910390f35b3480156101d957600080fd5b506101e2610a28565b6040516101ef9190613e76565b60405180910390f35b34801561020457600080fd5b5061021f600480360381019061021a9190613401565b610cfd565b60405161022c91906140ad565b60405180910390f35b34801561024157600080fd5b5061024a610e96565b6040516102579190613f3b565b60405180910390f35b34801561026c57600080fd5b50610275610f24565b6040516102829190613e54565b60405180910390f35b34801561029757600080fd5b506102b260048036038101906102ad91906134ff565b6111b8565b6040516102c29493929190613f5d565b60405180910390f35b3480156102d757600080fd5b506102f260048036038101906102ed91906134ff565b6112f8565b6040516102ff91906140ad565b60405180910390f35b34801561031457600080fd5b5061031d61131c565b60405161032a9190613eba565b60405180910390f35b34801561033f57600080fd5b5061035a600480360381019061035591906134ff565b611555565b6040516103679190614092565b60405180910390f35b34801561037c57600080fd5b50610397600480360381019061039291906133a9565b61165f565b6040516103a49190613f20565b60405180910390f35b3480156103b957600080fd5b506103d460048036038101906103cf91906134ff565b611abd565b6040516103e191906140ad565b60405180910390f35b3480156103f657600080fd5b506103ff611ae1565b60405161040c9190613e32565b60405180910390f35b34801561042157600080fd5b5061042a611bc7565b6040516104379190613de7565b60405180910390f35b34801561044c57600080fd5b5061046760048036038101906104629190613528565b611beb565b005b34801561047557600080fd5b50610490600480360381019061048b91906134ff565b611e5a565b60405161049f939291906140c8565b60405180910390f35b6104c260048036038101906104bd91906134ff565b611f94565b6040516104cf91906140ad565b60405180910390f35b3480156104e457600080fd5b506104ff60048036038101906104fa9190613380565b6122b6565b60405161050d929190613e02565b60405180910390f35b34801561052257600080fd5b5061053d600480360381019061053891906134ff565b612382565b60405161054a9190614070565b60405180910390f35b34801561055f57600080fd5b506105686124d6565b6040516105759190613edc565b60405180910390f35b34801561058a57600080fd5b5061059361286e565b6040516105a09190613efe565b60405180910390f35b6060600060088054905067ffffffffffffffff8111156105f2577f4e487b7100000000000000000000000000000000000000000000000000000000600052604160045260246000fd5b60405190808252806020026020018201604052801561062b57816020015b6106186130f2565b8152602001906001900390816106105790505b50905060005b60088054905081101561082b576000600460006008848154811061067e577f4e487b7100000000000000000000000000000000000000000000000000000000600052603260045260246000fd5b90600052602060002001548152602001908152602001600020604051806060016040529081600082015481526020016001820180546106bc90614355565b80601f01602080910402602001604051908101604052809291908181526020018280546106e890614355565b80156107355780601f1061070a57610100808354040283529160200191610735565b820191906000526020600020905b81548152906001019060200180831161071857829003601f168201915b5050505050815260200160028201805461074e90614355565b80601f016020809104026020016040519081016040528092919081815260200182805461077a90614355565b80156107c75780601f1061079c576101008083540402835291602001916107c7565b820191906000526020600020905b8154815290600101906020018083116107aa57829003601f168201915b50505050508152505090508083838151811061080c577f4e487b7100000000000000000000000000000000000000000000000000000000600052603260045260246000fd5b602002602001018190525050808061082390614387565b915050610631565b508091505090565b600047905090565b60008060009054906101000a900473ffffffffffffffffffffffffffffffffffffffff1673ffffffffffffffffffffffffffffffffffffffff163373ffffffffffffffffffffffffffffffffffffffff161461089657600080fd5b600082116108d9576040517f08c379a00000000000000000000000000000000000000000000000000000000081526004016108d090613fd0565b60405180910390fd5b6108e16128c6565b90506000604051806080016040528088888080601f016020809104026020016040519081016040528093929190818152602001838380828437600081840152601f19601f82011690508083019250505050505050815260200183815260200186868080601f016020809104026020016040519081016040528093929190818152602001838380828437600081840152601f19601f820116905080830192505050505050508152602001848152509050806003600084815260200190815260200160002060008201518160000190805190602001906109c0929190613113565b506020820151816001015560408201518160020190805190602001906109e7929190613113565b506060820151816003015590505060078290806001815401808255809150506001900390600052602060002001600090919091909150555095945050505050565b606060008054906101000a900473ffffffffffffffffffffffffffffffffffffffff1673ffffffffffffffffffffffffffffffffffffffff163373ffffffffffffffffffffffffffffffffffffffff1614610a8257600080fd5b600060098054905067ffffffffffffffff811115610ac9577f4e487b7100000000000000000000000000000000000000000000000000000000600052604160045260246000fd5b604051908082528060200260200182016040528015610b0257816020015b610aef613199565b815260200190600190039081610ae75790505b50905060005b600980549050811015610cf55760006002600060098481548110610b55577f4e487b7100000000000000000000000000000000000000000000000000000000600052603260045260246000fd5b906000526020600020015481526020019081526020016000206040518060c001604052908160008201548152602001600182018054610b9390614355565b80601f0160208091040260200160405190810160405280929190818152602001828054610bbf90614355565b8015610c0c5780601f10610be157610100808354040283529160200191610c0c565b820191906000526020600020905b815481529060010190602001808311610bef57829003601f168201915b505050505081526020016002820160009054906101000a900473ffffffffffffffffffffffffffffffffffffffff1673ffffffffffffffffffffffffffffffffffffffff1673ffffffffffffffffffffffffffffffffffffffff16815260200160038201548152602001600482015481526020016005820160009054906101000a900460ff161515151581525050905080838381518110610cd6577f4e487b7100000000000000000000000000000000000000000000000000000000600052603260045260246000fd5b6020026020010181905250508080610ced90614387565b915050610b08565b508091505090565b60008060009054906101000a900473ffffffffffffffffffffffffffffffffffffffff1673ffffffffffffffffffffffffffffffffffffffff163373ffffffffffffffffffffffffffffffffffffffff1614610d5857600080fd5b610d606128e4565b90506000604051806060016040528083815260200187878080601f016020809104026020016040519081016040528093929190818152602001838380828437600081840152601f19601f82011690508083019250505050505050815260200185858080601f016020809104026020016040519081016040528093929190818152602001838380828437600081840152601f19601f8201169050808301925050505050505081525090508060046000848152602001908152602001600020600082015181600001556020820151816001019080519060200190610e43929190613113565b506040820151816002019080519060200190610e60929190613113565b50905050600882908060018154018082558091505060019003906000526020600020016000909190919091505550949350505050565b60018054610ea390614355565b80601f0160208091040260200160405190810160405280929190818152602001828054610ecf90614355565b8015610f1c5780601f10610ef157610100808354040283529160200191610f1c565b820191906000526020600020905b815481529060010190602001808311610eff57829003601f168201915b505050505081565b6060600060078054905067ffffffffffffffff811115610f6d577f4e487b7100000000000000000000000000000000000000000000000000000000600052604160045260246000fd5b604051908082528060200260200182016040528015610fa657816020015b610f936131e7565b815260200190600190039081610f8b5790505b50905060005b6007805490508110156111b05760006003600060078481548110610ff9577f4e487b7100000000000000000000000000000000000000000000000000000000600052603260045260246000fd5b9060005260206000200154815260200190815260200160002060405180608001604052908160008201805461102d90614355565b80601f016020809104026020016040519081016040528092919081815260200182805461105990614355565b80156110a65780601f1061107b576101008083540402835291602001916110a6565b820191906000526020600020905b81548152906001019060200180831161108957829003601f168201915b50505050508152602001600182015481526020016002820180546110c990614355565b80601f01602080910402602001604051908101604052809291908181526020018280546110f590614355565b80156111425780601f1061111757610100808354040283529160200191611142565b820191906000526020600020905b81548152906001019060200180831161112557829003601f168201915b50505050508152602001600382015481525050905080838381518110611191577f4e487b7100000000000000000000000000000000000000000000000000000000600052603260045260246000fd5b60200260200101819052505080806111a890614387565b915050610fac565b508091505090565b60036020528060005260406000206000915090508060000180546111db90614355565b80601f016020809104026020016040519081016040528092919081815260200182805461120790614355565b80156112545780601f1061122957610100808354040283529160200191611254565b820191906000526020600020905b81548152906001019060200180831161123757829003601f168201915b50505050509080600101549080600201805461126f90614355565b80601f016020809104026020016040519081016040528092919081815260200182805461129b90614355565b80156112e85780601f106112bd576101008083540402835291602001916112e8565b820191906000526020600020905b8154815290600101906020018083116112cb57829003601f168201915b5050505050908060030154905084565b6008818154811061130857600080fd5b906000526020600020016000915090505481565b606060008054906101000a900473ffffffffffffffffffffffffffffffffffffffff1673ffffffffffffffffffffffffffffffffffffffff163373ffffffffffffffffffffffffffffffffffffffff161461137657600080fd5b6000600a8054905067ffffffffffffffff8111156113bd577f4e487b7100000000000000000000000000000000000000000000000000000000600052604160045260246000fd5b6040519080825280602002602001820160405280156113f657816020015b6113e361320f565b8152602001906001900390816113db5790505b50905060005b600a8054905081101561154d57600060056000600a8481548110611449577f4e487b7100000000000000000000000000000000000000000000000000000000600052603260045260246000fd5b90600052602060002001548152602001908152602001600020604051806080016040529081600082015481526020016001820160009054906101000a900473ffffffffffffffffffffffffffffffffffffffff1673ffffffffffffffffffffffffffffffffffffffff1673ffffffffffffffffffffffffffffffffffffffff168152602001600282015481526020016003820160009054906101000a900460ff16151515158152505090508083838151811061152e577f4e487b7100000000000000000000000000000000000000000000000000000000600052603260045260246000fd5b602002602001018190525050808061154590614387565b9150506113fc565b508091505090565b61155d61320f565b60008054906101000a900473ffffffffffffffffffffffffffffffffffffffff1673ffffffffffffffffffffffffffffffffffffffff163373ffffffffffffffffffffffffffffffffffffffff16146115b557600080fd5b60056000838152602001908152602001600020604051806080016040529081600082015481526020016001820160009054906101000a900473ffffffffffffffffffffffffffffffffffffffff1673ffffffffffffffffffffffffffffffffffffffff1673ffffffffffffffffffffffffffffffffffffffff168152602001600282015481526020016003820160009054906101000a900460ff1615151515815250509050919050565b60008060009054906101000a900473ffffffffffffffffffffffffffffffffffffffff1673ffffffffffffffffffffffffffffffffffffffff163373ffffffffffffffffffffffffffffffffffffffff16146116ba57600080fd5b6000600660008673ffffffffffffffffffffffffffffffffffffffff1673ffffffffffffffffffffffffffffffffffffffff1681526020019081526020016000206040518060800160405290816000820160009054906101000a900473ffffffffffffffffffffffffffffffffffffffff1673ffffffffffffffffffffffffffffffffffffffff1673ffffffffffffffffffffffffffffffffffffffff16815260200160018201805461176c90614355565b80601f016020809104026020016040519081016040528092919081815260200182805461179890614355565b80156117e55780601f106117ba576101008083540402835291602001916117e5565b820191906000526020600020905b8154815290600101906020018083116117c857829003601f168201915b505050505081526020016002820180548060200260200160405190810160405280929190818152602001828054801561183d57602002820191906000526020600020905b815481526020019060010190808311611829575b505050505081526020016003820180548060200260200160405190810160405280929190818152602001828054801561189557602002820191906000526020600020905b815481526020019060010190808311611881575b50505050508152505090506000816020015151146118e8576040517f08c379a00000000000000000000000000000000000000000000000000000000081526004016118df90613fb0565b60405180910390fd5b606080600060405180608001604052808973ffffffffffffffffffffffffffffffffffffffff16815260200188888080601f016020809104026020016040519081016040528093929190818152602001838380828437600081840152601f19601f820116905080830192505050505050508152602001848152602001838152509050600b889080600181540180825580915050600190039060005260206000200160009091909190916101000a81548173ffffffffffffffffffffffffffffffffffffffff021916908373ffffffffffffffffffffffffffffffffffffffff16021790555080600660008a73ffffffffffffffffffffffffffffffffffffffff1673ffffffffffffffffffffffffffffffffffffffff16815260200190815260200160002060008201518160000160006101000a81548173ffffffffffffffffffffffffffffffffffffffff021916908373ffffffffffffffffffffffffffffffffffffffff1602179055506020820151816001019080519060200190611a70929190613113565b506040820151816002019080519060200190611a8d92919061324f565b506060820151816003019080519060200190611aaa92919061324f565b5090505060019450505050509392505050565b60078181548110611acd57600080fd5b906000526020600020016000915090505481565b606060008054906101000a900473ffffffffffffffffffffffffffffffffffffffff1673ffffffffffffffffffffffffffffffffffffffff163373ffffffffffffffffffffffffffffffffffffffff1614611b3b57600080fd5b600b805480602002602001604051908101604052809291908181526020018280548015611bbd57602002820191906000526020600020905b8160009054906101000a900473ffffffffffffffffffffffffffffffffffffffff1673ffffffffffffffffffffffffffffffffffffffff1681526020019060010190808311611b73575b5050505050905090565b60008054906101000a900473ffffffffffffffffffffffffffffffffffffffff1681565b60008054906101000a900473ffffffffffffffffffffffffffffffffffffffff1673ffffffffffffffffffffffffffffffffffffffff163373ffffffffffffffffffffffffffffffffffffffff1614611c4357600080fd5b6000611c4d612902565b90506000600460008681526020019081526020016000206000015411611ca8576040517f08c379a0000000000000000000000000000000000000000000000000000000008152600401611c9f90613ff0565b60405180910390fd5b611cb28484612920565b15611cf2576040517f08c379a0000000000000000000000000000000000000000000000000000000008152600401611ce990614050565b60405180910390fd5b600060405180608001604052808381526020018573ffffffffffffffffffffffffffffffffffffffff168152602001868152602001841515815250905080600560008481526020019081526020016000206000820151816000015560208201518160010160006101000a81548173ffffffffffffffffffffffffffffffffffffffff021916908373ffffffffffffffffffffffffffffffffffffffff1602179055506040820151816002015560608201518160030160006101000a81548160ff021916908315150217905550905050600660008573ffffffffffffffffffffffffffffffffffffffff1673ffffffffffffffffffffffffffffffffffffffff168152602001908152602001600020600201829080600181540180825580915050600190039060005260206000200160009091909190915055600a8290806001815401808255809150506001900390600052602060002001600090919091909150555050505050565b6004602052806000526040600020600091509050806000015490806001018054611e8390614355565b80601f0160208091040260200160405190810160405280929190818152602001828054611eaf90614355565b8015611efc5780601f10611ed157610100808354040283529160200191611efc565b820191906000526020600020905b815481529060010190602001808311611edf57829003601f168201915b505050505090806002018054611f1190614355565b80601f0160208091040260200160405190810160405280929190818152602001828054611f3d90614355565b8015611f8a5780601f10611f5f57610100808354040283529160200191611f8a565b820191906000526020600020905b815481529060010190602001808311611f6d57829003601f168201915b5050505050905083565b6000670de0b6b3a76400003414611fe0576040517f08c379a0000000000000000000000000000000000000000000000000000000008152600401611fd790614030565b60405180910390fd5b60003390506000611ff18285612c46565b905080612033576040517f08c379a000000000000000000000000000000000000000000000000000000000815260040161202a90614010565b60405180910390fd5b6000600660008473ffffffffffffffffffffffffffffffffffffffff1673ffffffffffffffffffffffffffffffffffffffff168152602001908152602001600020600101805461208290614355565b80601f01602080910402602001604051908101604052809291908181526020018280546120ae90614355565b80156120fb5780601f106120d0576101008083540402835291602001916120fb565b820191906000526020600020905b8154815290600101906020018083116120de57829003601f168201915b50505050509050600085905060004290506121146130d4565b955060006040518060c001604052808881526020018581526020018773ffffffffffffffffffffffffffffffffffffffff168152602001848152602001838152602001600115158152509050806002600089815260200190815260200160002060008201518160000155602082015181600101908051906020019061219a929190613113565b5060408201518160020160006101000a81548173ffffffffffffffffffffffffffffffffffffffff021916908373ffffffffffffffffffffffffffffffffffffffff160217905550606082015181600301556080820151816004015560a08201518160050160006101000a81548160ff0219169083151502179055509050506009879080600181540180825580915050600190039060005260206000200160009091909190915055600660008773ffffffffffffffffffffffffffffffffffffffff1673ffffffffffffffffffffffffffffffffffffffff168152602001908152602001600020600301879080600181540180825580915050600190039060005260206000200160009091909190915055505050505050919050565b60066020528060005260406000206000915090508060000160009054906101000a900473ffffffffffffffffffffffffffffffffffffffff16908060010180546122ff90614355565b80601f016020809104026020016040519081016040528092919081815260200182805461232b90614355565b80156123785780601f1061234d57610100808354040283529160200191612378565b820191906000526020600020905b81548152906001019060200180831161235b57829003601f168201915b5050505050905082565b61238a613199565b6000600260008481526020019081526020016000206040518060c0016040529081600082015481526020016001820180546123c490614355565b80601f01602080910402602001604051908101604052809291908181526020018280546123f090614355565b801561243d5780601f106124125761010080835404028352916020019161243d565b820191906000526020600020905b81548152906001019060200180831161242057829003601f168201915b505050505081526020016002820160009054906101000a900473ffffffffffffffffffffffffffffffffffffffff1673ffffffffffffffffffffffffffffffffffffffff1673ffffffffffffffffffffffffffffffffffffffff16815260200160038201548152602001600482015481526020016005820160009054906101000a900460ff161515151581525050905080915050919050565b606060008054906101000a900473ffffffffffffffffffffffffffffffffffffffff1673ffffffffffffffffffffffffffffffffffffffff163373ffffffffffffffffffffffffffffffffffffffff161461253057600080fd5b6000600b8054905067ffffffffffffffff811115612577577f4e487b7100000000000000000000000000000000000000000000000000000000600052604160045260246000fd5b6040519080825280602002602001820160405280156125b057816020015b61259d61329c565b8152602001906001900390816125955790505b50905060005b600b8054905081101561286657600060066000600b8481548110612603577f4e487b7100000000000000000000000000000000000000000000000000000000600052603260045260246000fd5b9060005260206000200160009054906101000a900473ffffffffffffffffffffffffffffffffffffffff1673ffffffffffffffffffffffffffffffffffffffff1673ffffffffffffffffffffffffffffffffffffffff1681526020019081526020016000206040518060800160405290816000820160009054906101000a900473ffffffffffffffffffffffffffffffffffffffff1673ffffffffffffffffffffffffffffffffffffffff1673ffffffffffffffffffffffffffffffffffffffff1681526020016001820180546126d990614355565b80601f016020809104026020016040519081016040528092919081815260200182805461270590614355565b80156127525780601f1061272757610100808354040283529160200191612752565b820191906000526020600020905b81548152906001019060200180831161273557829003601f168201915b50505050508152602001600282018054806020026020016040519081016040528092919081815260200182805480156127aa57602002820191906000526020600020905b815481526020019060010190808311612796575b505050505081526020016003820180548060200260200160405190810160405280929190818152602001828054801561280257602002820191906000526020600020905b8154815260200190600101908083116127ee575b505050505081525050905080838381518110612847577f4e487b7100000000000000000000000000000000000000000000000000000000600052603260045260246000fd5b602002602001018190525050808061285e90614387565b9150506125b6565b508091505090565b606060088054806020026020016040519081016040528092919081815260200182805480156128bc57602002820191906000526020600020905b8154815260200190600101908083116128a8575b5050505050905090565b6000600d60008154809291906128db90614387565b91905055905090565b6000600e60008154809291906128f990614387565b91905055905090565b6000600f600081548092919061291790614387565b91905055905090565b600080600660008473ffffffffffffffffffffffffffffffffffffffff1673ffffffffffffffffffffffffffffffffffffffff1681526020019081526020016000206040518060800160405290816000820160009054906101000a900473ffffffffffffffffffffffffffffffffffffffff1673ffffffffffffffffffffffffffffffffffffffff1673ffffffffffffffffffffffffffffffffffffffff1681526020016001820180546129d390614355565b80601f01602080910402602001604051908101604052809291908181526020018280546129ff90614355565b8015612a4c5780601f10612a2157610100808354040283529160200191612a4c565b820191906000526020600020905b815481529060010190602001808311612a2f57829003601f168201915b5050505050815260200160028201805480602002602001604051908101604052809291908181526020018280548015612aa457602002820191906000526020600020905b815481526020019060010190808311612a90575b5050505050815260200160038201805480602002602001604051908101604052809291908181526020018280548015612afc57602002820191906000526020600020905b815481526020019060010190808311612ae8575b50505050508152505090506000915060005b816040015151811015612c3e57600082604001518281518110612b5a577f4e487b7100000000000000000000000000000000000000000000000000000000600052603260045260246000fd5b60200260200101519050600060056000838152602001908152602001600020604051806080016040529081600082015481526020016001820160009054906101000a900473ffffffffffffffffffffffffffffffffffffffff1673ffffffffffffffffffffffffffffffffffffffff1673ffffffffffffffffffffffffffffffffffffffff168152602001600282015481526020016003820160009054906101000a900460ff1615151515815250509050868160400151148015612c1f575080606001515b15612c2957600194505b50508080612c3690614387565b915050612b0e565b505092915050565b600080600660008573ffffffffffffffffffffffffffffffffffffffff1673ffffffffffffffffffffffffffffffffffffffff1681526020019081526020016000206040518060800160405290816000820160009054906101000a900473ffffffffffffffffffffffffffffffffffffffff1673ffffffffffffffffffffffffffffffffffffffff1673ffffffffffffffffffffffffffffffffffffffff168152602001600182018054612cf990614355565b80601f0160208091040260200160405190810160405280929190818152602001828054612d2590614355565b8015612d725780601f10612d4757610100808354040283529160200191612d72565b820191906000526020600020905b815481529060010190602001808311612d5557829003601f168201915b5050505050815260200160028201805480602002602001604051908101604052809291908181526020018280548015612dca57602002820191906000526020600020905b815481526020019060010190808311612db6575b5050505050815260200160038201805480602002602001604051908101604052809291908181526020018280548015612e2257602002820191906000526020600020905b815481526020019060010190808311612e0e575b5050505050815250509050600060036000858152602001908152602001600020604051806080016040529081600082018054612e5d90614355565b80601f0160208091040260200160405190810160405280929190818152602001828054612e8990614355565b8015612ed65780601f10612eab57610100808354040283529160200191612ed6565b820191906000526020600020905b815481529060010190602001808311612eb957829003601f168201915b5050505050815260200160018201548152602001600282018054612ef990614355565b80601f0160208091040260200160405190810160405280929190818152602001828054612f2590614355565b8015612f725780601f10612f4757610100808354040283529160200191612f72565b820191906000526020600020905b815481529060010190602001808311612f5557829003601f168201915b5050505050815260200160038201548152505090506000805b8360400151518110156130b657600084604001518281518110612fd7577f4e487b7100000000000000000000000000000000000000000000000000000000600052603260045260246000fd5b60200260200101519050600060056000838152602001908152602001600020604051806080016040529081600082015481526020016001820160009054906101000a900473ffffffffffffffffffffffffffffffffffffffff1673ffffffffffffffffffffffffffffffffffffffff1673ffffffffffffffffffffffffffffffffffffffff168152602001600282015481526020016003820160009054906101000a900460ff16151515158152505090508060600151156130a157838061309d90614387565b9450505b505080806130ae90614387565b915050612f8b565b5060009350816060015181106130cb57600193505b50505092915050565b6000600c60008154809291906130e990614387565b91905055905090565b60405180606001604052806000815260200160608152602001606081525090565b82805461311f90614355565b90600052602060002090601f0160209004810192826131415760008555613188565b82601f1061315a57805160ff1916838001178555613188565b82800160010185558215613188579182015b8281111561318757825182559160200191906001019061316c565b5b50905061319591906132da565b5090565b6040518060c001604052806000815260200160608152602001600073ffffffffffffffffffffffffffffffffffffffff16815260200160008152602001600081526020016000151581525090565b6040518060800160405280606081526020016000815260200160608152602001600081525090565b604051806080016040528060008152602001600073ffffffffffffffffffffffffffffffffffffffff168152602001600081526020016000151581525090565b82805482825590600052602060002090810192821561328b579160200282015b8281111561328a57825182559160200191906001019061326f565b5b50905061329891906132da565b5090565b6040518060800160405280600073ffffffffffffffffffffffffffffffffffffffff1681526020016060815260200160608152602001606081525090565b5b808211156132f35760008160009055506001016132db565b5090565b6000813590506133068161463f565b92915050565b60008135905061331b81614656565b92915050565b60008083601f84011261333357600080fd5b8235905067ffffffffffffffff81111561334c57600080fd5b60208301915083600182028301111561336457600080fd5b9250929050565b60008135905061337a8161466d565b92915050565b60006020828403121561339257600080fd5b60006133a0848285016132f7565b91505092915050565b6000806000604084860312156133be57600080fd5b60006133cc868287016132f7565b935050602084013567ffffffffffffffff8111156133e957600080fd5b6133f586828701613321565b92509250509250925092565b6000806000806040858703121561341757600080fd5b600085013567ffffffffffffffff81111561343157600080fd5b61343d87828801613321565b9450945050602085013567ffffffffffffffff81111561345c57600080fd5b61346887828801613321565b925092505092959194509250565b60008060008060006060868803121561348e57600080fd5b600086013567ffffffffffffffff8111156134a857600080fd5b6134b488828901613321565b9550955050602086013567ffffffffffffffff8111156134d357600080fd5b6134df88828901613321565b935093505060406134f28882890161336b565b9150509295509295909350565b60006020828403121561351157600080fd5b600061351f8482850161336b565b91505092915050565b60008060006060848603121561353d57600080fd5b600061354b8682870161336b565b935050602061355c868287016132f7565b925050604061356d8682870161330c565b9150509250925092565b6000613583838361360f565b60208301905092915050565b600061359b8383613adb565b905092915050565b60006135af8383613b45565b905092915050565b60006135c38383613c57565b905092915050565b60006135d78383613cae565b60808301905092915050565b60006135ef8383613d58565b905092915050565b60006136038383613dc9565b60208301905092915050565b613618816142da565b82525050565b613627816142da565b82525050565b60006136388261417d565b6136428185614230565b935061364d8361410d565b8060005b8381101561367e5781516136658882613577565b9750613670836141d5565b925050600181019050613651565b5085935050505092915050565b600061369682614188565b6136a08185614241565b9350836020820285016136b28561411d565b8060005b858110156136ee57848403895281516136cf858261358f565b94506136da836141e2565b925060208a019950506001810190506136b6565b50829750879550505050505092915050565b600061370b82614193565b6137158185614252565b9350836020820285016137278561412d565b8060005b85811015613763578484038952815161374485826135a3565b945061374f836141ef565b925060208a0199505060018101905061372b565b50829750879550505050505092915050565b60006137808261419e565b61378a8185614263565b93508360208202850161379c8561413d565b8060005b858110156137d857848403895281516137b985826135b7565b94506137c4836141fc565b925060208a019950506001810190506137a0565b50829750879550505050505092915050565b60006137f5826141a9565b6137ff8185614274565b935061380a8361414d565b8060005b8381101561383b57815161382288826135cb565b975061382d83614209565b92505060018101905061380e565b5085935050505092915050565b6000613853826141b4565b61385d8185614285565b93508360208202850161386f8561415d565b8060005b858110156138ab578484038952815161388c85826135e3565b945061389783614216565b925060208a01995050600181019050613873565b50829750879550505050505092915050565b60006138c8826141bf565b6138d28185614296565b93506138dd8361416d565b8060005b8381101561390e5781516138f588826135f7565b975061390083614223565b9250506001810190506138e1565b5085935050505092915050565b6000613926826141bf565b61393081856142a7565b935061393b8361416d565b8060005b8381101561396c57815161395388826135f7565b975061395e83614223565b92505060018101905061393f565b5085935050505092915050565b613982816142ec565b82525050565b613991816142ec565b82525050565b60006139a2826141ca565b6139ac81856142b8565b93506139bc818560208601614322565b6139c58161442e565b840191505092915050565b60006139db826141ca565b6139e581856142c9565b93506139f5818560208601614322565b6139fe8161442e565b840191505092915050565b6000613a166030836142c9565b9150613a218261443f565b604082019050919050565b6000613a39602f836142c9565b9150613a448261448e565b604082019050919050565b6000613a5c601c836142c9565b9150613a67826144dd565b602082019050919050565b6000613a7f6049836142c9565b9150613a8a82614506565b606082019050919050565b6000613aa26049836142c9565b9150613aad8261457b565b606082019050919050565b6000613ac5602c836142c9565b9150613ad0826145f0565b604082019050919050565b60006080830160008301518482036000860152613af88282613997565b9150506020830151613b0d6020860182613dc9565b5060408301518482036040860152613b258282613997565b9150506060830151613b3a6060860182613dc9565b508091505092915050565b600060c083016000830151613b5d6000860182613dc9565b5060208301518482036020860152613b758282613997565b9150506040830151613b8a604086018261360f565b506060830151613b9d6060860182613dc9565b506080830151613bb06080860182613dc9565b5060a0830151613bc360a0860182613979565b508091505092915050565b600060c083016000830151613be66000860182613dc9565b5060208301518482036020860152613bfe8282613997565b9150506040830151613c13604086018261360f565b506060830151613c266060860182613dc9565b506080830151613c396080860182613dc9565b5060a0830151613c4c60a0860182613979565b508091505092915050565b6000606083016000830151613c6f6000860182613dc9565b5060208301518482036020860152613c878282613997565b91505060408301518482036040860152613ca18282613997565b9150508091505092915050565b608082016000820151613cc46000850182613dc9565b506020820151613cd7602085018261360f565b506040820151613cea6040850182613dc9565b506060820151613cfd6060850182613979565b50505050565b608082016000820151613d196000850182613dc9565b506020820151613d2c602085018261360f565b506040820151613d3f6040850182613dc9565b506060820151613d526060850182613979565b50505050565b6000608083016000830151613d70600086018261360f565b5060208301518482036020860152613d888282613997565b91505060408301518482036040860152613da282826138bd565b91505060608301518482036060860152613dbc82826138bd565b9150508091505092915050565b613dd281614318565b82525050565b613de181614318565b82525050565b6000602082019050613dfc600083018461361e565b92915050565b6000604082019050613e17600083018561361e565b8181036020830152613e2981846139d0565b90509392505050565b60006020820190508181036000830152613e4c818461362d565b905092915050565b60006020820190508181036000830152613e6e818461368b565b905092915050565b60006020820190508181036000830152613e908184613700565b905092915050565b60006020820190508181036000830152613eb28184613775565b905092915050565b60006020820190508181036000830152613ed481846137ea565b905092915050565b60006020820190508181036000830152613ef68184613848565b905092915050565b60006020820190508181036000830152613f18818461391b565b905092915050565b6000602082019050613f356000830184613988565b92915050565b60006020820190508181036000830152613f5581846139d0565b905092915050565b60006080820190508181036000830152613f7781876139d0565b9050613f866020830186613dd8565b8181036040830152613f9881856139d0565b9050613fa76060830184613dd8565b95945050505050565b60006020820190508181036000830152613fc981613a09565b9050919050565b60006020820190508181036000830152613fe981613a2c565b9050919050565b6000602082019050818103600083015261400981613a4f565b9050919050565b6000602082019050818103600083015261402981613a72565b9050919050565b6000602082019050818103600083015261404981613a95565b9050919050565b6000602082019050818103600083015261406981613ab8565b9050919050565b6000602082019050818103600083015261408a8184613bce565b905092915050565b60006080820190506140a76000830184613d03565b92915050565b60006020820190506140c26000830184613dd8565b92915050565b60006060820190506140dd6000830186613dd8565b81810360208301526140ef81856139d0565b9050818103604083015261410381846139d0565b9050949350505050565b6000819050602082019050919050565b6000819050602082019050919050565b6000819050602082019050919050565b6000819050602082019050919050565b6000819050602082019050919050565b6000819050602082019050919050565b6000819050602082019050919050565b600081519050919050565b600081519050919050565b600081519050919050565b600081519050919050565b600081519050919050565b600081519050919050565b600081519050919050565b600081519050919050565b6000602082019050919050565b6000602082019050919050565b6000602082019050919050565b6000602082019050919050565b6000602082019050919050565b6000602082019050919050565b6000602082019050919050565b600082825260208201905092915050565b600082825260208201905092915050565b600082825260208201905092915050565b600082825260208201905092915050565b600082825260208201905092915050565b600082825260208201905092915050565b600082825260208201905092915050565b600082825260208201905092915050565b600082825260208201905092915050565b600082825260208201905092915050565b60006142e5826142f8565b9050919050565b60008115159050919050565b600073ffffffffffffffffffffffffffffffffffffffff82169050919050565b6000819050919050565b60005b83811015614340578082015181840152602081019050614325565b8381111561434f576000848401525b50505050565b6000600282049050600182168061436d57607f821691505b60208210811415614381576143806143ff565b5b50919050565b600061439282614318565b91507fffffffffffffffffffffffffffffffffffffffffffffffffffffffffffffffff8214156143c5576143c46143d0565b5b600182019050919050565b7f4e487b7100000000000000000000000000000000000000000000000000000000600052601160045260246000fd5b7f4e487b7100000000000000000000000000000000000000000000000000000000600052602260045260246000fd5b6000601f19601f8301169050919050565b7f546869732073747564656e7420616464726573732068617320616c726561647960008201527f206265656e207265676973746572656400000000000000000000000000000000602082015250565b7f41206365727469666963617465206d7573742072657175697265206174206c6560008201527f617374206f6e6520636f757273652e0000000000000000000000000000000000602082015250565b7f5468697320636f75727365496420646f65736e27742065786973742e00000000600082015250565b7f596f752068617665206e6f74207375636365737366756c6c792070617373656460008201527f20656e6f75676820636f757273657320666f722074686973206365727469666960208201527f6361746520747970650000000000000000000000000000000000000000000000604082015250565b7f596f7520646964206e6f74207061792074686520636f727265637420616d6f7560008201527f6e7420666f7220796f75722063657274696669636174652069737375616e636560208201527f20726571756573742e0000000000000000000000000000000000000000000000604082015250565b7f546869732073747564656e742068617320616c7265616479207061737365642060008201527f7468697320636f757273652e0000000000000000000000000000000000000000602082015250565b614648816142da565b811461465357600080fd5b50565b61465f816142ec565b811461466a57600080fd5b50565b61467681614318565b811461468157600080fd5b5056fea2646970667358221220b01e43f1121ad057d39bd8ade5cae97ea3a1fa28cd335e2756d78f9c1f727cb564736f6c63430008040033",
  "immutableReferences": {},
  "source": "// SPDX-License-Identifier: GPL-3.0\n\n// pragma solidity ^0.7.0;\n// pragma experimental ABIEncoderV2;\npragma solidity ^0.8.0;\n// Using the new ABI coder which can return arrays of structs\n\ncontract CertificateIssuer {\n    address public owner;\n    string public issuerName;\n    mapping(uint => Certificate) private issued_certificates;\n    mapping(uint => CertificateType) public certificate_types;\n    mapping(uint => Course) public courses;\n    mapping(uint => Enrollment) private enrollments;\n    mapping(address => Student) public students;\n    \n    // need to track the ids for things somewhere, can't get keys from mappings\n    uint[] public certTypeIds;\n    uint[] public courseIds;\n    uint[] private certIds;\n    uint[] private enrollmentIds;\n    address[] private studentAddresses;\n\n    \n    uint private certCount = 1;\n    uint private certTypeCount = 1;\n    uint private courseCount = 1;\n    uint private enrollmentCount = 1;\n    \n    function getBalance() public view returns (uint) {\n        return address(this).balance;\n    }\n    \n    function getCertId() private returns (uint){\n        return certCount++;\n    }\n    \n    function getCertTypeId() private returns (uint){\n        return certTypeCount++;\n    }\n    \n    function getCourseId() private returns(uint){\n        return courseCount++;\n    }\n    \n    function getEnrollmentId() private returns(uint){\n        return enrollmentCount++;\n    }\n    \n    modifier onlyOwner() {\n        require(msg.sender == owner);\n        _;\n    }\n    \n    constructor(string memory _issuerName, string memory _certName, string memory _certDesc, uint _numCertCoursesRequired) {\n        // set up the first cert type - can't call public function?\n        uint certTypeId = getCertTypeId();\n        CertificateType memory certType = CertificateType(_certName, certTypeId, _certDesc, _numCertCoursesRequired);\n        certificate_types[certTypeId] = certType;\n        certTypeIds.push(certTypeId);\n        \n        owner = msg.sender;\n        issuerName = _issuerName;\n    }\n    \n    struct Certificate {\n        uint certificateId;\n        string studentName;\n        address studentAddress;\n        uint certificateTypeId;\n        uint issuedDate;\n        bool valid;\n        // Potentially, a mapping of courses applied to the cert\n    }\n    \n    struct CertificateType {\n        string certificateName;\n        uint certificateTypeId;\n        string certificateDescription;\n        uint numCoursesRequired;\n    }\n    \n    struct Course {\n        uint courseId;\n        string courseName;\n        string courseDescription;\n    }\n    \n    struct Enrollment {\n        uint enrollmentId;\n        address studentAddress;\n        uint courseId;\n        bool pass;\n    }\n    \n    struct Student {\n        address studentAddress;\n        string studentName;\n        uint[] enrollmentIds;\n        uint[] certificateIds;\n    }\n    \n    function requestCert(uint _certificateTypeId) external payable returns (uint certificateId)  {\n        require(msg.value == 1 ether, \"You did not pay the correct amount for your certificate issuance request.\");\n        \n        address studentAddress = msg.sender;\n        \n        bool validRequest = validateRequest(studentAddress, _certificateTypeId);\n        require(validRequest, \"You have not successfully passed enough courses for this certificate type\");\n        \n        string memory studentName = students[studentAddress].studentName;\n        uint certificateTypeId = _certificateTypeId;\n        uint issuedDate = block.timestamp;\n        certificateId = getCertId();\n        \n        Certificate memory cert = Certificate(certificateId, studentName, studentAddress, certificateTypeId, issuedDate, true);\n        \n        issued_certificates[certificateId] = cert;\n        certIds.push(certificateId);\n        students[studentAddress].certificateIds.push(certificateId);\n        \n        return certificateId;\n    }\n    \n    function validateRequest(address _studentAddress, uint _certTypeId) private view returns (bool valid){\n        Student memory student = students[_studentAddress];\n        CertificateType memory certType = certificate_types[_certTypeId];\n        uint numCoursesPassed = 0;\n        \n        for(uint i = 0; i < student.enrollmentIds.length; i++){\n            uint id = student.enrollmentIds[i];\n            Enrollment memory e = enrollments[id];\n            if(e.pass){\n                numCoursesPassed++;\n            }\n        }\n        valid = false;\n        if(numCoursesPassed >= certType.numCoursesRequired){\n            valid = true;\n        }\n        return valid;\n    }\n    \n    function getCert(uint id) public view returns (Certificate memory){\n        Certificate memory cert = issued_certificates[id];\n        return(cert);\n    }\n    \n    function addStudent(address _studentAddress, string calldata _studentName) public onlyOwner returns (bool success){\n        Student memory checkStudent = students[_studentAddress];\n        require(bytes(checkStudent.studentName).length == 0, \"This student address has already been registered\");\n        uint[] memory tempEIds;\n        uint[] memory tempCertIds;\n        Student memory tempStudent = Student(_studentAddress, _studentName, tempEIds, tempCertIds);\n        studentAddresses.push(_studentAddress);\n        students[_studentAddress] = tempStudent;\n        return true;\n    }\n    \n    function addCourse(string calldata _courseName, string calldata _courseDesc) public onlyOwner returns (uint courseId){\n        courseId = getCourseId();\n        Course memory tempCourse = Course(courseId, _courseName, _courseDesc);\n        courses[courseId] = tempCourse;\n        courseIds.push(courseId);\n        return courseId;\n    }\n    \n    function addEnrollment(uint _courseId, address _studentAddress, bool _pass) public onlyOwner{\n        uint enrollmentId = getEnrollmentId();\n        \n        require(courses[_courseId].courseId > 0, \"This courseId doesn't exist.\");\n        require(!studentEnrollmentAlreadyExists(_courseId, _studentAddress), \"This student has already passed this course.\");\n        \n        Enrollment memory tempEnrollment = Enrollment(enrollmentId, _studentAddress, _courseId, _pass);\n        enrollments[enrollmentId] = tempEnrollment;\n        students[_studentAddress].enrollmentIds.push(enrollmentId);\n        enrollmentIds.push(enrollmentId);\n    }\n    \n    function studentEnrollmentAlreadyExists(uint _courseId, address _studentAddress) private view returns (bool exists){\n        Student memory student = students[_studentAddress];\n        exists = false;\n        for(uint i = 0; i < student.enrollmentIds.length; i++){\n            uint id = student.enrollmentIds[i];\n            Enrollment memory e = enrollments[id];\n            if(e.courseId == _courseId && e.pass){\n                exists = true;\n            }\n        }\n        return exists;\n    }\n    \n    function addCertificateType(string calldata _certName, string calldata _certDesc, uint _numCoursesRequired) public onlyOwner returns (uint certTypeId){\n        require(_numCoursesRequired > 0, \"A certificate must require at least one course.\");\n        certTypeId = getCertTypeId();\n        CertificateType memory certType = CertificateType(_certName, certTypeId, _certDesc, _numCoursesRequired);\n        certificate_types[certTypeId] = certType;\n        certTypeIds.push(certTypeId);\n        return certTypeId;\n    }\n\n    function getAllStudentIds() public view onlyOwner returns (address [] memory){\n        return studentAddresses;\n    }\n\n    function getAllStudents() public view onlyOwner returns (Student [] memory){\n        Student[] memory studentArr = new Student[](studentAddresses.length);\n        for(uint i = 0; i < studentAddresses.length; i++){\n            Student memory s = students[studentAddresses[i]];\n            studentArr[i] = s;\n        }\n        return studentArr;\n    }\n\n    function getAllCertTypes() public view returns (CertificateType [] memory){\n        CertificateType[] memory certArr = new CertificateType[](certTypeIds.length);\n        for(uint i = 0; i < certTypeIds.length; i++){\n            CertificateType memory c = certificate_types[certTypeIds[i]];\n            certArr[i] = c;\n        }\n        return certArr;\n    }\n\n    function getAllCourses() public view returns (Course [] memory){\n        Course[] memory courseArr = new Course[](courseIds.length);\n        for(uint i = 0; i < courseIds.length; i++){\n            Course memory c = courses[courseIds[i]];\n            courseArr[i] = c;\n        }\n        return courseArr;\n    }\n\n    function getAllCourseIds() public view returns (uint [] memory){\n        return courseIds;\n    }\n\n    function getAllEnrollments() public view onlyOwner returns (Enrollment [] memory){\n        Enrollment[] memory enrollArr = new Enrollment[](enrollmentIds.length);\n        for(uint i= 0; i < enrollmentIds.length; i++){\n            Enrollment memory e = enrollments[enrollmentIds[i]];\n            enrollArr[i] = e;\n        }\n        return enrollArr;\n    }\n\n    function getEnrollment(uint enrollmentId) public view onlyOwner returns(Enrollment memory){\n        return enrollments[enrollmentId];\n    }\n\n    function getAllCertificates() public view onlyOwner returns(Certificate [] memory){\n        Certificate[] memory certArr = new Certificate[](certIds.length);\n        for(uint i=0; i < certIds.length; i++){\n            Certificate memory c = issued_certificates[certIds[i]];\n            certArr[i] = c;\n        }\n        return certArr;\n    }\n    \n}",
  "sourcePath": "/Users/colecrawford/GitHub/blockchain-certs/contracts/CertificateIssuer.sol",
  "compiler": {
    "name": "solc",
    "version": "0.8.4+commit.c7e474f2.Emscripten.clang"
  },
  "schemaVersion": "3.3.4",
  "updatedAt": "2021-04-29T16:54:44.451Z",
  "networkType": "ethereum",
  "devdoc": {
    "kind": "dev",
    "methods": {},
    "version": 1
  },
  "userdoc": {
    "kind": "user",
    "methods": {},
    "version": 1
  }
}