{
  "contractName": "CertificateIssuer",
  "abi": [
    {
      "inputs": [
        {
          "internalType": "string",
          "name": "_issuerName",
          "type": "string"
        },
        {
          "internalType": "string",
          "name": "_certName",
          "type": "string"
        },
        {
          "internalType": "string",
          "name": "_certDesc",
          "type": "string"
        },
        {
          "internalType": "uint256",
          "name": "_numCertCoursesRequired",
          "type": "uint256"
        }
      ],
      "stateMutability": "nonpayable",
      "type": "constructor"
    },
    {
      "inputs": [
        {
          "internalType": "uint256",
          "name": "",
          "type": "uint256"
        }
      ],
      "name": "certificate_types",
      "outputs": [
        {
          "internalType": "string",
          "name": "certificateName",
          "type": "string"
        },
        {
          "internalType": "uint256",
          "name": "certificateTypeId",
          "type": "uint256"
        },
        {
          "internalType": "string",
          "name": "certificateDescription",
          "type": "string"
        },
        {
          "internalType": "uint256",
          "name": "numCoursesRequired",
          "type": "uint256"
        }
      ],
      "stateMutability": "view",
      "type": "function",
      "constant": true
    },
    {
      "inputs": [
        {
          "internalType": "uint256",
          "name": "",
          "type": "uint256"
        }
      ],
      "name": "courses",
      "outputs": [
        {
          "internalType": "uint256",
          "name": "courseId",
          "type": "uint256"
        },
        {
          "internalType": "string",
          "name": "courseName",
          "type": "string"
        },
        {
          "internalType": "string",
          "name": "courseDescription",
          "type": "string"
        }
      ],
      "stateMutability": "view",
      "type": "function",
      "constant": true
    },
    {
      "inputs": [
        {
          "internalType": "uint256",
          "name": "",
          "type": "uint256"
        }
      ],
      "name": "enrollments",
      "outputs": [
        {
          "internalType": "uint256",
          "name": "enrollmentId",
          "type": "uint256"
        },
        {
          "internalType": "address",
          "name": "studentAddress",
          "type": "address"
        },
        {
          "internalType": "uint256",
          "name": "courseId",
          "type": "uint256"
        },
        {
          "internalType": "bool",
          "name": "pass",
          "type": "bool"
        }
      ],
      "stateMutability": "view",
      "type": "function",
      "constant": true
    },
    {
      "inputs": [],
      "name": "issuerName",
      "outputs": [
        {
          "internalType": "string",
          "name": "",
          "type": "string"
        }
      ],
      "stateMutability": "view",
      "type": "function",
      "constant": true
    },
    {
      "inputs": [],
      "name": "owner",
      "outputs": [
        {
          "internalType": "address",
          "name": "",
          "type": "address"
        }
      ],
      "stateMutability": "view",
      "type": "function",
      "constant": true
    },
    {
      "inputs": [
        {
          "internalType": "address",
          "name": "",
          "type": "address"
        }
      ],
      "name": "students",
      "outputs": [
        {
          "internalType": "address",
          "name": "studentAddress",
          "type": "address"
        },
        {
          "internalType": "string",
          "name": "studentName",
          "type": "string"
        }
      ],
      "stateMutability": "view",
      "type": "function",
      "constant": true
    },
    {
      "inputs": [],
      "name": "getBalance",
      "outputs": [
        {
          "internalType": "uint256",
          "name": "",
          "type": "uint256"
        }
      ],
      "stateMutability": "view",
      "type": "function",
      "constant": true
    },
    {
      "inputs": [
        {
          "internalType": "uint256",
          "name": "_certificateTypeId",
          "type": "uint256"
        }
      ],
      "name": "requestCert",
      "outputs": [
        {
          "internalType": "uint256",
          "name": "certificateId",
          "type": "uint256"
        }
      ],
      "stateMutability": "payable",
      "type": "function",
      "payable": true
    },
    {
      "inputs": [
        {
          "internalType": "uint256",
          "name": "id",
          "type": "uint256"
        }
      ],
      "name": "getCert",
      "outputs": [
        {
          "internalType": "uint256",
          "name": "certificateId",
          "type": "uint256"
        },
        {
          "internalType": "string",
          "name": "studentName",
          "type": "string"
        },
        {
          "internalType": "address",
          "name": "studentAddress",
          "type": "address"
        },
        {
          "internalType": "uint256",
          "name": "certificateTypeId",
          "type": "uint256"
        },
        {
          "internalType": "uint256",
          "name": "issuedDate",
          "type": "uint256"
        },
        {
          "internalType": "bool",
          "name": "valid",
          "type": "bool"
        }
      ],
      "stateMutability": "view",
      "type": "function",
      "constant": true
    },
    {
      "inputs": [
        {
          "internalType": "address",
          "name": "_studentAddress",
          "type": "address"
        },
        {
          "internalType": "string",
          "name": "_studentName",
          "type": "string"
        }
      ],
      "name": "addStudent",
      "outputs": [],
      "stateMutability": "nonpayable",
      "type": "function"
    },
    {
      "inputs": [
        {
          "internalType": "string",
          "name": "_courseName",
          "type": "string"
        },
        {
          "internalType": "string",
          "name": "_courseDesc",
          "type": "string"
        }
      ],
      "name": "addCourse",
      "outputs": [],
      "stateMutability": "nonpayable",
      "type": "function"
    },
    {
      "inputs": [
        {
          "internalType": "uint256",
          "name": "_courseId",
          "type": "uint256"
        },
        {
          "internalType": "address",
          "name": "_studentAddress",
          "type": "address"
        },
        {
          "internalType": "bool",
          "name": "_pass",
          "type": "bool"
        }
      ],
      "name": "addEnrollment",
      "outputs": [],
      "stateMutability": "nonpayable",
      "type": "function"
    },
    {
      "inputs": [
        {
          "internalType": "string",
          "name": "_certName",
          "type": "string"
        },
        {
          "internalType": "string",
          "name": "_certDesc",
          "type": "string"
        },
        {
          "internalType": "uint256",
          "name": "_numCoursesRequired",
          "type": "uint256"
        }
      ],
      "name": "addCertificateType",
      "outputs": [],
      "stateMutability": "nonpayable",
      "type": "function"
    }
  ],
  "bytecode": "0x60806040526001600755600160085560016009556001600a553480156200002557600080fd5b506040516200290f3803806200290f833981810160405260808110156200004b57600080fd5b81019080805160405193929190846401000000008211156200006c57600080fd5b838201915060208201858111156200008357600080fd5b8251866001820283011164010000000082111715620000a157600080fd5b8083526020830192505050908051906020019080838360005b83811015620000d7578082015181840152602081019050620000ba565b50505050905090810190601f168015620001055780820380516001836020036101000a031916815260200191505b50604052602001805160405193929190846401000000008211156200012957600080fd5b838201915060208201858111156200014057600080fd5b82518660018202830111640100000000821117156200015e57600080fd5b8083526020830192505050908051906020019080838360005b838110156200019457808201518184015260208101905062000177565b50505050905090810190601f168015620001c25780820380516001836020036101000a031916815260200191505b5060405260200180516040519392919084640100000000821115620001e657600080fd5b83820191506020820185811115620001fd57600080fd5b82518660018202830111640100000000821117156200021b57600080fd5b8083526020830192505050908051906020019080838360005b838110156200025157808201518184015260208101905062000234565b50505050905090810190601f1680156200027f5780820380516001836020036101000a031916815260200191505b50604052602001805190602001909291905050506000620002a56200039a60201b60201c565b90506000604051806080016040528086815260200183815260200185815260200184815250905080600360008481526020019081526020016000206000820151816000019080519060200190620002fe929190620003b2565b5060208201518160010155604082015181600201908051906020019062000327929190620003b2565b5060608201518160030155905050336000806101000a81548173ffffffffffffffffffffffffffffffffffffffff021916908373ffffffffffffffffffffffffffffffffffffffff16021790555085600190805190602001906200038d929190620003b2565b5050505050505062000468565b60006008600081548092919060010191905055905090565b828054600181600116156101000203166002900490600052602060002090601f016020900481019282620003ea576000855562000436565b82601f106200040557805160ff191683800117855562000436565b8280016001018555821562000436579182015b828111156200043557825182559160200191906001019062000418565b5b50905062000445919062000449565b5090565b5b80821115620004645760008160009055506001016200044a565b5090565b61249780620004786000396000f3fe6080604052600436106100c25760003560e01c80638da5cb5b1161007f5780639a6b2087116100595780639a6b2087146106e5578063a21103b614610761578063a6c807a9146107a3578063b449e7161461088a576100c2565b80638da5cb5b1461051657806394b695801461055757806396f979d2146105be576100c2565b806312065fe0146100c757806312c85b22146100f25780632b75565d146101d75780632e9868f8146102b25780633c8a254d146103425780635e8b809114610470575b600080fd5b3480156100d357600080fd5b506100dc610979565b6040518082815260200191505060405180910390f35b3480156100fe57600080fd5b506101d56004803603606081101561011557600080fd5b810190808035906020019064010000000081111561013257600080fd5b82018360208201111561014457600080fd5b8035906020019184600183028401116401000000008311171561016657600080fd5b90919293919293908035906020019064010000000081111561018757600080fd5b82018360208201111561019957600080fd5b803590602001918460018302840111640100000000831117156101bb57600080fd5b909192939192939080359060200190929190505050610981565b005b3480156101e357600080fd5b506102b0600480360360408110156101fa57600080fd5b810190808035906020019064010000000081111561021757600080fd5b82018360208201111561022957600080fd5b8035906020019184600183028401116401000000008311171561024b57600080fd5b90919293919293908035906020019064010000000081111561026c57600080fd5b82018360208201111561027e57600080fd5b803590602001918460018302840111640100000000831117156102a057600080fd5b9091929391929390505050610b59565b005b3480156102be57600080fd5b506102c7610cc7565b6040518080602001828103825283818151815260200191508051906020019080838360005b838110156103075780820151818401526020810190506102ec565b50505050905090810190601f1680156103345780820380516001836020036101000a031916815260200191505b509250505060405180910390f35b34801561034e57600080fd5b5061037b6004803603602081101561036557600080fd5b8101908080359060200190929190505050610d65565b604051808060200185815260200180602001848152602001838103835287818151815260200191508051906020019080838360005b838110156103cb5780820151818401526020810190506103b0565b50505050905090810190601f1680156103f85780820380516001836020036101000a031916815260200191505b50838103825285818151815260200191508051906020019080838360005b83811015610431578082015181840152602081019050610416565b50505050905090810190601f16801561045e5780820380516001836020036101000a031916815260200191505b50965050505050505060405180910390f35b34801561047c57600080fd5b506105146004803603604081101561049357600080fd5b81019080803573ffffffffffffffffffffffffffffffffffffffff169060200190929190803590602001906401000000008111156104d057600080fd5b8201836020820111156104e257600080fd5b8035906020019184600183028401116401000000008311171561050457600080fd5b9091929391929390505050610ec5565b005b34801561052257600080fd5b5061052b611088565b604051808273ffffffffffffffffffffffffffffffffffffffff16815260200191505060405180910390f35b34801561056357600080fd5b506105bc6004803603606081101561057a57600080fd5b8101908080359060200190929190803573ffffffffffffffffffffffffffffffffffffffff1690602001909291908035151590602001909291905050506110ac565b005b3480156105ca57600080fd5b506105f7600480360360208110156105e157600080fd5b810190808035906020019092919050505061133b565b604051808481526020018060200180602001838103835285818151815260200191508051906020019080838360005b83811015610641578082015181840152602081019050610626565b50505050905090810190601f16801561066e5780820380516001836020036101000a031916815260200191505b50838103825284818151815260200191508051906020019080838360005b838110156106a757808201518184015260208101905061068c565b50505050905090810190601f1680156106d45780820380516001836020036101000a031916815260200191505b509550505050505060405180910390f35b3480156106f157600080fd5b5061071e6004803603602081101561070857600080fd5b8101908080359060200190929190505050611495565b604051808581526020018473ffffffffffffffffffffffffffffffffffffffff168152602001838152602001821515815260200194505050505060405180910390f35b61078d6004803603602081101561077757600080fd5b81019080803590602001909291905050506114f2565b6040518082815260200191505060405180910390f35b3480156107af57600080fd5b506107f2600480360360208110156107c657600080fd5b81019080803573ffffffffffffffffffffffffffffffffffffffff169060200190929190505050611827565b604051808373ffffffffffffffffffffffffffffffffffffffff16815260200180602001828103825283818151815260200191508051906020019080838360005b8381101561084e578082015181840152602081019050610833565b50505050905090810190601f16801561087b5780820380516001836020036101000a031916815260200191505b50935050505060405180910390f35b34801561089657600080fd5b506108c3600480360360208110156108ad57600080fd5b8101908080359060200190929190505050611903565b60405180878152602001806020018673ffffffffffffffffffffffffffffffffffffffff1681526020018581526020018481526020018315158152602001828103825287818151815260200191508051906020019080838360005b8381101561093957808201518184015260208101905061091e565b50505050905090810190601f1680156109665780820380516001836020036101000a031916815260200191505b5097505050505050505060405180910390f35b600047905090565b60008054906101000a900473ffffffffffffffffffffffffffffffffffffffff1673ffffffffffffffffffffffffffffffffffffffff163373ffffffffffffffffffffffffffffffffffffffff16146109d957600080fd5b60008111610a32576040517f08c379a000000000000000000000000000000000000000000000000000000000815260040180806020018281038252602f815260200180612375602f913960400191505060405180910390fd5b6000610a3c611a94565b90506000604051806080016040528088888080601f016020809104026020016040519081016040528093929190818152602001838380828437600081840152601f19601f82011690508083019250505050505050815260200183815260200186868080601f016020809104026020016040519081016040528093929190818152602001838380828437600081840152601f19601f82011690508083019250505050505050815260200184815250905080600360008481526020019081526020016000206000820151816000019080519060200190610b1b92919061227c565b50602082015181600101556040820151816002019080519060200190610b4292919061227c565b506060820151816003015590505050505050505050565b60008054906101000a900473ffffffffffffffffffffffffffffffffffffffff1673ffffffffffffffffffffffffffffffffffffffff163373ffffffffffffffffffffffffffffffffffffffff1614610bb157600080fd5b6000610bbb611aac565b90506000604051806060016040528083815260200187878080601f016020809104026020016040519081016040528093929190818152602001838380828437600081840152601f19601f82011690508083019250505050505050815260200185858080601f016020809104026020016040519081016040528093929190818152602001838380828437600081840152601f19601f8201169050808301925050505050505081525090508060046000848152602001908152602001600020600082015181600001556020820151816001019080519060200190610c9e92919061227c565b506040820151816002019080519060200190610cbb92919061227c565b50905050505050505050565b60018054600181600116156101000203166002900480601f016020809104026020016040519081016040528092919081815260200182805460018160011615610100020316600290048015610d5d5780601f10610d3257610100808354040283529160200191610d5d565b820191906000526020600020905b815481529060010190602001808311610d4057829003601f168201915b505050505081565b6003602052806000526040600020600091509050806000018054600181600116156101000203166002900480601f016020809104026020016040519081016040528092919081815260200182805460018160011615610100020316600290048015610e115780601f10610de657610100808354040283529160200191610e11565b820191906000526020600020905b815481529060010190602001808311610df457829003601f168201915b505050505090806001015490806002018054600181600116156101000203166002900480601f016020809104026020016040519081016040528092919081815260200182805460018160011615610100020316600290048015610eb55780601f10610e8a57610100808354040283529160200191610eb5565b820191906000526020600020905b815481529060010190602001808311610e9857829003601f168201915b5050505050908060030154905084565b60008054906101000a900473ffffffffffffffffffffffffffffffffffffffff1673ffffffffffffffffffffffffffffffffffffffff163373ffffffffffffffffffffffffffffffffffffffff1614610f1d57600080fd5b606080600060405180608001604052808773ffffffffffffffffffffffffffffffffffffffff16815260200186868080601f016020809104026020016040519081016040528093929190818152602001838380828437600081840152601f19601f82011690508083019250505050505050815260200184815260200183815250905080600660008873ffffffffffffffffffffffffffffffffffffffff1673ffffffffffffffffffffffffffffffffffffffff16815260200190815260200160002060008201518160000160006101000a81548173ffffffffffffffffffffffffffffffffffffffff021916908373ffffffffffffffffffffffffffffffffffffffff160217905550602082015181600101908051906020019061104292919061227c565b50604082015181600201908051906020019061105f92919061230a565b50606082015181600301908051906020019061107c92919061230a565b50905050505050505050565b60008054906101000a900473ffffffffffffffffffffffffffffffffffffffff1681565b60008054906101000a900473ffffffffffffffffffffffffffffffffffffffff1673ffffffffffffffffffffffffffffffffffffffff163373ffffffffffffffffffffffffffffffffffffffff161461110457600080fd5b600061110e611ac4565b9050600060046000868152602001908152602001600020600001541161119c576040517f08c379a000000000000000000000000000000000000000000000000000000000815260040180806020018281038252601c8152602001807f5468697320636f75727365496420646f65736e27742065786973742e0000000081525060200191505060405180910390fd5b6111a68484611adc565b156111fc576040517f08c379a000000000000000000000000000000000000000000000000000000000815260040180806020018281038252602c815260200180612436602c913960400191505060405180910390fd5b600060405180608001604052808381526020018573ffffffffffffffffffffffffffffffffffffffff168152602001868152602001841515815250905080600560008481526020019081526020016000206000820151816000015560208201518160010160006101000a81548173ffffffffffffffffffffffffffffffffffffffff021916908373ffffffffffffffffffffffffffffffffffffffff1602179055506040820151816002015560608201518160030160006101000a81548160ff021916908315150217905550905050600660008573ffffffffffffffffffffffffffffffffffffffff1673ffffffffffffffffffffffffffffffffffffffff1681526020019081526020016000206002018290806001815401808255809150506001900390600052602060002001600090919091909150555050505050565b6004602052806000526040600020600091509050806000015490806001018054600181600116156101000203166002900480601f0160208091040260200160405190810160405280929190818152602001828054600181600116156101000203166002900480156113ed5780601f106113c2576101008083540402835291602001916113ed565b820191906000526020600020905b8154815290600101906020018083116113d057829003601f168201915b505050505090806002018054600181600116156101000203166002900480601f01602080910402602001604051908101604052809291908181526020018280546001816001161561010002031660029004801561148b5780601f106114605761010080835404028352916020019161148b565b820191906000526020600020905b81548152906001019060200180831161146e57829003601f168201915b5050505050905083565b60056020528060005260406000206000915090508060000154908060010160009054906101000a900473ffffffffffffffffffffffffffffffffffffffff16908060020154908060030160009054906101000a900460ff16905084565b6000670de0b6b3a76400003414611554576040517f08c379a00000000000000000000000000000000000000000000000000000000081526004018080602001828103825260498152602001806123ed6049913960600191505060405180910390fd5b600033905060006115658285611ddf565b9050806115bd576040517f08c379a00000000000000000000000000000000000000000000000000000000081526004018080602001828103825260498152602001806123a46049913960600191505060405180910390fd5b6000600660008473ffffffffffffffffffffffffffffffffffffffff1673ffffffffffffffffffffffffffffffffffffffff1681526020019081526020016000206001018054600181600116156101000203166002900480601f0160208091040260200160405190810160405280929190818152602001828054600181600116156101000203166002900480156116955780601f1061166a57610100808354040283529160200191611695565b820191906000526020600020905b81548152906001019060200180831161167857829003601f168201915b50505050509050600085905060004290506116ae612264565b955060006040518060c001604052808881526020018581526020018773ffffffffffffffffffffffffffffffffffffffff168152602001848152602001838152602001600115158152509050806002600089815260200190815260200160002060008201518160000155602082015181600101908051906020019061173492919061227c565b5060408201518160020160006101000a81548173ffffffffffffffffffffffffffffffffffffffff021916908373ffffffffffffffffffffffffffffffffffffffff160217905550606082015181600301556080820151816004015560a08201518160050160006101000a81548160ff021916908315150217905550905050600660008773ffffffffffffffffffffffffffffffffffffffff1673ffffffffffffffffffffffffffffffffffffffff168152602001908152602001600020600301879080600181540180825580915050600190039060005260206000200160009091909190915055505050505050919050565b60066020528060005260406000206000915090508060000160009054906101000a900473ffffffffffffffffffffffffffffffffffffffff1690806001018054600181600116156101000203166002900480601f0160208091040260200160405190810160405280929190818152602001828054600181600116156101000203166002900480156118f95780601f106118ce576101008083540402835291602001916118f9565b820191906000526020600020905b8154815290600101906020018083116118dc57829003601f168201915b5050505050905082565b600060606000806000806000600260008981526020019081526020016000206040518060c001604052908160008201548152602001600182018054600181600116156101000203166002900480601f0160208091040260200160405190810160405280929190818152602001828054600181600116156101000203166002900480156119d05780601f106119a5576101008083540402835291602001916119d0565b820191906000526020600020905b8154815290600101906020018083116119b357829003601f168201915b505050505081526020016002820160009054906101000a900473ffffffffffffffffffffffffffffffffffffffff1673ffffffffffffffffffffffffffffffffffffffff1673ffffffffffffffffffffffffffffffffffffffff16815260200160038201548152602001600482015481526020016005820160009054906101000a900460ff1615151515815250509050806000015181602001518260400151836060015184608001518560a001519650965096509650965096505091939550919395565b60006008600081548092919060010191905055905090565b60006009600081548092919060010191905055905090565b6000600a600081548092919060010191905055905090565b600080600660008473ffffffffffffffffffffffffffffffffffffffff1673ffffffffffffffffffffffffffffffffffffffff1681526020019081526020016000206040518060800160405290816000820160009054906101000a900473ffffffffffffffffffffffffffffffffffffffff1673ffffffffffffffffffffffffffffffffffffffff1673ffffffffffffffffffffffffffffffffffffffff168152602001600182018054600181600116156101000203166002900480601f016020809104026020016040519081016040528092919081815260200182805460018160011615610100020316600290048015611c185780601f10611bed57610100808354040283529160200191611c18565b820191906000526020600020905b815481529060010190602001808311611bfb57829003601f168201915b5050505050815260200160028201805480602002602001604051908101604052809291908181526020018280548015611c7057602002820191906000526020600020905b815481526020019060010190808311611c5c575b5050505050815260200160038201805480602002602001604051908101604052809291908181526020018280548015611cc857602002820191906000526020600020905b815481526020019060010190808311611cb4575b50505050508152505090506000915060005b816040015151811015611dd757600082604001518281518110611cf957fe5b60200260200101519050600060056000838152602001908152602001600020604051806080016040529081600082015481526020016001820160009054906101000a900473ffffffffffffffffffffffffffffffffffffffff1673ffffffffffffffffffffffffffffffffffffffff1673ffffffffffffffffffffffffffffffffffffffff168152602001600282015481526020016003820160009054906101000a900460ff1615151515815250509050868160400151148015611dbe575080606001515b15611dc857600194505b50508080600101915050611cda565b505092915050565b600080600660008573ffffffffffffffffffffffffffffffffffffffff1673ffffffffffffffffffffffffffffffffffffffff1681526020019081526020016000206040518060800160405290816000820160009054906101000a900473ffffffffffffffffffffffffffffffffffffffff1673ffffffffffffffffffffffffffffffffffffffff1673ffffffffffffffffffffffffffffffffffffffff168152602001600182018054600181600116156101000203166002900480601f016020809104026020016040519081016040528092919081815260200182805460018160011615610100020316600290048015611f1b5780601f10611ef057610100808354040283529160200191611f1b565b820191906000526020600020905b815481529060010190602001808311611efe57829003601f168201915b5050505050815260200160028201805480602002602001604051908101604052809291908181526020018280548015611f7357602002820191906000526020600020905b815481526020019060010190808311611f5f575b5050505050815260200160038201805480602002602001604051908101604052809291908181526020018280548015611fcb57602002820191906000526020600020905b815481526020019060010190808311611fb7575b5050505050815250509050600060036000858152602001908152602001600020604051806080016040529081600082018054600181600116156101000203166002900480601f01602080910402602001604051908101604052809291908181526020018280546001816001161561010002031660029004801561208f5780601f106120645761010080835404028352916020019161208f565b820191906000526020600020905b81548152906001019060200180831161207257829003601f168201915b5050505050815260200160018201548152602001600282018054600181600116156101000203166002900480601f01602080910402602001604051908101604052809291908181526020018280546001816001161561010002031660029004801561213b5780601f106121105761010080835404028352916020019161213b565b820191906000526020600020905b81548152906001019060200180831161211e57829003601f168201915b5050505050815260200160038201548152505090506000805b8360400151518110156122465760008460400151828151811061217357fe5b60200260200101519050600060056000838152602001908152602001600020604051806080016040529081600082015481526020016001820160009054906101000a900473ffffffffffffffffffffffffffffffffffffffff1673ffffffffffffffffffffffffffffffffffffffff1673ffffffffffffffffffffffffffffffffffffffff168152602001600282015481526020016003820160009054906101000a900460ff16151515158152505090508060600151156122375783806001019450505b50508080600101915050612154565b50600093508160600151811061225b57600193505b50505092915050565b60006007600081548092919060010191905055905090565b828054600181600116156101000203166002900490600052602060002090601f0160209004810192826122b257600085556122f9565b82601f106122cb57805160ff19168380011785556122f9565b828001600101855582156122f9579182015b828111156122f85782518255916020019190600101906122dd565b5b5090506123069190612357565b5090565b828054828255906000526020600020908101928215612346579160200282015b8281111561234557825182559160200191906001019061232a565b5b5090506123539190612357565b5090565b5b80821115612370576000816000905550600101612358565b509056fe41206365727469666963617465206d7573742072657175697265206174206c65617374206f6e6520636f757273652e596f752068617665206e6f74207375636365737366756c6c792070617373656420656e6f75676820636f757273657320666f7220746869732063657274696669636174652074797065596f7520646964206e6f74207061792074686520636f727265637420616d6f756e7420666f7220796f75722063657274696669636174652069737375616e636520726571756573742e546869732073747564656e742068617320616c726561647920706173736564207468697320636f757273652ea2646970667358221220d760ffdd3901ed67c6277069f722822881d5541c789fae166e473042a2b871aa64736f6c63430007060033",
  "immutableReferences": {},
  "source": "// SPDX-License-Identifier: GPL-3.0\n\npragma solidity ^0.7.0;\n\ncontract CertificateIssuer {\n    address public owner;\n    string public issuerName;\n    mapping(uint => Certificate) private issued_certificates;\n    mapping(uint => CertificateType) public certificate_types;\n    mapping(uint => Course) public courses;\n    mapping(uint => Enrollment) public enrollments;\n    mapping(address => Student) public students;\n    \n    // need to track the ids for things somewhere, can't get keys from mappings\n    \n    uint private certCount = 1;\n    uint private certTypeCount = 1;\n    uint private courseCount = 1;\n    uint private enrollmentCount = 1;\n    \n    function getBalance() public view returns (uint) {\n        return address(this).balance;\n    }\n    \n    function getCertId() private returns (uint){\n        return certCount++;\n    }\n    \n    function getCertTypeId() private returns (uint){\n        return certTypeCount++;\n    }\n    \n    function getCourseId() private returns(uint){\n        return courseCount++;\n    }\n    \n    function getEnrollmentId() private returns(uint){\n        return enrollmentCount++;\n    }\n    \n    modifier onlyOwner() {\n        require(msg.sender == owner);\n        _;\n    }\n    \n    constructor(string memory _issuerName, string memory _certName, string memory _certDesc, uint _numCertCoursesRequired) {\n        // set up the first cert type - can't call public function?\n        uint certTypeId = getCertTypeId();\n        CertificateType memory certType = CertificateType(_certName, certTypeId, _certDesc, _numCertCoursesRequired);\n        certificate_types[certTypeId] = certType;\n        \n        owner = msg.sender;\n        issuerName = _issuerName;\n    }\n    \n    struct Certificate {\n        uint certificateId;\n        string studentName;\n        address studentAddress;\n        uint certificateTypeId;\n        uint issuedDate;\n        bool valid;\n        // Potentially, a mapping of courses applied to the cert\n    }\n    \n    struct CertificateType {\n        string certificateName;\n        uint certificateTypeId;\n        string certificateDescription;\n        uint numCoursesRequired;\n    }\n    \n    struct Course {\n        uint courseId;\n        string courseName;\n        string courseDescription;\n    }\n    \n    struct Enrollment {\n        uint enrollmentId;\n        address studentAddress;\n        uint courseId;\n        bool pass;\n    }\n    \n    struct Student {\n        address studentAddress;\n        string studentName;\n        uint[] enrollmentIds;\n        uint[] certificateIds;\n    }\n    \n    function requestCert(uint _certificateTypeId) external payable returns (uint certificateId)  {\n        require(msg.value == 1 ether, \"You did not pay the correct amount for your certificate issuance request.\");\n        \n        address studentAddress = msg.sender;\n        \n        bool validRequest = validateRequest(studentAddress, _certificateTypeId);\n        require(validRequest, \"You have not successfully passed enough courses for this certificate type\");\n        \n        string memory studentName = students[studentAddress].studentName;\n        uint certificateTypeId = _certificateTypeId;\n        uint issuedDate = block.timestamp;\n        certificateId = getCertId();\n        \n        Certificate memory cert = Certificate(certificateId, studentName, studentAddress, certificateTypeId, issuedDate, true);\n        \n        issued_certificates[certificateId] = cert;\n        students[studentAddress].certificateIds.push(certificateId);\n        \n        return certificateId;\n    }\n    \n    function validateRequest(address _studentAddress, uint _certTypeId) private view returns (bool valid){\n        Student memory student = students[_studentAddress];\n        CertificateType memory certType = certificate_types[_certTypeId];\n        uint numCoursesPassed = 0;\n        \n        for(uint i = 0; i < student.enrollmentIds.length; i++){\n            uint id = student.enrollmentIds[i];\n            Enrollment memory e = enrollments[id];\n            if(e.pass){\n                numCoursesPassed++;\n            }\n        }\n        valid = false;\n        if(numCoursesPassed >= certType.numCoursesRequired){\n            valid = true;\n        }\n        return valid;\n    }\n    \n    // Can't return structs in external functions in Solidity - decompose it\n    function getCert(uint id) public view returns (\n        uint certificateId,\n        string memory studentName,\n        address studentAddress,\n        uint certificateTypeId,\n        uint issuedDate,\n        bool valid\n     ){\n        Certificate memory cert = issued_certificates[id];\n        return(cert.certificateId, cert.studentName, cert.studentAddress, cert.certificateTypeId, cert.issuedDate, cert.valid);\n    }\n    \n    function addStudent(address _studentAddress, string calldata _studentName) public onlyOwner{\n        uint[] memory tempEIds;\n        uint[] memory tempCertIds;\n        Student memory tempStudent = Student(_studentAddress, _studentName, tempEIds, tempCertIds);\n        students[_studentAddress] = tempStudent;\n    }\n    \n    function addCourse(string calldata _courseName, string calldata _courseDesc) public onlyOwner{\n        uint courseId = getCourseId();\n        Course memory tempCourse = Course(courseId, _courseName, _courseDesc);\n        courses[courseId] = tempCourse;\n    }\n    \n    function addEnrollment(uint _courseId, address _studentAddress, bool _pass) public onlyOwner{\n        uint enrollmentId = getEnrollmentId();\n        \n        require(courses[_courseId].courseId > 0, \"This courseId doesn't exist.\");\n        require(!studentEnrollmentAlreadyExists(_courseId, _studentAddress), \"This student has already passed this course.\");\n        \n        Enrollment memory tempEnrollment = Enrollment(enrollmentId, _studentAddress, _courseId, _pass);\n        enrollments[enrollmentId] = tempEnrollment;\n        students[_studentAddress].enrollmentIds.push(enrollmentId);\n    }\n    \n    function studentEnrollmentAlreadyExists(uint _courseId, address _studentAddress) private view returns (bool exists){\n        Student memory student = students[_studentAddress];\n        exists = false;\n        for(uint i = 0; i < student.enrollmentIds.length; i++){\n            uint id = student.enrollmentIds[i];\n            Enrollment memory e = enrollments[id];\n            if(e.courseId == _courseId && e.pass){\n                exists = true;\n            }\n        }\n        return exists;\n    }\n    \n    function addCertificateType(string calldata _certName, string calldata _certDesc, uint _numCoursesRequired) public onlyOwner{\n        require(_numCoursesRequired > 0, \"A certificate must require at least one course.\");\n        uint certTypeId = getCertTypeId();\n        CertificateType memory certType = CertificateType(_certName, certTypeId, _certDesc, _numCoursesRequired);\n        certificate_types[certTypeId] = certType;\n    }\n    \n    // function getStudentEnrollmentIds(address _address) public view returns(uint [] memory){\n    //     return students[_address].enrollmentIds;\n    // }\n    \n}",
  "sourcePath": "/Users/colecrawford/GitHub/blockchain-certs/contracts/CertificateIssuer.sol",
  "compiler": {
    "name": "solc",
    "version": "0.7.6+commit.7338295f.Emscripten.clang"
  },
  "schemaVersion": "3.3.4",
  "updatedAt": "2021-04-25T19:12:42.069Z",
  "networkType": "ethereum",
  "devdoc": {
    "kind": "dev",
    "methods": {},
    "version": 1
  },
  "userdoc": {
    "kind": "user",
    "methods": {},
    "version": 1
  }
}