{
  "contractName": "CertificateIssuer",
  "abi": [
    {
      "inputs": [
        {
          "internalType": "string",
          "name": "_issuerName",
          "type": "string"
        },
        {
          "internalType": "string",
          "name": "_certName",
          "type": "string"
        },
        {
          "internalType": "string",
          "name": "_certDesc",
          "type": "string"
        },
        {
          "internalType": "uint256",
          "name": "_numCertCoursesRequired",
          "type": "uint256"
        }
      ],
      "stateMutability": "nonpayable",
      "type": "constructor"
    },
    {
      "inputs": [
        {
          "internalType": "uint256",
          "name": "",
          "type": "uint256"
        }
      ],
      "name": "certificate_types",
      "outputs": [
        {
          "internalType": "string",
          "name": "certificateName",
          "type": "string"
        },
        {
          "internalType": "uint256",
          "name": "certificateTypeId",
          "type": "uint256"
        },
        {
          "internalType": "string",
          "name": "certificateDescription",
          "type": "string"
        },
        {
          "internalType": "uint256",
          "name": "numCoursesRequired",
          "type": "uint256"
        }
      ],
      "stateMutability": "view",
      "type": "function"
    },
    {
      "inputs": [
        {
          "internalType": "uint256",
          "name": "",
          "type": "uint256"
        }
      ],
      "name": "courses",
      "outputs": [
        {
          "internalType": "uint256",
          "name": "courseId",
          "type": "uint256"
        },
        {
          "internalType": "string",
          "name": "courseName",
          "type": "string"
        },
        {
          "internalType": "string",
          "name": "courseDescription",
          "type": "string"
        }
      ],
      "stateMutability": "view",
      "type": "function"
    },
    {
      "inputs": [
        {
          "internalType": "uint256",
          "name": "",
          "type": "uint256"
        }
      ],
      "name": "enrollments",
      "outputs": [
        {
          "internalType": "uint256",
          "name": "enrollmentId",
          "type": "uint256"
        },
        {
          "internalType": "address",
          "name": "studentAddress",
          "type": "address"
        },
        {
          "internalType": "uint256",
          "name": "courseId",
          "type": "uint256"
        },
        {
          "internalType": "bool",
          "name": "pass",
          "type": "bool"
        }
      ],
      "stateMutability": "view",
      "type": "function"
    },
    {
      "inputs": [],
      "name": "issuerName",
      "outputs": [
        {
          "internalType": "string",
          "name": "",
          "type": "string"
        }
      ],
      "stateMutability": "view",
      "type": "function"
    },
    {
      "inputs": [],
      "name": "owner",
      "outputs": [
        {
          "internalType": "address",
          "name": "",
          "type": "address"
        }
      ],
      "stateMutability": "view",
      "type": "function"
    },
    {
      "inputs": [
        {
          "internalType": "address",
          "name": "",
          "type": "address"
        }
      ],
      "name": "students",
      "outputs": [
        {
          "internalType": "address",
          "name": "studentAddress",
          "type": "address"
        },
        {
          "internalType": "string",
          "name": "studentName",
          "type": "string"
        }
      ],
      "stateMutability": "view",
      "type": "function"
    },
    {
      "inputs": [],
      "name": "getBalance",
      "outputs": [
        {
          "internalType": "uint256",
          "name": "",
          "type": "uint256"
        }
      ],
      "stateMutability": "view",
      "type": "function"
    },
    {
      "inputs": [
        {
          "internalType": "uint256",
          "name": "_certificateTypeId",
          "type": "uint256"
        }
      ],
      "name": "requestCert",
      "outputs": [
        {
          "internalType": "uint256",
          "name": "certificateId",
          "type": "uint256"
        }
      ],
      "stateMutability": "payable",
      "type": "function"
    },
    {
      "inputs": [
        {
          "internalType": "uint256",
          "name": "id",
          "type": "uint256"
        }
      ],
      "name": "getCert",
      "outputs": [
        {
          "internalType": "uint256",
          "name": "certificateId",
          "type": "uint256"
        },
        {
          "internalType": "string",
          "name": "studentName",
          "type": "string"
        },
        {
          "internalType": "address",
          "name": "studentAddress",
          "type": "address"
        },
        {
          "internalType": "uint256",
          "name": "certificateTypeId",
          "type": "uint256"
        },
        {
          "internalType": "uint256",
          "name": "issuedDate",
          "type": "uint256"
        },
        {
          "internalType": "bool",
          "name": "valid",
          "type": "bool"
        }
      ],
      "stateMutability": "view",
      "type": "function"
    },
    {
      "inputs": [
        {
          "internalType": "address",
          "name": "_studentAddress",
          "type": "address"
        },
        {
          "internalType": "string",
          "name": "_studentName",
          "type": "string"
        }
      ],
      "name": "addStudent",
      "outputs": [
        {
          "internalType": "bool",
          "name": "success",
          "type": "bool"
        }
      ],
      "stateMutability": "nonpayable",
      "type": "function"
    },
    {
      "inputs": [
        {
          "internalType": "string",
          "name": "_courseName",
          "type": "string"
        },
        {
          "internalType": "string",
          "name": "_courseDesc",
          "type": "string"
        }
      ],
      "name": "addCourse",
      "outputs": [
        {
          "internalType": "uint256",
          "name": "courseId",
          "type": "uint256"
        }
      ],
      "stateMutability": "nonpayable",
      "type": "function"
    },
    {
      "inputs": [
        {
          "internalType": "uint256",
          "name": "_courseId",
          "type": "uint256"
        },
        {
          "internalType": "address",
          "name": "_studentAddress",
          "type": "address"
        },
        {
          "internalType": "bool",
          "name": "_pass",
          "type": "bool"
        }
      ],
      "name": "addEnrollment",
      "outputs": [],
      "stateMutability": "nonpayable",
      "type": "function"
    },
    {
      "inputs": [
        {
          "internalType": "string",
          "name": "_certName",
          "type": "string"
        },
        {
          "internalType": "string",
          "name": "_certDesc",
          "type": "string"
        },
        {
          "internalType": "uint256",
          "name": "_numCoursesRequired",
          "type": "uint256"
        }
      ],
      "name": "addCertificateType",
      "outputs": [
        {
          "internalType": "uint256",
          "name": "certTypeId",
          "type": "uint256"
        }
      ],
      "stateMutability": "nonpayable",
      "type": "function"
    }
  ],
  "bytecode": "0x60806040526001600755600160085560016009556001600a553480156200002557600080fd5b50604051620029fc380380620029fc83398181016040528101906200004b9190620002a9565b60006200005d6200015260201b60201c565b90506000604051806080016040528086815260200183815260200185815260200184815250905080600360008481526020019081526020016000206000820151816000019080519060200190620000b69291906200016a565b50602082015181600101556040820151816002019080519060200190620000df9291906200016a565b5060608201518160030155905050336000806101000a81548173ffffffffffffffffffffffffffffffffffffffff021916908373ffffffffffffffffffffffffffffffffffffffff1602179055508560019080519060200190620001459291906200016a565b5050505050505062000423565b60006008600081548092919060010191905055905090565b828054600181600116156101000203166002900490600052602060002090601f016020900481019282620001a25760008555620001ee565b82601f10620001bd57805160ff1916838001178555620001ee565b82800160010185558215620001ee579182015b82811115620001ed578251825591602001919060010190620001d0565b5b509050620001fd919062000201565b5090565b5b808211156200021c57600081600090555060010162000202565b5090565b600062000237620002318462000394565b62000360565b9050828152602081018484840111156200025057600080fd5b6200025d848285620003d1565b509392505050565b600082601f8301126200027757600080fd5b81516200028984826020860162000220565b91505092915050565b600081519050620002a38162000409565b92915050565b60008060008060808587031215620002c057600080fd5b600085015167ffffffffffffffff811115620002db57600080fd5b620002e98782880162000265565b945050602085015167ffffffffffffffff8111156200030757600080fd5b620003158782880162000265565b935050604085015167ffffffffffffffff8111156200033357600080fd5b620003418782880162000265565b9250506060620003548782880162000292565b91505092959194509250565b6000604051905081810181811067ffffffffffffffff821117156200038a576200038962000407565b5b8060405250919050565b600067ffffffffffffffff821115620003b257620003b162000407565b5b601f19601f8301169050602081019050919050565b6000819050919050565b60005b83811015620003f1578082015181840152602081019050620003d4565b8381111562000401576000848401525b50505050565bfe5b6200041481620003c7565b81146200042057600080fd5b50565b6125c980620004336000396000f3fe6080604052600436106100c25760003560e01c80638da5cb5b1161007f5780639a6b2087116100595780639a6b2087146102a7578063a21103b6146102e7578063a6c807a914610317578063b449e71614610355576100c2565b80638da5cb5b1461021457806394b695801461023f57806396f979d214610268576100c2565b806312065fe0146100c757806312c85b22146100f25780632b75565d1461012f5780632e9868f81461016c5780633c8a254d146101975780635e8b8091146101d7575b600080fd5b3480156100d357600080fd5b506100dc610397565b6040516100e99190612399565b60405180910390f35b3480156100fe57600080fd5b5061011960048036038101906101149190611e93565b61039f565b6040516101269190612399565b60405180910390f35b34801561013b57600080fd5b5061015660048036038101906101519190611e1e565b610563565b6040516101639190612399565b60405180910390f35b34801561017857600080fd5b506101816106d3565b60405161018e9190612284565b60405180910390f35b3480156101a357600080fd5b506101be60048036038101906101b99190611f1c565b610771565b6040516101ce94939291906122a6565b60405180910390f35b3480156101e357600080fd5b506101fe60048036038101906101f99190611dc6565b6108d1565b60405161020b9190612269565b60405180910390f35b34801561022057600080fd5b50610229610a9d565b604051610236919061221e565b60405180910390f35b34801561024b57600080fd5b5061026660048036038101906102619190611f45565b610ac1565b005b34801561027457600080fd5b5061028f600480360381019061028a9190611f1c565b610d07565b60405161029e93929190612461565b60405180910390f35b3480156102b357600080fd5b506102ce60048036038101906102c99190611f1c565b610e61565b6040516102de94939291906123b4565b60405180910390f35b61030160048036038101906102fc9190611f1c565b610ebe565b60405161030e9190612399565b60405180910390f35b34801561032357600080fd5b5061033e60048036038101906103399190611d9d565b6111c7565b60405161034c929190612239565b60405180910390f35b34801561036157600080fd5b5061037c60048036038101906103779190611f1c565b6112a3565b60405161038e969594939291906123f9565b60405180910390f35b600047905090565b60008060009054906101000a900473ffffffffffffffffffffffffffffffffffffffff1673ffffffffffffffffffffffffffffffffffffffff163373ffffffffffffffffffffffffffffffffffffffff16146103fa57600080fd5b6000821161043d576040517f08c379a0000000000000000000000000000000000000000000000000000000008152600401610434906122f9565b60405180910390fd5b610445611434565b90506000604051806080016040528088888080601f016020809104026020016040519081016040528093929190818152602001838380828437600081840152601f19601f82011690508083019250505050505050815260200183815260200186868080601f016020809104026020016040519081016040528093929190818152602001838380828437600081840152601f19601f82011690508083019250505050505050815260200184815250905080600360008481526020019081526020016000206000820151816000019080519060200190610524929190611c1c565b5060208201518160010155604082015181600201908051906020019061054b929190611c1c565b50606082015181600301559050505095945050505050565b60008060009054906101000a900473ffffffffffffffffffffffffffffffffffffffff1673ffffffffffffffffffffffffffffffffffffffff163373ffffffffffffffffffffffffffffffffffffffff16146105be57600080fd5b6105c661144c565b90506000604051806060016040528083815260200187878080601f016020809104026020016040519081016040528093929190818152602001838380828437600081840152601f19601f82011690508083019250505050505050815260200185858080601f016020809104026020016040519081016040528093929190818152602001838380828437600081840152601f19601f82011690508083019250505050505050815250905080600460008481526020019081526020016000206000820151816000015560208201518160010190805190602001906106a9929190611c1c565b5060408201518160020190805190602001906106c6929190611c1c565b5090505050949350505050565b60018054600181600116156101000203166002900480601f0160208091040260200160405190810160405280929190818152602001828054600181600116156101000203166002900480156107695780601f1061073e57610100808354040283529160200191610769565b820191906000526020600020905b81548152906001019060200180831161074c57829003601f168201915b505050505081565b6003602052806000526040600020600091509050806000018054600181600116156101000203166002900480601f01602080910402602001604051908101604052809291908181526020018280546001816001161561010002031660029004801561081d5780601f106107f25761010080835404028352916020019161081d565b820191906000526020600020905b81548152906001019060200180831161080057829003601f168201915b505050505090806001015490806002018054600181600116156101000203166002900480601f0160208091040260200160405190810160405280929190818152602001828054600181600116156101000203166002900480156108c15780601f10610896576101008083540402835291602001916108c1565b820191906000526020600020905b8154815290600101906020018083116108a457829003601f168201915b5050505050908060030154905084565b60008060009054906101000a900473ffffffffffffffffffffffffffffffffffffffff1673ffffffffffffffffffffffffffffffffffffffff163373ffffffffffffffffffffffffffffffffffffffff161461092c57600080fd5b606080600060405180608001604052808873ffffffffffffffffffffffffffffffffffffffff16815260200187878080601f016020809104026020016040519081016040528093929190818152602001838380828437600081840152601f19601f82011690508083019250505050505050815260200184815260200183815250905080600660008973ffffffffffffffffffffffffffffffffffffffff1673ffffffffffffffffffffffffffffffffffffffff16815260200190815260200160002060008201518160000160006101000a81548173ffffffffffffffffffffffffffffffffffffffff021916908373ffffffffffffffffffffffffffffffffffffffff1602179055506020820151816001019080519060200190610a51929190611c1c565b506040820151816002019080519060200190610a6e929190611caa565b506060820151816003019080519060200190610a8b929190611caa565b50905050600193505050509392505050565b60008054906101000a900473ffffffffffffffffffffffffffffffffffffffff1681565b60008054906101000a900473ffffffffffffffffffffffffffffffffffffffff1673ffffffffffffffffffffffffffffffffffffffff163373ffffffffffffffffffffffffffffffffffffffff1614610b1957600080fd5b6000610b23611464565b90506000600460008681526020019081526020016000206000015411610b7e576040517f08c379a0000000000000000000000000000000000000000000000000000000008152600401610b7590612319565b60405180910390fd5b610b88848461147c565b15610bc8576040517f08c379a0000000000000000000000000000000000000000000000000000000008152600401610bbf90612379565b60405180910390fd5b600060405180608001604052808381526020018573ffffffffffffffffffffffffffffffffffffffff168152602001868152602001841515815250905080600560008481526020019081526020016000206000820151816000015560208201518160010160006101000a81548173ffffffffffffffffffffffffffffffffffffffff021916908373ffffffffffffffffffffffffffffffffffffffff1602179055506040820151816002015560608201518160030160006101000a81548160ff021916908315150217905550905050600660008573ffffffffffffffffffffffffffffffffffffffff1673ffffffffffffffffffffffffffffffffffffffff1681526020019081526020016000206002018290806001815401808255809150506001900390600052602060002001600090919091909150555050505050565b6004602052806000526040600020600091509050806000015490806001018054600181600116156101000203166002900480601f016020809104026020016040519081016040528092919081815260200182805460018160011615610100020316600290048015610db95780601f10610d8e57610100808354040283529160200191610db9565b820191906000526020600020905b815481529060010190602001808311610d9c57829003601f168201915b505050505090806002018054600181600116156101000203166002900480601f016020809104026020016040519081016040528092919081815260200182805460018160011615610100020316600290048015610e575780601f10610e2c57610100808354040283529160200191610e57565b820191906000526020600020905b815481529060010190602001808311610e3a57829003601f168201915b5050505050905083565b60056020528060005260406000206000915090508060000154908060010160009054906101000a900473ffffffffffffffffffffffffffffffffffffffff16908060020154908060030160009054906101000a900460ff16905084565b6000670de0b6b3a76400003414610f0a576040517f08c379a0000000000000000000000000000000000000000000000000000000008152600401610f0190612359565b60405180910390fd5b60003390506000610f1b828561177f565b905080610f5d576040517f08c379a0000000000000000000000000000000000000000000000000000000008152600401610f5490612339565b60405180910390fd5b6000600660008473ffffffffffffffffffffffffffffffffffffffff1673ffffffffffffffffffffffffffffffffffffffff1681526020019081526020016000206001018054600181600116156101000203166002900480601f0160208091040260200160405190810160405280929190818152602001828054600181600116156101000203166002900480156110355780601f1061100a57610100808354040283529160200191611035565b820191906000526020600020905b81548152906001019060200180831161101857829003601f168201915b505050505090506000859050600042905061104e611c04565b955060006040518060c001604052808881526020018581526020018773ffffffffffffffffffffffffffffffffffffffff16815260200184815260200183815260200160011515815250905080600260008981526020019081526020016000206000820151816000015560208201518160010190805190602001906110d4929190611c1c565b5060408201518160020160006101000a81548173ffffffffffffffffffffffffffffffffffffffff021916908373ffffffffffffffffffffffffffffffffffffffff160217905550606082015181600301556080820151816004015560a08201518160050160006101000a81548160ff021916908315150217905550905050600660008773ffffffffffffffffffffffffffffffffffffffff1673ffffffffffffffffffffffffffffffffffffffff168152602001908152602001600020600301879080600181540180825580915050600190039060005260206000200160009091909190915055505050505050919050565b60066020528060005260406000206000915090508060000160009054906101000a900473ffffffffffffffffffffffffffffffffffffffff1690806001018054600181600116156101000203166002900480601f0160208091040260200160405190810160405280929190818152602001828054600181600116156101000203166002900480156112995780601f1061126e57610100808354040283529160200191611299565b820191906000526020600020905b81548152906001019060200180831161127c57829003601f168201915b5050505050905082565b600060606000806000806000600260008981526020019081526020016000206040518060c001604052908160008201548152602001600182018054600181600116156101000203166002900480601f0160208091040260200160405190810160405280929190818152602001828054600181600116156101000203166002900480156113705780601f1061134557610100808354040283529160200191611370565b820191906000526020600020905b81548152906001019060200180831161135357829003601f168201915b505050505081526020016002820160009054906101000a900473ffffffffffffffffffffffffffffffffffffffff1673ffffffffffffffffffffffffffffffffffffffff1673ffffffffffffffffffffffffffffffffffffffff16815260200160038201548152602001600482015481526020016005820160009054906101000a900460ff1615151515815250509050806000015181602001518260400151836060015184608001518560a001519650965096509650965096505091939550919395565b60006008600081548092919060010191905055905090565b60006009600081548092919060010191905055905090565b6000600a600081548092919060010191905055905090565b600080600660008473ffffffffffffffffffffffffffffffffffffffff1673ffffffffffffffffffffffffffffffffffffffff1681526020019081526020016000206040518060800160405290816000820160009054906101000a900473ffffffffffffffffffffffffffffffffffffffff1673ffffffffffffffffffffffffffffffffffffffff1673ffffffffffffffffffffffffffffffffffffffff168152602001600182018054600181600116156101000203166002900480601f0160208091040260200160405190810160405280929190818152602001828054600181600116156101000203166002900480156115b85780601f1061158d576101008083540402835291602001916115b8565b820191906000526020600020905b81548152906001019060200180831161159b57829003601f168201915b505050505081526020016002820180548060200260200160405190810160405280929190818152602001828054801561161057602002820191906000526020600020905b8154815260200190600101908083116115fc575b505050505081526020016003820180548060200260200160405190810160405280929190818152602001828054801561166857602002820191906000526020600020905b815481526020019060010190808311611654575b50505050508152505090506000915060005b8160400151518110156117775760008260400151828151811061169957fe5b60200260200101519050600060056000838152602001908152602001600020604051806080016040529081600082015481526020016001820160009054906101000a900473ffffffffffffffffffffffffffffffffffffffff1673ffffffffffffffffffffffffffffffffffffffff1673ffffffffffffffffffffffffffffffffffffffff168152602001600282015481526020016003820160009054906101000a900460ff161515151581525050905086816040015114801561175e575080606001515b1561176857600194505b5050808060010191505061167a565b505092915050565b600080600660008573ffffffffffffffffffffffffffffffffffffffff1673ffffffffffffffffffffffffffffffffffffffff1681526020019081526020016000206040518060800160405290816000820160009054906101000a900473ffffffffffffffffffffffffffffffffffffffff1673ffffffffffffffffffffffffffffffffffffffff1673ffffffffffffffffffffffffffffffffffffffff168152602001600182018054600181600116156101000203166002900480601f0160208091040260200160405190810160405280929190818152602001828054600181600116156101000203166002900480156118bb5780601f10611890576101008083540402835291602001916118bb565b820191906000526020600020905b81548152906001019060200180831161189e57829003601f168201915b505050505081526020016002820180548060200260200160405190810160405280929190818152602001828054801561191357602002820191906000526020600020905b8154815260200190600101908083116118ff575b505050505081526020016003820180548060200260200160405190810160405280929190818152602001828054801561196b57602002820191906000526020600020905b815481526020019060010190808311611957575b5050505050815250509050600060036000858152602001908152602001600020604051806080016040529081600082018054600181600116156101000203166002900480601f016020809104026020016040519081016040528092919081815260200182805460018160011615610100020316600290048015611a2f5780601f10611a0457610100808354040283529160200191611a2f565b820191906000526020600020905b815481529060010190602001808311611a1257829003601f168201915b5050505050815260200160018201548152602001600282018054600181600116156101000203166002900480601f016020809104026020016040519081016040528092919081815260200182805460018160011615610100020316600290048015611adb5780601f10611ab057610100808354040283529160200191611adb565b820191906000526020600020905b815481529060010190602001808311611abe57829003601f168201915b5050505050815260200160038201548152505090506000805b836040015151811015611be657600084604001518281518110611b1357fe5b60200260200101519050600060056000838152602001908152602001600020604051806080016040529081600082015481526020016001820160009054906101000a900473ffffffffffffffffffffffffffffffffffffffff1673ffffffffffffffffffffffffffffffffffffffff1673ffffffffffffffffffffffffffffffffffffffff168152602001600282015481526020016003820160009054906101000a900460ff1615151515815250509050806060015115611bd75783806001019450505b50508080600101915050611af4565b506000935081606001518110611bfb57600193505b50505092915050565b60006007600081548092919060010191905055905090565b828054600181600116156101000203166002900490600052602060002090601f016020900481019282611c525760008555611c99565b82601f10611c6b57805160ff1916838001178555611c99565b82800160010185558215611c99579182015b82811115611c98578251825591602001919060010190611c7d565b5b509050611ca69190611cf7565b5090565b828054828255906000526020600020908101928215611ce6579160200282015b82811115611ce5578251825591602001919060010190611cca565b5b509050611cf39190611cf7565b5090565b5b80821115611d10576000816000905550600101611cf8565b5090565b600081359050611d238161254e565b92915050565b600081359050611d3881612565565b92915050565b60008083601f840112611d5057600080fd5b8235905067ffffffffffffffff811115611d6957600080fd5b602083019150836001820283011115611d8157600080fd5b9250929050565b600081359050611d978161257c565b92915050565b600060208284031215611daf57600080fd5b6000611dbd84828501611d14565b91505092915050565b600080600060408486031215611ddb57600080fd5b6000611de986828701611d14565b935050602084013567ffffffffffffffff811115611e0657600080fd5b611e1286828701611d3e565b92509250509250925092565b60008060008060408587031215611e3457600080fd5b600085013567ffffffffffffffff811115611e4e57600080fd5b611e5a87828801611d3e565b9450945050602085013567ffffffffffffffff811115611e7957600080fd5b611e8587828801611d3e565b925092505092959194509250565b600080600080600060608688031215611eab57600080fd5b600086013567ffffffffffffffff811115611ec557600080fd5b611ed188828901611d3e565b9550955050602086013567ffffffffffffffff811115611ef057600080fd5b611efc88828901611d3e565b93509350506040611f0f88828901611d88565b9150509295509295909350565b600060208284031215611f2e57600080fd5b6000611f3c84828501611d88565b91505092915050565b600080600060608486031215611f5a57600080fd5b6000611f6886828701611d88565b9350506020611f7986828701611d14565b9250506040611f8a86828701611d29565b9150509250925092565b611f9d816124c2565b82525050565b611fac816124d4565b82525050565b6000611fbd826124a6565b611fc781856124b1565b9350611fd781856020860161250a565b611fe08161253d565b840191505092915050565b6000611ff8602f836124b1565b91507f41206365727469666963617465206d7573742072657175697265206174206c6560008301527f617374206f6e6520636f757273652e00000000000000000000000000000000006020830152604082019050919050565b600061205e601c836124b1565b91507f5468697320636f75727365496420646f65736e27742065786973742e000000006000830152602082019050919050565b600061209e6049836124b1565b91507f596f752068617665206e6f74207375636365737366756c6c792070617373656460008301527f20656e6f75676820636f757273657320666f722074686973206365727469666960208301527f63617465207479706500000000000000000000000000000000000000000000006040830152606082019050919050565b600061212a6049836124b1565b91507f596f7520646964206e6f74207061792074686520636f727265637420616d6f7560008301527f6e7420666f7220796f75722063657274696669636174652069737375616e636560208301527f20726571756573742e00000000000000000000000000000000000000000000006040830152606082019050919050565b60006121b6602c836124b1565b91507f546869732073747564656e742068617320616c7265616479207061737365642060008301527f7468697320636f757273652e00000000000000000000000000000000000000006020830152604082019050919050565b61221881612500565b82525050565b60006020820190506122336000830184611f94565b92915050565b600060408201905061224e6000830185611f94565b81810360208301526122608184611fb2565b90509392505050565b600060208201905061227e6000830184611fa3565b92915050565b6000602082019050818103600083015261229e8184611fb2565b905092915050565b600060808201905081810360008301526122c08187611fb2565b90506122cf602083018661220f565b81810360408301526122e18185611fb2565b90506122f0606083018461220f565b95945050505050565b6000602082019050818103600083015261231281611feb565b9050919050565b6000602082019050818103600083015261233281612051565b9050919050565b6000602082019050818103600083015261235281612091565b9050919050565b600060208201905081810360008301526123728161211d565b9050919050565b60006020820190508181036000830152612392816121a9565b9050919050565b60006020820190506123ae600083018461220f565b92915050565b60006080820190506123c9600083018761220f565b6123d66020830186611f94565b6123e3604083018561220f565b6123f06060830184611fa3565b95945050505050565b600060c08201905061240e600083018961220f565b81810360208301526124208188611fb2565b905061242f6040830187611f94565b61243c606083018661220f565b612449608083018561220f565b61245660a0830184611fa3565b979650505050505050565b6000606082019050612476600083018661220f565b81810360208301526124888185611fb2565b9050818103604083015261249c8184611fb2565b9050949350505050565b600081519050919050565b600082825260208201905092915050565b60006124cd826124e0565b9050919050565b60008115159050919050565b600073ffffffffffffffffffffffffffffffffffffffff82169050919050565b6000819050919050565b60005b8381101561252857808201518184015260208101905061250d565b83811115612537576000848401525b50505050565b6000601f19601f8301169050919050565b612557816124c2565b811461256257600080fd5b50565b61256e816124d4565b811461257957600080fd5b50565b61258581612500565b811461259057600080fd5b5056fea26469706673582212201c2e5c553ce06739798b4bdaac58fffa2ebd54e9ae1ce4c4d9e1f9b0d50c505f64736f6c63430007060033",
  "immutableReferences": {},
  "source": "// SPDX-License-Identifier: GPL-3.0\n\npragma solidity ^0.7.0;\npragma experimental ABIEncoderV2;\n// Using the new ABI coder which can return arrays of structs\n\ncontract CertificateIssuer {\n    address public owner;\n    string public issuerName;\n    mapping(uint => Certificate) private issued_certificates;\n    mapping(uint => CertificateType) public certificate_types;\n    mapping(uint => Course) public courses;\n    mapping(uint => Enrollment) public enrollments;\n    mapping(address => Student) public students;\n    \n    // need to track the ids for things somewhere, can't get keys from mappings\n    \n    uint private certCount = 1;\n    uint private certTypeCount = 1;\n    uint private courseCount = 1;\n    uint private enrollmentCount = 1;\n    \n    function getBalance() public view returns (uint) {\n        return address(this).balance;\n    }\n    \n    function getCertId() private returns (uint){\n        return certCount++;\n    }\n    \n    function getCertTypeId() private returns (uint){\n        return certTypeCount++;\n    }\n    \n    function getCourseId() private returns(uint){\n        return courseCount++;\n    }\n    \n    function getEnrollmentId() private returns(uint){\n        return enrollmentCount++;\n    }\n    \n    modifier onlyOwner() {\n        require(msg.sender == owner);\n        _;\n    }\n    \n    constructor(string memory _issuerName, string memory _certName, string memory _certDesc, uint _numCertCoursesRequired) {\n        // set up the first cert type - can't call public function?\n        uint certTypeId = getCertTypeId();\n        CertificateType memory certType = CertificateType(_certName, certTypeId, _certDesc, _numCertCoursesRequired);\n        certificate_types[certTypeId] = certType;\n        \n        owner = msg.sender;\n        issuerName = _issuerName;\n    }\n    \n    struct Certificate {\n        uint certificateId;\n        string studentName;\n        address studentAddress;\n        uint certificateTypeId;\n        uint issuedDate;\n        bool valid;\n        // Potentially, a mapping of courses applied to the cert\n    }\n    \n    struct CertificateType {\n        string certificateName;\n        uint certificateTypeId;\n        string certificateDescription;\n        uint numCoursesRequired;\n    }\n    \n    struct Course {\n        uint courseId;\n        string courseName;\n        string courseDescription;\n    }\n    \n    struct Enrollment {\n        uint enrollmentId;\n        address studentAddress;\n        uint courseId;\n        bool pass;\n    }\n    \n    struct Student {\n        address studentAddress;\n        string studentName;\n        uint[] enrollmentIds;\n        uint[] certificateIds;\n    }\n    \n    function requestCert(uint _certificateTypeId) external payable returns (uint certificateId)  {\n        require(msg.value == 1 ether, \"You did not pay the correct amount for your certificate issuance request.\");\n        \n        address studentAddress = msg.sender;\n        \n        bool validRequest = validateRequest(studentAddress, _certificateTypeId);\n        require(validRequest, \"You have not successfully passed enough courses for this certificate type\");\n        \n        string memory studentName = students[studentAddress].studentName;\n        uint certificateTypeId = _certificateTypeId;\n        uint issuedDate = block.timestamp;\n        certificateId = getCertId();\n        \n        Certificate memory cert = Certificate(certificateId, studentName, studentAddress, certificateTypeId, issuedDate, true);\n        \n        issued_certificates[certificateId] = cert;\n        students[studentAddress].certificateIds.push(certificateId);\n        \n        return certificateId;\n    }\n    \n    function validateRequest(address _studentAddress, uint _certTypeId) private view returns (bool valid){\n        Student memory student = students[_studentAddress];\n        CertificateType memory certType = certificate_types[_certTypeId];\n        uint numCoursesPassed = 0;\n        \n        for(uint i = 0; i < student.enrollmentIds.length; i++){\n            uint id = student.enrollmentIds[i];\n            Enrollment memory e = enrollments[id];\n            if(e.pass){\n                numCoursesPassed++;\n            }\n        }\n        valid = false;\n        if(numCoursesPassed >= certType.numCoursesRequired){\n            valid = true;\n        }\n        return valid;\n    }\n    \n    // Can't return structs in external functions in Solidity - decompose it\n    function getCert(uint id) public view returns (\n        uint certificateId,\n        string memory studentName,\n        address studentAddress,\n        uint certificateTypeId,\n        uint issuedDate,\n        bool valid\n     ){\n        Certificate memory cert = issued_certificates[id];\n        return(cert.certificateId, cert.studentName, cert.studentAddress, cert.certificateTypeId, cert.issuedDate, cert.valid);\n    }\n    \n    function addStudent(address _studentAddress, string calldata _studentName) public onlyOwner returns (bool success){\n        uint[] memory tempEIds;\n        uint[] memory tempCertIds;\n        Student memory tempStudent = Student(_studentAddress, _studentName, tempEIds, tempCertIds);\n        students[_studentAddress] = tempStudent;\n        return true;\n    }\n    \n    function addCourse(string calldata _courseName, string calldata _courseDesc) public onlyOwner returns (uint courseId){\n        courseId = getCourseId();\n        Course memory tempCourse = Course(courseId, _courseName, _courseDesc);\n        courses[courseId] = tempCourse;\n        return courseId;\n    }\n    \n    function addEnrollment(uint _courseId, address _studentAddress, bool _pass) public onlyOwner{\n        uint enrollmentId = getEnrollmentId();\n        \n        require(courses[_courseId].courseId > 0, \"This courseId doesn't exist.\");\n        require(!studentEnrollmentAlreadyExists(_courseId, _studentAddress), \"This student has already passed this course.\");\n        \n        Enrollment memory tempEnrollment = Enrollment(enrollmentId, _studentAddress, _courseId, _pass);\n        enrollments[enrollmentId] = tempEnrollment;\n        students[_studentAddress].enrollmentIds.push(enrollmentId);\n    }\n    \n    function studentEnrollmentAlreadyExists(uint _courseId, address _studentAddress) private view returns (bool exists){\n        Student memory student = students[_studentAddress];\n        exists = false;\n        for(uint i = 0; i < student.enrollmentIds.length; i++){\n            uint id = student.enrollmentIds[i];\n            Enrollment memory e = enrollments[id];\n            if(e.courseId == _courseId && e.pass){\n                exists = true;\n            }\n        }\n        return exists;\n    }\n    \n    function addCertificateType(string calldata _certName, string calldata _certDesc, uint _numCoursesRequired) public onlyOwner returns (uint certTypeId){\n        require(_numCoursesRequired > 0, \"A certificate must require at least one course.\");\n        certTypeId = getCertTypeId();\n        CertificateType memory certType = CertificateType(_certName, certTypeId, _certDesc, _numCoursesRequired);\n        certificate_types[certTypeId] = certType;\n        return certTypeId;\n    }\n    \n    // function getStudentEnrollmentIds(address _address) public view returns(uint [] memory){\n    //     return students[_address].enrollmentIds;\n    // }\n    \n}",
  "sourcePath": "/Users/colecrawford/GitHub/blockchain-certs/contracts/CertificateIssuer.sol",
  "compiler": {
    "name": "solc",
    "version": "0.7.6+commit.7338295f.Emscripten.clang"
  },
  "schemaVersion": "3.3.4",
  "updatedAt": "2021-04-26T01:06:44.739Z",
  "devdoc": {
    "kind": "dev",
    "methods": {},
    "version": 1
  },
  "userdoc": {
    "kind": "user",
    "methods": {},
    "version": 1
  }
}